:020000040000FA
:100000000299DE9009E512508A9009E51250792490
:10001000151250581251D370047F0580027F0612CA
:10002000C02D2202B4DB0275E42222020056E4FF56
:1000300012C95DEF60012243EF10220265A502CADA
:100040001F222202C457900AD5A3E0900ADDF012C5
:10005000AE302202C8E3C0E0C0F0C083C082C0D08E
:1000600075D010C2CF1288ADD0D0D082D083D0F05E
:10007000D0E03202CAD9AEA775A710EF600543E6FB
:1000800002800353E6FDAF068FA72202CA9F696E66
:1000900069740073686F77007265677365740065D3
:1000A00072617365006F7077006F707774006F70A6
:1000B00072006F707274000D0A20546865207661BA
:1000C0006C7565206F6E207061676520283078251B
:1000D0006278292C20696E64657828307825782923
:1000E000203A2000203078256278006D64696F77AF
:1000F000006D64696F72000D0A2054686520766196
:100100006C7565206F6E20706167652028307825DA
:100110006278292C20696E646578283078256878A3
:1001200029203A2000203078256C7800203078256E
:100130006878000D0A204D43555F544553545F4283
:100140004F4152442D762562752E25627520202060
:100150002025732E2573004F6374203039203230F0
:1001600031390031333A35303A313300656E6162EE
:100170006C650073657400676574000D0A6C706DC2
:100180006F646520697320256275000D0A726573BE
:1001900065742069732025627500636C6561720067
:1001A00064697361626C650072656164000D0A6D5B
:1001B0006F6473656C20697320256275006D6F64D0
:1001C00073656C00746573740061626F727465644A
:1001D000000D0A6D6F6473656C206973202562756C
:1001E00020616E6420647674207465737420626F7D
:1001F0006172642033373034362072656730203DB9
:1002000020256278000D0A6D6F6473656C20697338
:100210002025627520616E6420717366703238200B
:100220006C6F776572207061676530203D202562B4
:1002300078000D0A6D6F6473656C20697320256208
:100240007520616E642076616C7565203D202562A5
:1002500078000D0A696E746C206973202562750040
:100260002573000D0A4D6F64756C6520626F6F74A5
:100270002073756363657373000D0A4D6F64756C4D
:100280006520626F6F74206572726F7200766363AF
:100290000074656D700062696173007478706F77C7
:1002A0006572007278706F776572000D0A56656E20
:1002B0006465725F706E3A2573000D0A56656E6450
:1002C00065725F7265763A2573000D0A56656E6435
:1002D00065725F736E3A2573000D0A446174655F41
:1002E000636F64653A2573000D0A53757065726318
:1002F0006F64653A2573000D0A506362615F736E27
:100300003A2573000D0A506362615F636F64653A5A
:100310002573000D0A4C617365725F74785F736EAC
:100320003A2573000D0A52785F6C6F73615F7468D1
:100330006C642562753A256875000D0A52785F6C09
:100340006F73645F74686C642562753A2568750024
:100350000D0A52785F6C6F735F6D6F64653A25624A
:1003600075000D0A527373695F6461726B615F742B
:10037000686C642562753A256875000D0A527373BE
:10038000695F6461726B645F74686C642562753A5E
:10039000256875000D0A507262732562753A2562F0
:1003A00075000D0A4C617365725F72785F736E3A07
:1003B0002573000D0A5069635F636F64653A2573A6
:1003C000000D0A4D6F64756C655F747970653A3025
:1003D00078256878000D0A48775F7665723A25625D
:1003E00078006E6F77000D0A63684E0974656D7052
:1003F000202020202062696173202020206D6F64FE
:10040000202020202063726F7373696E67000D0ACD
:100410002D2D2D2D2D2D2D2D2D2D2D2D2D2D2D2D0C
:100420002D2D2D2D2D2D2D2D2D2D2D2D2D2D2D2DFC
:100430002D2D2D2D2D2D2D006375720074656D7081
:100440005F6F6666736574000D0A2054656D705F9A
:100450006F6666736574206973206F7574206F66AC
:100460002072616E6765000D0A2074656D705F6FA4
:1004700066667365743A2566284329007663635F70
:100480006F6666736574000D0A205663635F6F665E
:1004900066736574206973206F7574206F662072AF
:1004A000616E6765000D0A207663635F6F66667331
:1004B00065743A256628562900626961735F6F6624
:1004C00066736574000D0A2063682562752D626984
:1004D00061735F6F66667365745F783A2566286D31
:1004E00041290D0A2063682562752D626961735F79
:1004F0006F66667365745F793A2566286D412900D9
:100500007478707772000D0A63682562752D7478AF
:10051000706F776572313A25662864626D290D0A1D
:1005200063682562752D62696173312020203A2548
:1005300066286D41290D0A63682562752D747870EF
:100540006F776572323A25662864626D290D0A63F9
:10055000682562752D626961733220203A2566280C
:100560006D4129007278707772000D0A5278706FB1
:10057000776572206F722072737369206973206FC0
:100580007574206F662072616E6765000D0A63687E
:100590002562752D7278706F776572313A256628FD
:1005A00064626D290D0A63682562752D7273736923
:1005B000312020203A256875287541290D0A636885
:1005C0002562752D7278706F776572323A256628CC
:1005D00064626D290D0A63682562752D72737369F3
:1005E000322020203A256875287541290074786DDD
:1005F0006F6E007273736900616C6C0074656D706E
:100600005F686967685F616C61726D0074656D70C9
:100610005F6C6F775F616C61726D0074656D705FA8
:10062000686967685F7761726E0074656D705F6C92
:100630006F775F7761726E007663635F6869676882
:100640005F616C61726D007663635F6C6F775F6191
:100650006C61726D007663635F686967685F77617C
:10066000726E007663635F6C6F775F7761726E00A6
:1006700072787077725F686967685F616C61726DCC
:100680000072787077725F6C6F775F616C61726D0A
:100690000072787077725F686967685F7761726E01
:1006A0000072787077725F6C6F775F7761726E003F
:1006B000626961735F686967685F616C61726D0030
:1006C000626961735F6C6F775F616C61726D00620C
:1006D0006961735F686967685F7761726E006269FC
:1006E00061735F6C6F775F7761726E00747870779B
:1006F000725F686967685F616C61726D00747870C1
:1007000077725F6C6F775F616C61726D0074787087
:1007100077725F686967685F7761726E007478707E
:1007200077725F6C6F775F7761726E000D0A206978
:10073000326320436C6F636B205370656564203AAD
:1007400020256875206B487A000D0A204D696E6976
:100750006D756D206672657175656E6379203330D5
:100760006B487A20000D0A204D6F64756C6520730C
:1007700074617465206973206E6F726D616C000D19
:100780000A204D6F64756C6520576174636820445E
:100790006F67207265626F6F74000D0A313131002E
:1007A0000D0A323232000D0A3333330073746F7026
:1007B00000747863647200727863647200737461A9
:1007C0007274006C74007274006874006C7574004C
:1007D00050300050310050320050330050304D4402
:1007E0004F55540050314D444F55540050324D44F4
:1007F0004F55540050334D444F55540050304D44E4
:10080000494E0050314D44494E0050324D44494EFE
:100810000050334D44494E00726567000D0A257340
:1008200009203D2030782562780077726974650070
:100830006275696C6420696E666F007265736574B9
:10084000007265626F6F7400666163746F72795FC6
:1008500072657365740067657420737776657200DE
:100860005B6F70727C6F70775D202662617365418B
:1008700064647220264F666641646472202350616E
:10088000726D4E756D28307E3078666629005B6D1E
:1008900064696F727C6D64696F775D202662617335
:1008A000654164647220264F666641646472202349
:1008B0005061726D4E756D28307E30786666290005
:1008C00067657420696E746C00676574206D6F6471
:1008D0005F73746174757300656E74657220626F06
:1008E0006E64696E67006565702020205B696E69C3
:1008F000747C73686F777C65726173655D200061DD
:1009000075746F205B656E61626C657C6469736190
:10091000626C655D0064646D69205B656E61626C2C
:10092000657C64697361626C655D006167696E67AF
:10093000205B73746172747C73746F707C636C651C
:10094000616E5D00696E746C206F757470757420D3
:100950005B656E61626C657C64697361626C655D28
:100960000074657374206D6F6473656C20235B3055
:100970007C315D0074657374206D6F6473656C20E9
:1009800061626F72746564005B6765747C73657423
:100990005D206C706D6F646520235B307C315D0081
:1009A0005B6765747C7365745D2072657365742024
:1009B00020235B307C315D005B6765747C736574FC
:1009C0005D2072657365745F6C20235B307C315DE4
:1009D000005B6765747C7365745D206D6F6473651F
:1009E0006C20235B307C315D00656E746572206D18
:1009F000736120646F776E6C6F61640072737369EA
:100A0000205B73686F777C73746F705D20237661F1
:100A10006C7565286D7329006D6F645F636F6E730D
:100A20006F6C65205B656E61626C657C6469736187
:100A3000626C655D005B74786364727C7278636479
:100A4000725D2069326320656E61626C65005B7265
:100A50006561647C656E61626C657C64697361620A
:100A60006C657C636C6561725D206C6F67006565A9
:100A700070207265677365742026646576616464AE
:100A80007220266F666673657461646472202676D0
:100A9000616C7565005B6F7072747C6F7077745DEC
:100AA0002026626173654164647220264F66664148
:100AB00064647220235061726D4E756D28307E30F3
:100AC00078666629005B6765747C7365745D206C6D
:100AD000617365725F74785F736E2023005B676576
:100AE000747C7365745D206C617365725F72785F8E
:100AF000736E2023005B6765747C7365745D207082
:100B000069635F636F64652023005B6765747C7352
:100B100065745D206D6F64756C655F7479706520B8
:100B2000235B30783130317C30783230367C30782D
:100B30003231317C30783330315D005B6765747CF5
:100B40007365745D2068775F766572202376616CCB
:100B5000756528414D29005B6765747C7365745D1C
:100B60002076656E646F725F706E2020236368610B
:100B7000725B31365D005B6765747C7365745D2004
:100B800076656E646F725F7265762023636861724A
:100B90005B325D005B6765747C7365745D207665B0
:100BA0006E646F725F736E202023636861725B31C5
:100BB000365D005B6765747C7365745D2064617489
:100BC000655F636F6465202023636861725B385DD5
:100BD000005B6765747C7365745D20737570657206
:100BE000636F6465202023636861725B395D005B1D
:100BF0006765747C7365745D20706362615F736E9A
:100C00002020202023636861725B31365D005B67C2
:100C100065747C7365745D20706362615F636F648B
:100C200065202023636861725B31365D00676574FF
:100C3000206D6F64756C65205B7663637C74656D95
:100C4000707C626961737C7478706F7765727C7296
:100C500078706F7765725D20236368616E6E656C76
:100C6000005B6765747C7365745D205B6368307CD2
:100C70006368317C6368327C6368337C616C6C5D73
:100C8000205B6C747C72747C68747C6C75745D2001
:100C90002374656D7020236269617320236D6F6416
:100CA000202363726F7373005B6765747C73657474
:100CB0005D205B6368307C6368317C6368327C6391
:100CC00068335D20235B6375727C66697865645F59
:100CD00074656D705D206C757420746162005B7367
:100CE00065747C6765745D2064646D695F63616CC5
:100CF00069205B74656D705F6F66667365747C7682
:100D000063635F6F66667365745D202376616C75DF
:100D100065005B7365747C6765745D2064646D69F0
:100D20005F63616C69205B6368307C6368317C63FE
:100D300068327C6368337C616C6C5D2062696173CE
:100D40005F6F66667365742023424941535F582084
:100D500023424941535F59005B7365747C67657436
:100D60005D2064646D695F63616C69205B636830FA
:100D70007C6368317C6368327C6368335D2074789F
:100D800070777220235458505752312023424941E2
:100D90005331202354585057523220234249415353
:100DA00032005B7365747C6765745D2064646D6993
:100DB0005F63616C69205B6368307C6368317C636E
:100DC00068327C6368335D207278707772202352BA
:100DD00058505752312023525353493120235258EF
:100DE00050575232202352535349320067657420C2
:100DF00064646D69205B7663637C74656D705D000F
:100E00006765742064646D69205B626961737C74DA
:100E1000786D6F6E7C727373695D205B307C317CA2
:100E2000327C335D005B7365747C6765745D207430
:100E30006872686C64205B74656D705F6869676870
:100E40005F616C61726D7C74656D705F6869676805
:100E50005F7761726E7C74656D705F6C6F775F61D8
:100E60006C61726D7C74656D705F6C6F775F7761BC
:100E7000726E5D202376616C7565005B7365747CB2
:100E80006765745D20746872686C64205B76636368
:100E90005F686967685F616C61726D7C7663635FD0
:100EA000686967685F7761726E7C7663635F6C6F99
:100EB000775F616C61726D7C7663635F6C6F775F87
:100EC0007761726E5D20202020202376616C75652D
:100ED000005B7365747C6765745D20746872686C10
:100EE00064205B626961735F686967685F616C61F8
:100EF000726D7C626961735F686967685F77617250
:100F00006E7C626961735F6C6F775F616C61726D3B
:100F10007C626961735F6C6F775F7761726E5D2071
:100F20002376616C7565005B7365747C6765745DC1
:100F300020746872686C64205B72787077725F6886
:100F40006967685F616C61726D7C72787077725FDF
:100F5000686967685F7761726E7C72787077725FBC
:100F60006C6F775F616C61726D7C72787077725FA5
:100F70006C6F775F7761726E5D202376616C75654B
:100F8000005B7365747C6765745D20746872686C5F
:100F900064205B74787077725F686967685F616C02
:100FA00061726D7C74787077725F686967685F776B
:100FB00061726E7C74787077725F6C6F775F616C52
:100FC00061726D7C74787077725F6C6F775F776138
:100FD000726E5D202376616C7565005B6765747C5D
:100FE0007365745D206D6F64756C655F636C6173B0
:100FF00073202376616C7565005B7365747C67652F
:10100000745D206969635F73706565642023766130
:101010006C7565286B487A2900676574206D6F646C
:101020005F626F6F745F726561736F6E007365747A
:10103000205B6368307C6368317C6368327C636802
:10104000337C616C6C5D2074785F70726273205BBE
:10105000656E61626C657C64697361626C655D007C
:10106000736574205B6368307C6368317C636832CD
:101070007C6368337C616C6C5D2072785F70726237
:101080007320636865636B205B656E61626C657C71
:1010900064697361626C655D202376616C75652897
:1010A0006D732900736574205B6368307C636831FD
:1010B0007C6368327C6368337C616C6C5D20727821
:1010C0005F7072627320696E766572742063686502
:1010D000636B205B656E61626C657C6469736162E1
:1010E0006C655D202376616C7565286D73290073CE
:1010F0006574205B6368307C6368317C6368327C34
:101100006368337C616C6C5D207478205B656E6114
:10111000626C657C64697361626C655D00676574AF
:10112000205B6368307C6368317C6368327C636811
:10113000337C616C6C5D207478005B6765747C73D4
:1011400065745D205B6368307C6368317C63683202
:101150007C6368337C616C6C5D206461726B615F81
:1011600074686C64202376616C756528754129006C
:101170005B6765747C7365745D205B6368307C635A
:1011800068317C6368327C6368337C616C6C5D20A1
:101190006461726B645F74686C64202376616C7543
:1011A0006528754129005B6765747C7365745D20F3
:1011B0005B6368307C6368317C6368327C6368336E
:1011C0005D206C6F73615F74686C64202376616C62
:1011D000756528754129005B6765747C7365745D6E
:1011E000205B6368307C6368317C6368327C636851
:1011F000335D206C6F73645F74686C642023766168
:101200006C7565287541290073686F77206D63756B
:1012100020726567005B726561647C7772697465D2
:101220005D2072656720267265675F6E616D65205F
:101230002376616C7565000000000000000000006E
:10124000000000000000000000000000000000009E
:10125000000000000000000000000000000000008E
:10126000000000000000000000000000000000007E
:10127000000000000000000000000000000000006E
:10128000000000000000000000000000000000005E
:10129000000000000000000000000000000000004E
:1012A000000000000000000000000000000000003E
:1012B000000000000000000000000000000000002E
:1012C000000000000000000000000000000000001E
:1012D000000000000000000000000000000000000E
:1012E00000000000000000000000000000000000FE
:1012F00000000000000000000000000000000000EE
:1013000000000000000000000000000000000000DD
:1013100000000000000000000000000000000000CD
:1013200000000000000000000000000000000000BD
:1013300000000000000000000000000000000000AD
:10134000000000000000000000000000000000009D
:10135000000000000000000000000000000000008D
:10136000000000000000000000000000000000007D
:10137000000000000000000000000000000000006D
:10138000000000000000000000000000000000005D
:10139000000000000000000000000000000000004D
:1013A000000000000000000000000000000000003D
:1013B000000000000000000000000000000000002D
:1013C000000000000000000000000000000000001D
:1013D000000000000000000000000000000000000D
:1013E00000000000000000000000000000000000FD
:1013F00000000000000000000000000000000000ED
:1014000000000000000000000000000000000000DC
:101410000000008185898D83878B8F9195999D939D
:10142000979B9F02010300040102000304010200D4
:1014300003040217F3E86480F8E933E83360110429
:1014400060F0ED33EC337009E8FCE9FDEAFEEBFFF8
:10145000220460DED3EB9FEA9EE99DE8C2E78CF0B0
:10146000C2F795F0400CE8CCF8E9CDF9EACEFAEBFA
:10147000CFFB1217BE85D0F05804700320D5B3E817
:101480000470075002B2D50217FD92D5EC0460F744
:10149000E4CCC0E0C398F8603B94186008400DD0DD
:1014A000E0FB0217D5E4FBFAC9FC8028E830E4062B
:1014B000E4C9FBE4CAFCE830E305E4C9CACBFCE8B4
:1014C00054076010F8C3E913F9EA13FAEB13FBECC5
:1014D00013FCD8F130F52FC3E49CFCEF9BFFEE9A90
:1014E000FEED99FDD0E0FBEF4E4D4C701222DB0378
:1014F0000217FAEC2CFCEF33FFEE33FEED33FDED7B
:1015000030E7EB0217D5EF2BFFEE3AFEED39FDD0B9
:10151000E0FB50130BBB00030217FDED13FDEE13B0
:10152000FEEF13FFEC13FC0217D5EC4D6011E849F8
:101530007017ED33EC3304600DE4FCFFFEFD22E98F
:1015400033E8330470F80217F31217BE5804600929
:10155000E4CC248150062850090217FD28400302DC
:1015600017FAC0E0EB4A7044B98006D0E0FB0217DE
:10157000E9EF4E701CBD8008EBFFEAFEE9FD80EB51
:10158000E98DF0A4FEE5F0021613E9CDF9EAFEEBD1
:10159000FFEF89F0A4FCE5F0CE89F0A42EFFE4353E
:1015A000F0CD89F0A42DFEE435F08067EF4E700594
:1015B000BD80D780C3EF8BF0A4ACF0EE8BF0A42CF1
:1015C000FCE435F0F8EF8AF0A42CE5F038FCE433C5
:1015D000CB8DF0A42CFCE5F03BF8EE8AF0A42CFCBB
:1015E000E5F038F8E433CF89F0A42CFCE5F038CFEF
:1015F0003400CE89F0A42FFFE5F03EFEE433C98D20
:10160000F0A42EFEE5F039CD8AF0A42FFFE5F03EE0
:10161000FEE43DFD33D0E0FB50070BBB000F02178B
:10162000FDEC2CFCEF33FFEE33FEED33FD0217D55E
:101630000217FDEC5D046005E8590470030217F31E
:101640001217BE580460F6EC4860F2EC7004FDFE20
:10165000FF22C860DB2481C85009C398600250068D
:101660000217FA9850CAF582E9294B4A7005AB82F5
:101670000217E975F0007C1A7880C3EF9BEE9AEDB3
:1016800099400DC3EF9BFFEE9AFEED99FDE842F005
:10169000DC23ACF0D0E0FFD0E0FED0E0FDAB822058
:1016A000E7101BEB60BAEC2CFCEF33FFEE33FEEDE2
:1016B00033FD0217D5E803F830E705C0F075F000F8
:1016C000EF2FFFEE33FEED33FD40B830E7C280AAC6
:1016D00074F8CC6480CCC86480C8F58204604FC3C1
:1016E000EB9FF5F0EA9E42F0E99D42F0E89C45F060
:1016F000603C501DE5825FFFE582D313CB5BCBF4EA
:101700002B5582FB50280ABA002409B90020088012
:101710001DE5825BFBE582D313CF5FCFF4C3132FAC
:101720005582FF50090EBE00050DBD00010CC3EB34
:101730009FF5F0EA9E42F0E99D42F0E89C45F0609A
:1017400007CC4820E701B3EC2275F020800E75F03D
:1017500010800575F0087D007E007F003392D53043
:10176000D503121EBBEC334010EF33FFEE33FEED1A
:1017700033FDEC33FCD5F0ED22E5F0247EA2D51349
:10178000CC92E7CDCEFF22EDD2E7CD33EC3392D52C
:1017900024814006E4FFFEFDFC22FCE4CFCECDCC4C
:1017A00024E0501174FF80EDC3CC13CCCD13CDCE0B
:1017B00013CECF13CF0470F030D5DE021EBBE9D2BA
:1017C000E7C933E833F892D5EDD2E7CD33EC33FCFB
:1017D0005002B2D522EC30E7100FBF000C0EBE0055
:1017E000080DBD00040BEB6014A2D5EB13FCED92C9
:1017F000E7FD2274FFFCFDFEFF22E480F8A2D57411
:10180000FF13FC7D80E480EFED33EC336010047057
:101810000FED547F7005740292E0227404220422BA
:10182000E422ED33EC33600A047003BD8004ECB2B3
:10183000E7FC22F920E73624F950037907E4F42481
:1018400002FBE582158270021583DBF6E024FB5073
:101850001BE96014E4F0E582158270021583E00450
:10186000F0B40A08E4F0D9EE7401F00A22C2D522DD
:10187000ED33EC3392D5FA602AB4FF33EDC2E77B47
:10188000FF60067A187995E4227A18799E20D504AB
:101890007A187999224E614E002B494E46002D4907
:1018A0004E4600E47A08F0A3DAFC7B00740722C0FD
:1018B00083C082ECC0E0EDC0E0EEC0E0EFC0E0EA43
:1018C00075F010A4CAABF075F04DA42BFBE435F015
:1018D000FCEA2410FAEB34C5FBEC34D9FCEDC2E78A
:1018E000FF75F056A4F42411C5F0F434C58FF0A4AC
:1018F0002AE5F03BE43CF020E7141219F2D0E0FFB7
:10190000D0E0FED0E0FDD0E0FC1216338014F404E9
:101910001219F2D0E0FFD0E0FED0E0FDD0E0FC12E2
:10192000152AD082D083E0FAEDD2E7CD33EC332410
:1019300082FBE4C3CF33CFCE33CECD33CD33DBF315
:101940007B0775F00A846004F0A31B0AE5F0F0A39E
:101950008FF0740AA4FFACF08EF0740AA42CFEACD5
:10196000F050010C8DF0740AA42CFDE435F0F0A3C6
:10197000DBDE740722C0E0EFFBEEFAEDF9ECF812C3
:10198000152AD0E0F5F0EFFBEEFAEDF9ECF8121FB6
:101990008EA3A3A3A3E8C0E0E9C0E0EAC0E0EBC0E7
:1019A000E0C0F012152A121FAAA3A3A3A312143990
:1019B000D0F0D0E0FBD0E0FAD0E0F9D0E0F8D5F0FC
:1019C000D4223F8000004120000042C80000447A39
:1019D0000000461C400047C35000497424004B18C7
:1019E00096804CBEBC205A0E1BCA6753C21C749D05
:1019F000C5AEFB60065407601C2323121A20EB546B
:101A0000386009121A0C121A1B12152AECF8EDF99B
:101A1000EEFAEFCB22EB121A1B80F1543803241C90
:101A20009019C2FE93FC0EEE93FD0EEE930ECE9334
:101A3000FF22E709F608DFFA8046E709F208DFFA35
:101A4000803E88828C83E709F0A3DFFA8032E309C5
:101A5000F608DFFA8078E309F208DFFA80708882FE
:101A60008C83E309F0A3DFFA806489828A83E0A390
:101A7000F608DFFA805889828A83E0A3F208DFFA49
:101A8000804C80D280FA80C680D4806980F2803316
:101A9000801080A680EA809A80A880DA80E280CADE
:101AA000803389828A83ECFAE493A3C8C582C8CCC8
:101AB000C583CCF0A3C8C582C8CCC583CCDFE9DE22
:101AC000E7800D89828A83E493A3F608DFF9ECFAB4
:101AD000A9F0EDFB2289828A83ECFAE0A3C8C582D3
:101AE000C8CCC583CCF0A3C8C582C8CCC583CCDF25
:101AF000EADEE880DB89828A83E493A3F208DFF9D7
:101B000080CC88F0EF60010E4E60C388F0ED2402B7
:101B1000B4040050B9F582EB2402B4040050AF23A2
:101B200023458223901A8273BB010689828A83E04F
:101B3000225002E722BBFE02E32289828A83E493D9
:101B400022BB010CE58229F582E5833AF583E02288
:101B50005006E92582F8E622BBFE06E92582F8E276
:101B600022E58229F582E5833AF583E49322BB01DD
:101B700011F8E58229F582E5833AF583E0C828F07B
:101B8000E8225009C58229F8C58226C622BBFE0D6F
:101B9000C58229F8E2C5822582F2E58222EA258300
:101BA000F583E99322BB010989828A83F8E028F052
:101BB00022500327F722BBFE05F8E328F3228A838D
:101BC0008982F8E4932822BB010FF8E58229F58287
:101BD000E5833AF583E028F0225009C58229F8E52B
:101BE0008226F622BBFE09C58229F8E22582F2226E
:101BF000F8EA2583F583E9932822BB010689828AC6
:101C000083F0225002F722BBFE01F322F8BB010D44
:101C1000E58229F582E5833AF583E8F0225006E96A
:101C20002582C8F622BBFE05E92582C8F222EF8D87
:101C3000F0A4A8F0CF8CF0A428CE8DF0A42EFE2224
:101C4000C2D5EC30E709B2D5E4C39DFDE49CFCEEBF
:101C500030E715B2D5E4C39FFFE49EFE12243BC3D8
:101C6000E49DFDE49CFC800312243B30D507C3E4D3
:101C70009FFFE49EFE22C5F0F8A3E028F0C5F0F82F
:101C8000E582158270021583E038F022A3F8E0C5E2
:101C9000F025F0F0E582158270021583E0C838F077
:101CA000E822BB010A89828A83E0F5F0A3E0225092
:101CB0000687F009E71922BBFE07E3F5F009E319EF
:101CC0002289828A83E493F5F074019322BB011088
:101CD000E58229F582E5833AF583E0F5F0A3E02279
:101CE0005009E92582F886F008E622BBFE0AE925BC
:101CF00082F8E2F5F008E222E5832AF583E993F51C
:101D0000F0A3E99322BB010DC58229C582C5833AA0
:101D1000C583021C765011C58229F808E5F026F625
:101D200018F5F0E58236F622BBFE11C58229F808C7
:101D3000E225F0F5F0F218E23582F222F8E5822988
:101D4000F582E5832AF58374019325F0F5F0E49399
:101D50003822BB010A89828A83F0E5F0A3F0225081
:101D600006F709A7F01922BBFE06F3E5F009F319FF
:101D700022F8BB0111E58229F582E5833AF583E873
:101D8000F0E5F0A3F0225009E92582C8F608A6F094
:101D900022BBFE09E92582C8F2E5F008F222E88FAD
:101DA000F0A4CC8BF0A42CFCE98EF0A42CFC8AF0DF
:101DB000EDA42CFCEA8EF0A4CDA8F08BF0A42DCCE1
:101DC0003825F0FDE98FF0A42CCD35F0FCEB8EF03A
:101DD000A4FEA9F0EB8FF0A4CFC5F02ECD39FEE420
:101DE0003CFCEAA42DCE35F0FDE43CFC2275F00865
:101DF000758200EF2FFFEE33FECD33CDCC33CCC553
:101E00008233C5829BED9AEC99E58298400CF5826D
:101E1000EE9BFEED9AFDEC99FC0FD5F0D6E4CEFBDF
:101E2000E4CDFAE4CCF9A88222B800C1B90059BACD
:101E3000002DEC8BF084CFCECDFCE5F0CBF97818FB
:101E4000EF2FFFEE33FEED33FDEC33FCEB33FB10F5
:101E5000D703994004EB99FB0FD8E5E4F9FA22780F
:101E600018EF2FFFEE33FEED33FDEC33FCC933C921
:101E700010D7059BE99A4007EC9BFCE99AF90FD82B
:101E8000E0E4C9FAE4CCFB2275F010EF2FFFEE334B
:101E9000FEED33FDCC33CCC833C810D7079BEC9A8A
:101EA000E899400AED9BFDEC9AFCE899F80FD5F013
:101EB000DAE4CDFBE4CCFAE4C8F922C3E49FFFE402
:101EC0009EFEE49DFDE49CFC22EB9FF5F0EA9E4221
:101ED000F0E99D42F0E89C45F022E8600FECC31366
:101EE000FCED13FDEE13FEEF13FFD8F122E8600FB7
:101EF000EFC333FFEE33FEED33FDEC33FCD8F122BC
:101F0000BB010789828A8302249C5005E9F80224D8
:101F100090BBFE05E9F80224A889828A83021F8EFD
:101F2000BB010DE58229F582E5833AF58302249C05
:101F30005007E92582F8022490BBFE07E92582F8C4
:101F40000224A8E58229F582E5833AF583021F8EF3
:101F5000BB010789828A8302200A5005E9F802241E
:101F6000CEBBFE05E9F80224DA22BB010DE5822989
:101F7000F582E5833AF58302200A5007E92582F8C5
:101F80000224CEBBFE07E92582F80224DA22E4937C
:101F9000FC740193FD740293FE740393FF22E0F836
:101FA000A3E0F9A3E0FAA3E0FB22E493F874019321
:101FB000F9740293FA740393FB22BB010789828AA6
:101FC00083021F9E5005E9F80224B4BBFE05E9F820
:101FD0000224C189828A83021FAABB010DE58229DE
:101FE000F582E5833AF583021F9E5007E92582F8C2
:101FF0000224B4BBFE07E92582F80224C1E5822948
:10200000F582E5833AF583021FAAECF0A3EDF0A375
:10201000EEF0A3EFF022A8828583F0D083D0821265
:10202000202D12202D12202D12202DE473E493A3D5
:10203000C583C5F0C583C8C582C8F0A3C583C5F0F4
:10204000C583C8C582C822BB010789828A83022052
:10205000165005E9F80224E6BBFE05E9F80224FF64
:1020600022BB010DE58229F582E5833AF583022042
:10207000165007E92582F80224E6BBFE07E925820F
:10208000F80224FF22F5F0C582A4C582C5F0C583FD
:10209000A42583F58322F8E0FBA3A3E0F925F0F063
:1020A000E582158270021583E0FA38F022EBF0A386
:1020B000EAF0A3E9F022BB010789828A8302252A7C
:1020C0005005E9F8022518BBFE05E9F80225338919
:1020D000828A83022545BB010DE58229F582E583CD
:1020E0003AF58302252A5007E92582F8022518BB14
:1020F000FE07E92582F8022533E58229F582E5838A
:102100003AF583022545BB0120E58229F582E58366
:102110003AF583D0F0D0E0F8D0E0F9D0E0FAD0E0A2
:10212000FBE8C0E0C0F00220AD5018E92582F8D0ED
:1021300083D082D0E0F9D0E0FAD0E0FBC082C08347
:10214000022521BBFE18E92582F8D083D082D0E099
:10215000F9D0E0FAD0E0FBC082C08302253C22D057
:1021600083D082F8E4937012740193700DA3A3934B
:10217000F8740193F5828883E4737402936860EFC6
:10218000A3A3A380DF8A838982E473E3F5F009E2E5
:1021900008B5F06D606B80F3E3F5F009E608B5F083
:1021A00060605E80F387F009E608B5F05460528005
:1021B000F487F009E208B5F048604680F488828C24
:1021C0008387F009E0A3B5F038603680F488828C0C
:1021D0008387F009E493A3B5F027602580F3888214
:1021E0008C83E3F5F009E0A3B5F016601480F38862
:1021F000828C83E3F5F009E493A3B5F004600280D8
:10220000F20222B6808580E7808E80D2803C8015E5
:10221000806C807E809B80B5808B80A1804F807099
:10222000803A0222C289828A83ECFAE493F5F0A311
:10223000C8C582C8CCC583CCE493A3C8C582C8CC2A
:10224000C583CCB5F070606E80E189828A83E493A7
:10225000F5F0A3E208B5F05E605C80F289828A83C3
:10226000E0F5F0A3E608B5F04D604B80F389828A73
:1022700083E0F5F0A3E208B5F03C603A80F3898290
:102280008A83E493F5F0A3E608B5F02A602880F28B
:10229000805389828A83ECFAE493F5F0A3C8C5825F
:1022A000C8CCC583CCE0A3C8C582C8CCC583CCB597
:1022B000F004600280E27FFFB5F0020F2240027F4F
:1022C000012289828A83ECFAE0F5F0A3C8C582C8AE
:1022D000CCC583CCE0A3C8C582C8CCC583CCB5F03F
:1022E000D560D380E389828A83ECFAE0F5F0A3C855
:1022F000C582C8CCC583CCE493A3C8C582C8CCC56D
:1023000083CCB5F0B160AF80E288F0ED2402B40474
:102310000050A3F582EB2402B40400509923234516
:10232000822390220473E709F60870FA8046E709D1
:10233000F20870FA803E88828C83E709F0A370FA75
:10234000807EE309F60870FA8076E309F20870FAF5
:10235000806E88828C83E309F0A370FA80628982A0
:102360008A83E0A3F60870FA805689828A83E0A304
:10237000F20870FA804A80D280FA80C680D48065E4
:1023800080F28031801080A680EA809A80A880DA6E
:1023900080E280CA803189828A83ECFAE493A3C800
:1023A000C582C8CCC583CCF0A3C8C582C8CCC583C0
:1023B000CC70E9800D89828A83E493A3F60870F9D2
:1023C000ECFAA9F0EDFB2289828A83ECFAE0A3C83B
:1023D000C582C8CCC583CCF0A3C8C582C8CCC58390
:1023E000CC70EA80DD89828A83E493A3F20870F9D5
:1023F00080CE88F0ED2402B4040050C4F582EB24B2
:1024000002B4040050BA232345822390237673EF4D
:102410004E6012EF60010EEDBB010B89828A83F0E2
:10242000A3DFFCDEFA2289F05007F709DFFCA9F0F0
:1024300022BBFEFCF309DFFCA9F022BC000BBE00AE
:1024400029EF8DF084FFADF022E4CCF875F008EFB1
:102450002FFFEE33FEEC33FCEE9DEC984005FCEED6
:102460009DFE0FD5F0E9E4CEFD22EDF8F5F0EE8407
:1024700020D21CFEADF075F008EF2FFFED33FD40CC
:1024800007985006D5F0F222C398FD0FD5F0EA2246
:10249000E6FC08E6FD08E6FE08E6FF22E0FCA3E015
:1024A000FDA3E0FEA3E0FF22E2FC08E2FD08E2FE5D
:1024B00008E2FF22E6FB08E6F908E6FA08E6CBF8B0
:1024C00022E2FB08E2F908E2FA08E2CBF822ECF695
:1024D00008EDF608EEF608EFF622ECF208EDF20849
:1024E000EEF208EFF222D083D082E493F608740172
:1024F00093F608740293F608740393F6740473D089
:1025000083D082E493F208740193F208740293F288
:1025100008740393F2740473E6FB08E6FA08E6F91C
:1025200022EBF608EAF608E9F622E0FBA3E0FAA3BC
:10253000E0F922E2FB08E2FA08E2F922EBF208EA0B
:10254000F208E9F222E493FB740193FA740293F91E
:1025500022900A2412200A127E3EC2AF127E3FC28F
:10256000A2D2A10000000000000000000000000056
:10257000000000000000000000000000000000005B
:10258000000000000000000000000000000000004B
:10259000000000000000000000000000000000003B
:1025A0000000000000000000000000127DF40000A8
:1025B000000000000000000000000000000000001B
:1025C000000000000000000000000000000000000B
:1025D00000000000000000000000000000000000FB
:1025E00000000000000000000000000000000000EB
:1025F000000000000000127E777003127E7E900AB9
:102600002EE07004A3E06420600302255FC2A2C232
:10261000A100000000000000000000000000000019
:1026200000000000000000000000000000000000AA
:10263000000000000000000000000000000000009A
:10264000000000000000000000000000000000008A
:10265000000000000000000000127DF400000000F7
:10266000000000000000000000000000000000006A
:10267000000000000000000000000000000000005A
:10268000000000000000000000000000000000004A
:10269000000000000000000000000000000000003A
:1026A00000000000127E3E127E777003127E7E9044
:1026B0000A2EE07004A3E0640170ECC2A2C2A10083
:1026C000000000000000000000000000000000000A
:1026D00000000000000000000000000000000000FA
:1026E00000000000000000000000000000000000EA
:1026F00000000000000000000000000000000000DA
:1027000000000000000000127DF400000000000046
:1027100000000000000000000000000000000000B9
:1027200000000000000000000000000000000000A9
:102730000000000000000000000000000000000099
:102740000000000000000000000000000000000089
:102750000000127E3E127E777003127E7E900A2E5B
:10276000E07004A3E0640170ECC2A2C2A10000000A
:102770000000000000000000000000000000000059
:102780000000000000000000000000000000000049
:102790000000000000000000000000000000000039
:1027A0000000000000000000000000000000000029
:1027B0000000000000127DF4000000000000000096
:1027C0000000000000000000000000000000000009
:1027D00000000000000000000000000000000000F9
:1027E00000000000000000000000000000000000E9
:1027F00000000000000000000000000000000000D9
:10280000127E3E127E777003127E7E900A2EE0705A
:1028100004A3E0640170ECC2A2C2A10000000000A9
:1028200000000000000000000000000000000000A8
:102830000000000000000000000000000000000098
:102840000000000000000000000000000000000088
:102850000000000000000000000000000000000078
:10286000000000127DF400000000000000000000E5
:102870000000000000000000000000000000000058
:102880000000000000000000000000000000000048
:102890000000000000000000000000000000000038
:1028A0000000000000000000000000000000127E98
:1028B0003E127E777003127E7E900A2EE07004A393
:1028C000E0640170EC127E857404F0900A30127E90
:1028D0001A500302297AC2A2900A24127DFF127EA6
:1028E00036000000000000000000000000000000B2
:1028F00000000000000000000000000000000000D8
:1029000000000000000000000000000000000000C7
:1029100000000000000000000000000000000000B7
:10292000000000000000000000127DF40000000024
:102930000000000000000000000000000000000097
:102940000000000000000000000000000000000087
:102950000000000000000000000000000000000077
:102960000000000000000000000000000000000067
:1029700000000000127E460228CB127E857404F00F
:10298000900A30127E1A5003022A2FC2A2900A28FF
:10299000127DFF127E3600000000000000000000E3
:1029A0000000000000000000000000000000000027
:1029B0000000000000000000000000000000000017
:1029C0000000000000000000000000000000000007
:1029D0000000000000000000000000000000127D68
:1029E000F4000000000000000000000000000000F3
:1029F00000000000000000000000000000000000D7
:102A000000000000000000000000000000000000C6
:102A100000000000000000000000000000000000B6
:102A2000000000000000000000127E46022980C263
:102A3000A2D2A10000000000000000000000000081
:102A40000000000000000000000000000000000086
:102A50000000000000000000000000000000000076
:102A60000000000000000000000000000000000066
:102A70000000000000000000000000127DF40000D3
:102A80000000000000000000000000000000000046
:102A90000000000000000000000000000000000036
:102AA0000000000000000000000000000000000026
:102AB0000000000000000000000000000000000016
:102AC000000000000000127E3E127E777003127E2E
:102AD0007E900A2EE07004A3E0640170ECC2A2C2F2
:102AE000A100000000000000000000000000000045
:102AF00000000000000000000000000000000000D6
:102B000000000000000000000000000000000000C5
:102B100000000000000000000000000000000000B5
:102B2000000000000000000000127DF40000000022
:102B30000000000000000000000000000000000095
:102B40000000000000000000000000000000000085
:102B50000000000000000000000000000000000075
:102B60000000000000000000000000000000000065
:102B700000000000127E3E127E777003127E7E906F
:102B80000A2EE07004A3E0640170EC127E85740FDD
:102B9000F0900A30E0FEA3E0FFC3EE648094805022
:102BA00003022C55C2A2900A2CE0FEA3E0A807085D
:102BB0008005CEC313CE13D8F91392A100000000F4
:102BC0000000000000000000000000000000000005
:102BD00000000000000000000000000000000000F5
:102BE00000000000000000000000000000000000E5
:102BF00000000000000000000000000000000000D5
:102C000000000000127DF400000000000000000041
:102C100000000000000000000000000000000000B4
:102C200000000000000000000000000000000000A4
:102C30000000000000000000000000000000000094
:102C40000000000000000000000000000000001272
:102C50007E46022B91D2AF22636830006368310058
:102C60006368320063683300616C6C000D0A63684E
:102C7000616E6E65646C256275206973206E6F7479
:102C800020737570706F72740D0A002573000D0A41
:102C90004D6F64756C6520626F6F7420737563632C
:102CA000657373000D0A234D637554657374426F29
:102CB0006172643A000D0A4D6F64756C6520626F35
:102CC0006F74206572726F72000D0A5173667032F4
:102CD000385F6765745F636D645F73746174757387
:102CE000206661696C6564005352342D2562782535
:102CF00030326278004357444D342D2562782530B8
:102D0000326278004C52342D256278253032627858
:102D100000554E4B4E4F574E000D0A527373695F6C
:102D2000756120252D35687520252D356875202580
:102D30002D35687520252D356875000D0A25732DF4
:102D4000414D2562755F762562752E2562750932C3
:102D5000302562752E2562752E2562752D256275CA
:102D60003A256275000D0A44646D695F7663633AC3
:102D70002566287629000D0A44646D695F63616CDD
:102D8000695F7663633A2566287629000D0A4464F4
:102D90006D695F74656D703A2566284329000D0AD8
:102DA00044646D695F63616C695F74656D703A2539
:102DB00066284329000D0A44646D695F6269617386
:102DC0002562753A2566286D4129000D0A44646D17
:102DD000695F63616C695F626961732562753A2539
:102DE00066286D4129000D0A44646D695F74786D31
:102DF0006F6E2562753A2566286D5629000D0A44C6
:102E0000646D695F74786D6F6E2562753A2566280A
:102E10006D4129000D0A44646D695F63616C695FEF
:102E20007478706F7765722562753A2566286462DA
:102E30006D29000D0A6368616E6E65646C256420FF
:102E40006973206E6F7420737570706F72740D0AE1
:102E5000000D0A44646D695F727373692562753A87
:102E600025687528754129000D0A44646D695F6302
:102E7000616C695F7278706F7765722562753A254B
:102E8000662864626D29006C74006D7400687400BB
:102E90000D0A63682562752D25733A74656D70207F
:102EA0002020202062696173202020206D6F642023
:102EB0002020202063726F7373696E67000D0A090A
:102EC0002568640925687509256875092568640001
:102ED0000D0A63682562752D257309256864092527
:102EE00068750925687509256864000D0A536574BD
:102EF000206C757420746162206E6F772069732076
:102F00006661696C6564000D0A2020206368256293
:102F1000753A74656D7020202020206269617320ED
:102F20002020206D6F64202020202063726F737337
:102F3000696E67000D0A5173667032385F67657499
:102F40005F66697865645F74656D705F706F696EE8
:102F5000745F6170635F76616C7565206661696C32
:102F60006564000D0A4C6F673A2573000D0A5173B2
:102F7000667032385F64656275675F6C6F675F6843
:102F8000616E646C65206661696C6564000D0A653C
:102F900065702073617665206661696C6564000DFB
:102FA0000A094465764164647209094F666673656F
:102FB00074416464720956616C7565000D0A0930CC
:102FC00078256278090930782568780909307825EC
:102FD0006278000D0A436D64206661696C65640067
:102FE0000D0A656E61626C65206D6F64756C65209D
:102FF00075617274206661696C6564000D0A6469AC
:103000007361626C65206D6F64756C6520756172AB
:1030100074206661696C6564000D0A746872686C7E
:10302000645F74656D705F686967685F616C617229
:103030006D093A2566284329000D0A746872686C88
:10304000645F74656D705F6C6F775F616C61726DEA
:10305000093A2566284329000D0A746872686C6471
:103060005F74656D705F686967685F7761726E092C
:103070003A2566284329000D0A746872686C645FFB
:1030800074656D705F6C6F775F7761726E093A255A
:1030900066284329000D0A746872686C645F766361
:1030A000635F686967685F616C61726D093A256684
:1030B000285629000D0A746872686C645F76636331
:1030C0005F6C6F775F616C61726D093A2566285697
:1030D00029000D0A746872686C645F7663635F68C8
:1030E0006967685F7761726E093A2566285629001C
:1030F0000D0A746872686C645F7663635F6C6F77E7
:103100005F7761726E093A2566285629000D0A74A8
:103110006872686C645F72787077725F68696768FC
:103120005F616C61726D093A25662864626D2900E1
:103130000D0A746872686C645F72787077725F6C85
:103140006F775F616C61726D093A25662864626D04
:1031500029000D0A746872686C645F727870777207
:103160005F686967685F7761726E093A25662864EF
:10317000626D29000D0A746872686C645F72787001
:1031800077725F6C6F775F7761726E093A25662898
:1031900064626D29000D0A746872686C645F7478EB
:1031A000626961735F686967685F616C61726D3ADB
:1031B0002566286D4129000D0A746872686C645F89
:1031C0007478626961735F6C6F775F616C61726D57
:1031D000093A2566286D4129000D0A746872686CE9
:1031E000645F7478626961735F686967685F77615B
:1031F000726E093A2566286D4129000D0A746872BD
:10320000686C645F7478626961735F6C6F775F7715
:1032100061726E093A2566286D4129000D0A7468AD
:1032200072686C645F74787077725F686967685FF2
:10323000616C61726D093A25662864626D29000D22
:103240000A746872686C645F74787077725F6C6F10
:10325000775F616C61726D093A25662864626D2939
:10326000000D0A746872686C645F74787077725FBE
:10327000686967685F7761726E093A2566286462DB
:103280006D29000D0A746872686C645F74787077D9
:10329000725F6C6F775F7761726E093A256628649A
:1032A000626D29000D0A206D6F64756C655F636C3B
:1032B0006173733A2562750086929EAA0000000031
:1032C00000000000000000000000000000000000FE
:1032D00000000000000000000000000084909CA896
:1032E0008894A0AC86929EAA06070707ECB4C8DCB7
:1032F000F8C0D4E8F0B8CCE0ECB4C8DCF8C0D4E84E
:10330000F0B8CCE0FF2E87FF2E8AFF2E8D000090B4
:1033100009E512508AE4A3F0A31250752429125033
:10332000587A04793C122309EF60030233BA125031
:103330004C125115704F1250761238B5792078C260
:103340001216D0600250131250761238B5792078D8
:10335000421216D040047F0180027F00EF601D12F0
:10336000507612517F12398F7980784312534890EA
:1033700009EA12514FE4FD7F010237A57BFF7A0471
:1033800079480237B612504C1250E4600302386E8E
:10339000125154FD7F0112397D6003E0FF22900934
:1033A000EAE0FCA3E0FDEC12174E7980784312535B
:1033B0001A7BFF7A04796702386912507624291241
:1033C00050587A04797C122309EF600302345F12AB
:1033D000504C125115705412507612517F12398F81
:1033E000F978C01216D06002501812507612517F30
:1033F00012BDF8E4FBFAF978401216D040047F01C0
:1034000080027F00EF601B12507612517F12BDF8D0
:1034100012526E1217879009EC12514FE4FDFF0211
:1034200037A57BFF7A0479870237B612504C1250C9
:10343000E47029125154FDFF12397D6003E0FF2230
:103440009009ECE0FCA3E0FDEC1250D6797A7844C8
:1034500012531A7BFF7A0479A502386902386E127A
:103460005076243D1250587A0479B9122309EF603E
:1034700003023592900A3E12507512511E1239867F
:10348000BFFF037FFF2212504C125115706D90093F
:10349000E8E0FFC394004022EF9404501D125076E0
:1034A00012387C1253449009E81250631238F69097
:1034B00009E81251407F020237A59009E8E0640450
:1034C0006003023876900A3EF012507612387C1271
:1034D0005344900A3E1250631238F6900A3E12513D
:1034E000407F02128AC89009E9EFF06003E0FF22F2
:1034F000900A3E12531240D102387612504C1250AC
:10350000E4600302358F9009E8E0FFC39400403186
:10351000EF9404502CE0FD1251541239656003E021
:10352000FF229009E81250BE1253629009E812522D
:10353000D824F0F582E434091250CE1253680238D0
:10354000699009E8E064046003023876900A3EF06E
:10355000900A3EE0FDC394044003023876125154B1
:103560001239656003E0FF22900A3E1250BE1253EA
:1035700062900A3E1252D824F0F582E434091250C7
:10358000CE12536812BE41900A3EE004F080C102A0
:10359000386E125076243D1250587A057900122365
:1035A00009EF60030236BF12507612511E1239869F
:1035B000BFFF037FFF2212504C125115705812505A
:1035C000761238C2792078411250AC1238CF24FAE2
:1035D000F582E4340912506F24651239501251CA31
:1035E00024FCF582E4340912506F1238E97920780E
:1035F000411250AC1238CF24FEF582E43409125047
:103600006F248D1239509009E8E0FD1253B1125128
:103610004D7F030237A512504C1250E4600302366E
:10362000BC900A3E12201600000000900A421220B0
:1036300016000000009009E8E0FD1251547F0312CB
:1036400081489009E9EFF06003E0FF221251CA249B
:10365000FAF582E434091250CE1251BA24FEF582F2
:10366000E434091250CE123889C004C005C006C027
:1036700007123927900AF812200AD007D006D00581
:10368000D0041253621252051252D924FCF582E47E
:1036900034091250CE900AF312200A9009E8E09003
:1036A0000AF7F0900AFCF01253B11250CE900AFDC6
:1036B00012200A7BFF7A05790602386902386E12F9
:1036C0005076243D1250587A057964122309EF6030
:1036D0000302387012507612511E1291989009E828
:1036E000EFF0BFFF037FFF2212504C125115600311
:1036F0000237BC1250761238C2797078C11216D0D7
:103700006002501312507612394379A07840121695
:10371000D040047F0180027F00EF70030237B012B7
:1037200050761238E9797078C11216D060025013C1
:1037300012507612397079A078401216D040047F6A
:103740000180027F00EF60681250761239437920C1
:1037500078411250AC12390D24F2F582E43409128A
:10376000506F2465F9E43AFA126FCF1251CA24F46B
:10377000F582E4340912506F1239707920784112C1
:1037800050AC12390D24F6F582E4340912506F243E
:103790008DF9E43AFA126FCF9009E8E0FD1253BDBB
:1037A00012514D7F04128AC89009E9EFF002387671
:1037B0007BFF7A05796A12BE4102387012504C12B2
:1037C00050E4600302386E900A3E1220160000009A
:1037D00000900A42122016000000009009E8E0FD67
:1037E0001251547F041281489009E9EFF06003E020
:1037F000FF221251CA24F2F582E434091250CE128B
:1038000051BA24F6F582E434091250CE123889C038
:1038100004C005C006C007123927900AF612200A14
:10382000D007D006D005D0041253627BFF7A057909
:103830008C1252051252D924F4F582E43409F5832E
:10384000E0FFA3E0900AF3CFF0A3EFF09009E8E0E7
:10385000900AF5F0900AFAF01253BDF583E0FFA349
:10386000E0900AFBCFF0A3EFF012BE418008800089
:103870009009E974FFF09009E9E0FF222451F9E48E
:103880003AFA12BDF8E4FBFA22E4FBFA797A7844BA
:10389000121633900A4212200A900A3EE0FCA3E07E
:1038A000FDA3E0FEA3E0FF126C95E4FBFA7920781B
:1038B0004112152A22243DF9E43AFA12BDF8E4FB3C
:1038C000FA222451F9E43AFA12BDF8E4FBFA221282
:1038D00067207B007A40791C784612152A121787D8
:1038E0009009E8E075F014A4222479F9E43AFA1278
:1038F000BDF8E4FBFA222465F9E43AFA12BDF8E4D3
:10390000FBFA7920784112152A12178722126720B4
:103910007B007A40791C784612152A121787900985
:10392000E8E075F014A422900A42E0FCA3E0FDA3B5
:10393000E0FEA3E0FF126C95E4FBFA7920784112D7
:10394000152A222451F9E43AFA12BDF8E4FBFA22CE
:10395000F9E43AFA12BDF8E4FBFA7920784112153D
:103960002A121787227F021281489009E9EFF0227C
:103970002479F9E43AFA12BDF8E4FBFA22128148FC
:103980009009E9EFF0221291989009E8EFF02212E5
:10399000BDF8E4FBFA22900A1112200A900A1512CF
:1039A0007E29900A2812200A900A19127EC5900AD0
:1039B00011127E291225517F0112CAAFE4FFC2A263
:1039C000D2A1000000000000000000000000000084
:1039D00000000000000000000000000000000000E7
:1039E00000000000000000000000000000000000D7
:1039F00000000000000000000000000000000000C7
:103A000000000000000000000000127DF400000033
:103A100000000000000000000000000000000000A6
:103A20000000000000000000000000000000000096
:103A30000000000000000000000000000000000086
:103A40000000000000000000000000000000000076
:103A500000000000000FEF642060030239BEC2A224
:103A6000C2A10000000000000000000000000000F3
:103A70000000000000000000000000000000000046
:103A80000000000000000000000000000000000036
:103A90000000000000000000000000000000000026
:103AA00000000000000000000000127DF400000093
:103AB0000000000000000000000000000000000006
:103AC00000000000000000000000000000000000F6
:103AD00000000000000000000000000000000000E6
:103AE00000000000000000000000000000000000D6
:103AF0000000000000C2A2C2A100000000000000FF
:103B000000000000000000000000000000000000B5
:103B100000000000000000000000000000000000A5
:103B20000000000000000000000000000000000095
:103B30000000000000000000000000000000000085
:103B400000D2A292A70000000000000000000000C8
:103B50000000000000000000000000000000000065
:103B60000000000000000000000000000000000055
:103B70000000000000000000000000000000000045
:103B800000000000000000000000000000C2A2C20F
:103B9000A100000000000000000000000000000084
:103BA0000000000000000000000000000000000015
:103BB0000000000000000000000000000000000005
:103BC00000000000000000000000000000000000F5
:103BD000000000000000000000D2A292A700000038
:103BE00000000000000000000000000000000000D5
:103BF00000000000000000000000000000000000C5
:103C000000000000000000000000000000000000B4
:103C100000000000000000000000000000000000A4
:103C20000000000000C2A2D2A100000000000000BD
:103C30000000000000000000000000000000000084
:103C40000000000000000000000000000000000074
:103C50000000000000000000000000000000000064
:103C60000000000000000000000000000000000054
:103C700000D2A292A7000000000000000000000097
:103C80000000000000000000000000000000000034
:103C90000000000000000000000000000000000024
:103CA0000000000000000000000000000000000014
:103CB00000000000000000000000000000127E92E2
:103CC0007404F0127E175003023D6FC2A2900A11D5
:103CD000127DFF127E350000000000000000000091
:103CE00000000000000000000000000000000000D4
:103CF00000000000000000000000000000000000C4
:103D000000000000000000000000000000000000B3
:103D10000000000000000000000000000000127D14
:103D2000F40000000000000000000000000000009F
:103D30000000000000000000000000000000000083
:103D40000000000000000000000000000000000073
:103D50000000000000000000000000000000000063
:103D6000000000000000000000127E55023CC3125B
:103D70007E927404F0127E175003023E21C2A2907C
:103D80000A15127DFF127E350000000000000000C1
:103D90000000000000000000000000000000000023
:103DA0000000000000000000000000000000000013
:103DB0000000000000000000000000000000000003
:103DC00000000000000000000000000000000000F3
:103DD000127DF40000000000000000000000000060
:103DE00000000000000000000000000000000000D3
:103DF00000000000000000000000000000000000C3
:103E000000000000000000000000000000000000B2
:103E10000000000000000000000000127E55023D7E
:103E200075C2A2D2A1000000000000000000000046
:103E30000000000000000000000000000000000082
:103E40000000000000000000000000000000000072
:103E50000000000000000000000000000000000062
:103E600000000000000000000000000000127DF4CF
:103E70000000000000000000000000000000000042
:103E80000000000000000000000000000000000032
:103E90000000000000000000000000000000000022
:103EA0000000000000000000000000000000000012
:103EB0000000000000000000C2A2C2A1000000003B
:103EC00000000000000000000000000000000000F2
:103ED00000000000000000000000000000000000E2
:103EE00000000000000000000000000000000000D2
:103EF00000000000000000000000000000000000C2
:103F000000000000D2A292A7000000000000000004
:103F100000000000000000000000000000000000A1
:103F20000000000000000000000000000000000091
:103F30000000000000000000000000000000000081
:103F40000000000000000000000000000000000071
:103F5000127E92740FF0127E175003024002C2A22A
:103F6000900A1B127DFF127E350000000000000049
:103F70000000000000000000000000000000000041
:103F80000000000000000000000000000000000031
:103F90000000000000000000000000000000000021
:103FA0000000000000000000000000000000000011
:103FB00000127DF40000000000000000000000007E
:103FC00000000000000000000000000000000000F1
:103FD00000000000000000000000000000000000E1
:103FE00000000000000000000000000000000000D1
:103FF000000000000000000000000000127E5502DA
:104000003F5612A59C7F0102C9CC900A1112200ACA
:10401000E4900A1DF0A312201600000000900A157B
:10402000127E29900A2812200A900A19A3A3127E50
:10403000C5900A11127E29122551C2AFE4900A1DC3
:10404000F0C2A2D2A10000000000000000000000A9
:104050000000000000000000000000000000000060
:104060000000000000000000000000000000000050
:104070000000000000000000000000000000000040
:1040800000000000000000000000000000127DF4AD
:104090000000000000000000000000000000000020
:1040A0000000000000000000000000000000000010
:1040B0000000000000000000000000000000000000
:1040C00000000000000000000000000000000000F0
:1040D0000000000000000000127E6F6420600302F8
:1040E0004041C2A2C2A10000000000000000000088
:1040F00000000000000000000000000000000000C0
:1041000000000000000000000000000000000000AF
:10411000000000000000000000000000000000009F
:104120000000000000000000000000000000127D00
:10413000F40000000000000000000000000000008B
:10414000000000000000000000000000000000006F
:10415000000000000000000000000000000000005F
:10416000000000000000000000000000000000004F
:10417000000000000000000000E4900A1DF0127E24
:104180006FB401FAC2A2C2A100000000000000004A
:10419000000000000000000000000000000000001F
:1041A000000000000000000000000000000000000F
:1041B00000000000000000000000000000000000FF
:1041C00000000000000000000000000000000000EF
:1041D000127DF4000000000000000000000000005C
:1041E00000000000000000000000000000000000CF
:1041F00000000000000000000000000000000000BF
:1042000000000000000000000000000000000000AE
:104210000000000000000000000000E4900A1DF013
:10422000127E6FB401FAC2A2D2A100000000000009
:10423000000000000000000000000000000000007E
:10424000000000000000000000000000000000006E
:10425000000000000000000000000000000000005E
:10426000000000000000000000000000000000004E
:104270000000127DF40000000000000000000000BB
:10428000000000000000000000000000000000002E
:10429000000000000000000000000000000000001E
:1042A000000000000000000000000000000000000E
:1042B00000000000000000000000000000E4900A80
:1042C0001DF0127E6FB401FAC2A2D2A1000000005C
:1042D00000000000000000000000000000000000DE
:1042E00000000000000000000000000000000000CE
:1042F00000000000000000000000000000000000BE
:1043000000000000000000000000000000000000AD
:1043100000000000127DF40000000000000000001A
:10432000000000000000000000000000000000008D
:10433000000000000000000000000000000000007D
:10434000000000000000000000000000000000006D
:10435000000000000000000000000000000000E479
:10436000900A1DF0127E6FB401FA127E9F900A220D
:10437000127E1A500302441CC2A2900A11127DFF41
:10438000127E350000000000000000000000000068
:10439000000000000000000000000000000000001D
:1043A000000000000000000000000000000000000D
:1043B00000000000000000000000000000000000FD
:1043C0000000000000000000000000127DF400006A
:1043D00000000000000000000000000000000000DD
:1043E00000000000000000000000000000000000CD
:1043F00000000000000000000000000000000000BD
:1044000000000000000000000000000000000000AC
:10441000000000000000127EAF02436D127E9F90EC
:104420000A22127E1A50030244CEC2A2900A15122A
:104430007DFF127E3500000000000000000000003B
:10444000000000000000000000000000000000006C
:10445000000000000000000000000000000000005C
:10446000000000000000000000000000000000004C
:1044700000000000000000000000000000127DF4B9
:10448000000000000000000000000000000000002C
:10449000000000000000000000000000000000001C
:1044A000000000000000000000000000000000000C
:1044B00000000000000000000000000000000000FC
:1044C0000000000000000000127EAF02441F127EB8
:1044D0006400000000000000000000000000000078
:1044E00000000000000000000000000000000000CC
:1044F00000000000000000000000000000000000BC
:1045000000000000000000000000000000000000AB
:10451000000000000000000000D2A2000000000027
:10452000000000000000000000000000000000008B
:10453000000000127EBE000000000000000000002D
:10454000000000000000E070030245E1E4900A1D55
:10455000F0127E6400000000000000000000000077
:10456000000000000000000000000000000000004B
:10457000000000000000000000000000000000003B
:10458000000000000000000000000000000000002B
:10459000000000000000000000000000D2A20000A7
:1045A000000000000000000000000000000000000B
:1045B000000000000000127EBE00000000000000AD
:1045C000000000000000000000127E6F6420708177
:1045D0007BFF7AC179DE128C2CE47F557E55FDFC81
:1045E000227F101276D1900A1E12200A12A59CD2A8
:1045F000AF900A1E127E2922900CB574FFF0A374AE
:10460000CBF0A37410F0900CAB122016000003E85E
:1046100012532612873F900CC274FFF0A374CBF0A4
:10462000A37422F0900CB8122016000007D0125488
:104630003F12873F900CA874FFF0A374CBF0A374D3
:1046400019F0900C9E12201600000BB8125446125E
:10465000873F900A1A74FFF0A374C2F0A374ACF001
:104660007A087930124A1C74C9F0A3745DF07A0894
:10467000793B124A1C7400F0A3742EF07A08794139
:10468000124A2974CBF0A3745AF07A087948124A76
:104690002974C7F0A3740EF07A087956124A36745A
:1046A0005AF0A374FFF07A087960124A367460F009
:1046B000A37430F07A08798E124A4374C4F0A3745C
:1046C00026F07A0879C0124A4374B8F0A374C0F097
:1046D0007A0879C9124A5074CBF0A37454F07A085E
:1046E00079D8124A50747FF0A374ADF07A0879E655
:1046F000124A5D7400F0A37403F07A0879FF124A3D
:104700005D74C7F0A37454F07A097915124A6A747B
:10471000C1F0A374F5F07A09792B124A6A74BBF0E0
:10472000A37455F07A097944124A777471F0A3742E
:10473000FAF07A097961124A777471F0A374FAF089
:104740007A097974124A8474B5F0A37439F07A093D
:104750007988124A8474B1F0A3746EF07A0979A052
:10476000124A9174B5F0A37496F07A0979B8124A96
:104770009174B5F0A374F3F07A0979D1124A9E745A
:10478000C9F0A3748BF07A0979E9124A9E74A5F0F6
:10479000A3741FF07A0979FC124AAB74C5F0A374B4
:1047A000A4F07A0A7918124AAB74C3F0A374F4F037
:1047B0007A0A7935124AB874AFF0A374D7F07A0A3E
:1047C000794E124AB8747FF0A374ADF07A0A796E0C
:1047D000124AC5745AF0A374FFF07A0A7995124A06
:1047E000C5749DF0A3748BF07A0A79C5124AD2740D
:1047F0009EF0A3740FF07A0A79DD124AD274A3F006
:10480000A374A3F07A0A79F5124ADF74A8F0A374AE
:1048100081F07A0B790A124ADF749AF0A3746AF075
:104820007A0B793B124AEC74A0F0A3749FF07A0BD8
:104830007957124AEC74A7F0A3748DF07A0B79764D
:10484000124AF9749BF0A374FFF07A0B7994124A20
:10485000F974A2F0A374A3F07A0B79B3124B067427
:10486000A3F0A37423F07A0B79D1124B06749CF059
:10487000A37483F07A0B79EF124B13749DF0A37439
:1048800007F07A0C790E124B137482F0A37410F0B7
:104890007A0C792D124B20749BF0A3747AF07A0C69
:1048A0007961124B2074ADF0A374C5F07A0C79A82D
:1048B000124B2D7433F0A3740FF07A0C79DE124B87
:1048C0002D7433F0A3740FF07A0D7912124B3A74F1
:1048D00033F0A3740FF07A0D7958124B3A7433F019
:1048E000A3740FF07A0D79A2124B477485F0A3746C
:1048F000CDF07A0D79EC124B477485F0A374CDF0AE
:104900007A0E7900124B547454F0A3744DF07A0E61
:104910007925124B547454F0A3744DF07A0E797BC0
:10492000124B617454F0A3744DF07A0E79D1124B8E
:10493000617454F0A3744DF07A0F7927124B6E74A2
:1049400054F0A3744DF07A0F7981124B6E74BCF061
:10495000A3743CF07A0F79DB124B7B74A6F0A3743E
:1049600096F07A0F79F9124B7B74ACF0A37481F056
:104970007A107919124B8874B3F0A3745DF07A1031
:10498000792D124B887493F0A3747EF07A107960BD
:10499000124B957492F0A3743CF07A1079A4124BE8
:1049A0009574A9F0A374E1F07A1079EF124BA27418
:1049B000A9F0A374E1F07A11791D124BA2746BF087
:1049C000A37429F07A11793A124BAF7469F0A37489
:1049D000E4F07A117970124BAF747CF0A37436F066
:1049E0007A1179A6124BBC747BF0A37456F07A113D
:1049F00079D7124BBC7487F0A374F8F07BFF7A125E
:104A0000790812A712900A1A74FFF0A37492F0A307
:104A100074DFF07BFF7A12791502A7127BFF12A7D1
:104A200012900A1A74FFF0A3227BFF12A712900AB9
:104A30001A74FFF0A3227BFF12A712900A1A74FFC8
:104A4000F0A3227BFF12A712900A1A74FFF0A32290
:104A50007BFF12A712900A1A74FFF0A3227BFF12A9
:104A6000A712900A1A74FFF0A3227BFF12A71290DC
:104A70000A1A74FFF0A3227BFF12A712900A1A747D
:104A8000FFF0A3227BFF12A712900A1A74FFF0A373
:104A9000227BFF12A712900A1A74FFF0A3227BFF59
:104AA00012A712900A1A74FFF0A3227BFF12A7121A
:104AB000900A1A74FFF0A3227BFF12A712900A1A21
:104AC00074FFF0A3227BFF12A712900A1A74FFF062
:104AD000A3227BFF12A712900A1A74FFF0A3227B75
:104AE000FF12A712900A1A74FFF0A3227BFF12A7ED
:104AF00012900A1A74FFF0A3227BFF12A712900AE9
:104B00001A74FFF0A3227BFF12A712900A1A74FFF7
:104B1000F0A3227BFF12A712900A1A74FFF0A322BF
:104B20007BFF12A712900A1A74FFF0A3227BFF12D8
:104B3000A712900A1A74FFF0A3227BFF12A712900B
:104B40000A1A74FFF0A3227BFF12A712900A1A74AC
:104B5000FFF0A3227BFF12A712900A1A74FFF0A3A2
:104B6000227BFF12A712900A1A74FFF0A3227BFF88
:104B700012A712900A1A74FFF0A3227BFF12A71249
:104B8000900A1A74FFF0A3227BFF12A712900A1A50
:104B900074FFF0A3227BFF12A712900A1A74FFF091
:104BA000A3227BFF12A712900A1A74FFF0A3227BA4
:104BB000FF12A712900A1A74FFF0A3227BFF12A71C
:104BC00012900A1A74FFF0A322E5082420F582E46B
:104BD000340CF583E0050822900C1D300903900C7D
:104BE00020E475F001122096021B282002E97F2E96
:104BF000D2028018EF540F2490D43440D4FF3006F2
:104C00000BEF24BFB41A0050032461FFE5096002D2
:104C10001509050CE50C7002050B30090E900C1DF2
:104C2000E475F001122096EF021BFA02C6787403B5
:104C3000D2098003E4C209F508900C1D1220ADE4EE
:104C4000F509F50BF50CE50960077F20124C0C8087
:104C5000F5750AFFC203C202C204C205C207C20838
:104C6000C20A124BD8FF700D3009057F00124C1D8F
:104C7000AF0CAE0B22B4255FC2D5C206124BD8FFD3
:104C800024D0B40A00501A75F00A780930D5050806
:104C9000B6FF0106C6A426F620D5047002D2058010
:104CA000D924CFB41A00EF5004C2E5D206024F0F48
:104CB000D20380C6D20280C0D20480BCD2D580BAD2
:104CC000D20780B47F20124C0C2004077401B50970
:104CD0000040F1124BC9FF124C0C024C46D20AD2D2
:104CE000088095124BC9FB124BC9FA124BC9F94AFD
:104CF0004B7006790D7A507BFF20042EE509602A5F
:104D00007E008E82758300121B4160060EEE650ADE
:104D100070F0C2D5EBC0E0EAC0E0E9C0E0EE124FAF
:104D200070D0E0F9D0E0FAD0E0FB121B28FF60AAB7
:104D3000EBC0E0EAC0E0E9C0E0124C0CD0E0240196
:104D4000F9D0E03400FAD0E0FBE50A0460DCD50AD3
:104D5000D98087D20480A2124F5260F7E50A700111
:104D600004121833A90A600DE50A600914F50A1245
:104D70004FFAEF60F3EA30E702F404C3995079EA9E
:104D8000F4250A0430E701E404F50A800D124F52BD
:104D900060C1EA050A250A121833EA900C4CF0307B
:104DA000E701E4250A04D50A0420070114124F7014
:104DB000E4C0E0124FFA900C4CE0601320E70714B7
:104DC000F0124BF4802204F0D0E014C0E07F001217
:104DD0004BF4E50A6007124BEB150A800B30070312
:104DE000124BEBD0E0024C46D0E00480C4124F528C
:104DF000609EE50A04121833900C4CEAF0E50A2094
:104E000007026001042404124F7074FF04C0E01212
:104E10004FFA124BF4E50A2007026003124BEBD065
:104E2000E0B50AE87F45124BFE900C4CE07F2B303A
:104E3000E7047F2DF404C0E0124C0CD0E075F00ABA
:104E400084C0F0124BF5D0E0124BF5024C467910BD
:104E500080027908C208C20A8008D2D5790A800483
:104E6000790AC2D5E50A047002F50AE4FAFDFEFFEC
:104E7000124BC9FC7B08200313124BC9FD7B103079
:104E8000020A124BC9FE124BC9FF7B20EC3382D5BC
:104E900092D55013C3E43002069FFFE49EFEE42047
:104EA00003039DFDE49CFCE4CBF8C203EC700CCF43
:104EB000CECDCCE824F8F870F38017C3EF33FFEEC3
:104EC00033FEED33FDEC33FCEB33FB994002FB0F7B
:104ED000D8E9EB300305F8D0E0C448B203C0E00ADB
:104EE000EC4D4E4F78207B0070C2EAB50A0040BC02
:104EF000C0E0124F72D0F0D0E0200304C4C0E0C480
:104F0000B203C0F0124BF5D0F0D5F0EB024C4612D4
:104F1000215F4CE3534E4E584CB44C4CB0424E5271
:104F20004F4E5A444E5A494CC9434E60554D8D46DA
:104F30004DED454D5747502D504CB82D4CBC2E4C87
:104F4000DF2B4CC0234CDD2050162A4C7848000043
:104F50004CD7E50AB4FF03750A06124BC9FC124B85
:104F6000C9FD124BC9FE124BC9FF900C45021870C7
:104F7000790AA2D5200514300709B910020404B932
:104F8000080104A2D52008025001042004689204FC
:104F9000B509005034C0E07F203005197F30A204ED
:104FA00072087207500F124FC9C204C208C207C26A
:104FB0000A7F30800F300703E9C0E0124C0C300745
:104FC00003D0E0F9D0E0B509CC3007177F30B91035
:104FD0000C124C0C7F583006077F788003B9080309
:104FE000124C0C3004057F2D024C0C7F20200AF857
:104FF0007F2B2008F322920480CF7F00B40700505B
:105000000B2445F582E4340CF583E0FF22286E750D
:105010006C6C2900D203124BC93003F8C203780923
:1050200030D50108F6024C782D50434958124BC92F
:105030002403B405004001E490502893124BFD7402
:105040003A124BFDD205750904024E4E9009E5E077
:10505000FBA3E0FAA3E02401F9E43AA801FCAD03C4
:105060007BFF22E075F014A424EEF582E43409F508
:1050700083EEF0A3EFF09009E5E0FBA3E0FAA3E0F4
:1050800022900AED2429F9E43AFAEBF0A3EAF0A31E
:10509000E9F0229009F0F0E4FBFA792078419009D8
:1050A000ECE0FCA3E0FDA3E0FEA3E0FF12163390CA
:1050B0000A4A12200A7F007E007D207C4122E09077
:1050C0000AEDF075F014A424EEF582E43409F583BA
:1050D000E0FCA3E0FDE412174E7BCD7ACC79CC78CE
:1050E0003D02152A7A017977122309EF22E024ED97
:1050F000F582E43409F583E0900A58FB7A007401E4
:10510000F0A37409F074E8A3F0A3E4F0A37402F030
:105110007D087FA0227A017973122309EF222429C6
:10512000F9E43AFA227BFF7A037962E0900AEDF023
:105130009009E8E0FFA3E0900AEECFF0A3EFF022A1
:10514000E0FD75F014A424F0F582E43409F583EE53
:10515000F0A3EFF07B017A0979EA22F0A37409F059
:10516000A374E9F0A3E4F0A37402F07B807A007DDD
:10517000057FA022E4A3F0A3F0A3F0A3F022E9248A
:105180003DF9E43AFA22E024EDF582E43409F583AE
:10519000E0900A58FB7A007401F0A3227D017BFFA6
:1051A000FE7F04021B02A3E4F0A37410F0227BFF35
:1051B0007A0079B7E0900AEDF022E4FBFA797A7888
:1051C00044121633900A3E12200A9009E8E075F066
:1051D00014A4227A01796C122309EF22F0A3F0E9DA
:1051E0002415F9E43AFA227BFF9009EC7420F022AE
:1051F0007A0979EC900AD57B01E4F0A304F07D569E
:105200007C007FA0229009E8E0900AEDF022A3E460
:10521000F0A37402F07BB87A00E4FD7FA0227BFF4C
:105220007A03797BE0900AEDF022F582E43409F507
:1052300083E0FB7A009009F57401F0A37409F0A3F0
:1052400074E8229009F0F07F007E407D1C7C4622AD
:105250007D017BFF7E00021B029009F0E0FF900AB7
:10526000BEE0FD9009E8E0F9A3E0FAA3E0227B00AC
:105270007A40791C784602152A2401F9E43AFAE0CA
:105280002FFFE433FE7C007D14121C2EE92FF9EA77
:105290003EFA22F0A37400F07400A3F0A3E4F0A39C
:1052A00004F0227A0179A0022309EEF0A3EFF0D3F3
:1052B0009400EE6480948022E0FEA3E0FFD394305B
:1052C000EE648094F5227D017BFFFE7F05021B02C8
:1052D0007BFFE0900AEDF022E0900AF2F075F01406
:1052E000A4229009EE74FFF5F0121C8C45F0229078
:1052F0000CABEE3395E0FDFC02200A7D7F7C007F45
:10530000A022FFE4FCFD12200A7F017E007D007CCC
:105310000022E004F0E0C3940422E4FBFA12163306
:10532000900AED02200A7B017A0C79AB229009EAFF
:10533000E0FF9009ECE0FEA8070822EEF0A3EFF0F2
:105340009009EA227920784112152A021787F9126A
:105350001B28FEC322FFE4FCFDFE12200A9009F286
:10536000E022900AEE02200A900AF312200A7BFF44
:105370007A0479C5229009F1F0FBFAFD229009F236
:10538000E0FCA3E0FD9009E8227B047D7FFC7FA088
:1053900022F07BFF7A027960229009E9E0FD7B012F
:1053A000227BFFE0900AEDF022EFF0900A587401A2
:1053B0002275F014A42400F582E4340A2275F01456
:1053C000A424F8F582E43409229009E8E0FDE4FB26
:1053D000227BFFE49009ECF02224FDFEE434FFF090
:1053E000A3CEF022CFF0A3EFF09009F0E0FF22D39C
:1053F000EF94C8EE6480948022121B28FF24FCD313
:10540000948022F09009F2E0FAA3E0FB22E0FFA3EF
:105410007BFFE0900AED22A3E4F0A37408F07BD4B4
:1054200022A3E4F0A37409F07BC322F583E0FB7AA6
:10543000009009F522A3E4F0A37412F07BCC227B48
:10544000017A0C79B8227B017A0C799E229009E5C9
:1054500012508A125174A31220163F800000900946
:10546000F074FFF012517E12BDF89009EC12200A80
:105470009009E512507924291250587A0579F812CA
:105480002309EF70099009F07414F002573F900956
:10549000E512507924291250587A0579FC12230913
:1054A000EF70069009F0F080579009E512507924CA
:1054B000291250587A06790C122309EF70089009C6
:1054C000F004F0E4803A9009E51250792429125052
:1054D000587A06791B122309EF70099009F07402BB
:1054E000F0E4801C9009E512507924291250587A72
:1054F00006792A122309EF700F9009F07403F0E483
:10550000FFFE7D807C4380749009E5125079242948
:105510001250587A067938122309EF700774041272
:10552000524380589009E512507924291250587A34
:10553000067947122309EF70077405125243803C25
:105540009009E512507924291250587A067955129B
:105550002309EF700A9009F07406125246801D90DC
:1055600009E512507924291250587A0679631223DA
:1055700009EF70159009F074071252469009ECE09B
:10558000F8A3125266FB0256BA9009E5125079242C
:10559000291250587A067970122309EF700874089E
:1055A0001257890256BA9009E512507924291250EF
:1055B000587A067981122309EF7008740912578905
:1055C0000256BA9009E512507924291250587A06E9
:1055D0007991122309EF700B740A1250931257BF7E
:1055E0000256BA9009E512507924291250587A06C9
:1055F00079A1122309EF700B740B1250931257BF4D
:105600000256BA9009E512507924291250587A06A8
:1056100079B0122309EF70079009F0740C80529052
:1056200009E512507924291250587A0679C01223BC
:1056300009EF70079009F0740D80369009E512505B
:105640007924291250587A0679CF122309EF70076E
:105650009009F0740E801A9009E5125079242912ED
:1056600050587A0679DE122309EF70269009F074FB
:105670000FF0E4FFFE7D7A7C449009ECE0F8A31281
:105680005266FB12152AE4FBFAF97840121633022F
:10569000572C9009E512507924291250587A06792E
:1056A000EC122309EF70189009F074101250961242
:1056B00067207B007A40791C784612152A806D900D
:1056C00009E512507924291250587A0679FD1223DF
:1056D00009EF70109009F0741112509612672012A1
:1056E000526E80489009E512507924291250587A58
:1056F00007790D122309EF70109009F074121250FF
:105700009612672012526E80239009E51250792478
:10571000291250587A07791D122309EF701B90093E
:10572000F0741312509612672012526E121787905F
:1057300009EAEEF0A3EFF080069009E974FFF0901B
:1057400009E512504F12511570219009E8E0FFC38E
:105750009400402FEF9414502A9009F0E0FF900934
:10576000EAE0FCA3E0FD12C4B980139009E51250F1
:105770004F1250E4700D9009F0E0FF12BFA39009A2
:10578000E9EFF09009E9E0FF229009F0F0E4FBFA7C
:10579000792078419009ECE0FCA3E0FDA3E0FEA3B2
:1057A000E0FF121633900A4A12200A7F007E007D25
:1057B000207C411267207B007A40791C78462212B7
:1057C00067207B007A40791C7846229009F6E0FC3D
:1057D000A3E0FDE412174E7BCD7ACC79CC783D1254
:1057E000152A797A7844E4FBFA0216339009F6E038
:1057F000FEA3E0FFFDAC06EC12174EE4FBFA798045
:105800007843121633900AED12200A7BFF2278505B
:105810007C0A7D017BFF7E007F04121B02900A47F9
:10582000E075F014A4FFA3E0FBA3E0FAA3E022E0FC
:10583000FD7C007B01900AD5E4F0A37402F0227D88
:10584000017BFFFE7F04121B027B047D7F7C007FB7
:10585000A022F9E43AFA900A58EBF0A3EAF0A3E99F
:10586000F0900A47E0FF244CF582E4340AF583E027
:10587000FD74502FF582E4340AF583E0FB7A009042
:105880000A5BE4F0A3227826E614C31896FD7F1085
:1058900012C8FC7822860308E6FA08E6F9021B28FB
:1058A000E0900AEDF09009F0E0FCA3E0FDE41217AF
:1058B0004E7BCD7ACC79CC783D12152A900AEE1227
:1058C000200A7BFF22E0900AEDF09009F9E075F0E4
:1058D00003A4240CF582E4340AF583E0F9A3E0FA8A
:1058E000A3E0900AEEC9F0A3EAF0A3E9F022F9E4FC
:1058F0003AFA900A47E0244BF582E4340AF583E053
:10590000FD7C00900AD5E4F0A3229009F6E0FCA308
:10591000E0FDE412174EE4FBFAF9784022784B7C64
:105920000A7D017BFF7E007F04021B02A3F07BFF48
:105930007A2C798B227DDB7C007FA022EFF0E4A320
:10594000F07B047D7FFC7FA0227BFF7A2C796CE0CA
:10595000900AEDF022900AED74FFF0A322E0247982
:10596000F582E4340CF583E0FD7C007B0122900A93
:1059700004E0FEA3E0FF7C017D00021C40E0FFA3E9
:10598000E0900AF3CFF0A3EFF0227DE0E0FB7C0093
:105990007FA022AD037BFF122309EF22F9900000C4
:1059A000E075F002A4F58285F083121CCDFF22E0A1
:1059B000FFA3E0CF900AF1F0A3EFF0222FF9EA3530
:1059C000F0FAE922E0FFA3E0FCA3E0FDA3E0227BE4
:1059D000FF9009EDE0900AED22E0FFA3E0900AEFCE
:1059E000CFF0A3EFF02225E025E0248EF582E43409
:1059F0000CF583E5822FF582E4358322E0FB7A0003
:105A0000900A587401F0A3227B017C007FA0227DC4
:105A1000017BFFFE021B02AD037BFF122309EF2275
:105A2000A3F0A3E4F0A304F07BDE7A007D057FA061
:105A3000227401782426F618E436F622900C20749D
:105A4000FFF0A322E4FBFA79207841222476F58244
:105A5000E4340CF583E022EFF0E4A3F0A3F0A3F02C
:105A600022E0F8A3E0F9A3E0FAA3E022EFF0A3ED2F
:105A7000F0A3EB229BFFEE9AFEED9400FDEC940068
:105A8000FC229009EBE0FFA3E0FD22EE900AEDF08E
:105A9000A3EFF022E0FFA3E0900AEECFF0A3EF2205
:105AA0007BFFE0900AEDF0227822860308E6FA08F0
:105AB000E6F922A3F0A374FFF0A322F0A304F07D83
:105AC000F07C007FA022EAF0A3EBF0AF05AB072249
:105AD000E4F0A3F0A3F022A3F0900C8DE0900C234F
