:020000040000FA
:1000000002D3805F6932635F6D61737465725F698B
:100010006D69746174655F696E6974206661696C8D
:1000200065640002E459027F9C80FE020056E4FFF2
:1000300012F1FFEF60012243EF10220278F402F385
:100040007B222202EF8C900AD7A3E0900ADFF01205
:10005000DD262202ED9BC0E0C0F0C083C082C0D08C
:1000600075D010C2CF12900BD0D0D082D083D0F0F8
:10007000D0E03202F3FEAEA775A710EF600543E6AD
:1000800002800353E6FDAF068FA72202F3C4696E18
:1000900069740073686F77007265677365740065D3
:1000A00072617365006F7077006F707774006F70A6
:1000B00072006F707274000D0A20546865207661BA
:1000C0006C7565206F6E207061676520283078251B
:1000D0006278292C20696E64657828307825782923
:1000E000203A2000203078256278006D64696F77AF
:1000F000006D64696F72000D0A2054686520766196
:100100006C7565206F6E20706167652028307825DA
:100110006278292C20696E646578283078256878A3
:1001200029203A2000203078256C7800203078256E
:100130006878000D0A204D43555F544553545F4283
:100140004F4152442D762562752E25627520202060
:100150002025732E2573004F6374203134203230F4
:1001600031390031303A32303A323600656E6162F0
:100170006C650073657400676574000D0A6C706DC2
:100180006F646520697320256275000D0A726573BE
:1001900065742069732025627500636C6561720067
:1001A00064697361626C650072656164000D0A6D5B
:1001B0006F6473656C20697320256275006D6F64D0
:1001C00073656C00746573740061626F727465644A
:1001D000000D0A6D6F6473656C206973202562756C
:1001E00020616E6420647674207465737420626F7D
:1001F0006172642033373034362072656730203DB9
:1002000020256278000D0A6D6F6473656C20697338
:100210002025627520616E6420717366703238200B
:100220006C6F776572207061676530203D202562B4
:1002300078000D0A6D6F6473656C20697320256208
:100240007520616E642076616C7565203D202562A5
:1002500078000D0A696E746C206973202562750040
:100260002573000D0A4D6F64756C6520626F6F74A5
:100270002073756363657373000D0A4D6F64756C4D
:100280006520626F6F74206572726F7200766363AF
:100290000074656D700062696173007478706F77C7
:1002A0006572007278706F776572000D0A56656E20
:1002B0006465725F706E3A2573000D0A56656E6450
:1002C00065725F7265763A2573000D0A56656E6435
:1002D00065725F736E3A2573000D0A446174655F41
:1002E000636F64653A2573000D0A53757065726318
:1002F0006F64653A2573000D0A506362615F736E27
:100300003A2573000D0A506362615F636F64653A5A
:100310002573000D0A4C617365725F74785F736EAC
:100320003A2573000D0A52785F6C6F73615F7468D1
:100330006C642562753A256875000D0A52785F6C09
:100340006F73645F74686C642562753A2568750024
:100350000D0A52785F6C6F735F6D6F64653A25624A
:1003600075000D0A527373695F6461726B615F742B
:10037000686C642562753A256875000D0A527373BE
:10038000695F6461726B645F74686C642562753A5E
:10039000256875000D0A507262732562753A2562F0
:1003A00075000D0A4C617365725F72785F736E3A07
:1003B0002573000D0A5069635F636F64653A2573A6
:1003C000000D0A4D6F64756C655F747970653A3025
:1003D00078256878000D0A48775F7665723A25625D
:1003E00078006E6F77000D0A63684E0974656D7052
:1003F000202020202062696173202020206D6F64FE
:10040000202020202063726F7373696E67000D0ACD
:100410002D2D2D2D2D2D2D2D2D2D2D2D2D2D2D2D0C
:100420002D2D2D2D2D2D2D2D2D2D2D2D2D2D2D2DFC
:100430002D2D2D2D2D2D2D006375720074656D7081
:100440005F6F6666736574000D0A2054656D705F9A
:100450006F6666736574206973206F7574206F66AC
:100460002072616E6765000D0A2074656D705F6FA4
:1004700066667365743A2566284329007663635F70
:100480006F6666736574000D0A205663635F6F665E
:1004900066736574206973206F7574206F662072AF
:1004A000616E6765000D0A207663635F6F66667331
:1004B00065743A256628562900626961735F6F6624
:1004C00066736574000D0A2063682562752D626984
:1004D00061735F6F66667365745F783A2566286D31
:1004E00041290D0A2063682562752D626961735F79
:1004F0006F66667365745F793A2566286D412900D9
:100500007478707772000D0A63682562752D7478AF
:10051000706F776572313A25662864626D290D0A1D
:1005200063682562752D62696173312020203A2548
:1005300066286D41290D0A63682562752D747870EF
:100540006F776572323A25662864626D290D0A63F9
:10055000682562752D626961733220203A2566280C
:100560006D4129007278707772000D0A5278706FB1
:10057000776572206F722072737369206973206FC0
:100580007574206F662072616E6765000D0A63687E
:100590002562752D7278706F776572313A256628FD
:1005A00064626D290D0A63682562752D7273736923
:1005B000312020203A256875287541290D0A636885
:1005C0002562752D7278706F776572323A256628CC
:1005D00064626D290D0A63682562752D72737369F3
:1005E000322020203A256875287541290074786DDD
:1005F0006F6E007273736900616C6C0074656D706E
:100600005F686967685F616C61726D0074656D70C9
:100610005F6C6F775F616C61726D0074656D705FA8
:10062000686967685F7761726E0074656D705F6C92
:100630006F775F7761726E007663635F6869676882
:100640005F616C61726D007663635F6C6F775F6191
:100650006C61726D007663635F686967685F77617C
:10066000726E007663635F6C6F775F7761726E00A6
:1006700072787077725F686967685F616C61726DCC
:100680000072787077725F6C6F775F616C61726D0A
:100690000072787077725F686967685F7761726E01
:1006A0000072787077725F6C6F775F7761726E003F
:1006B000626961735F686967685F616C61726D0030
:1006C000626961735F6C6F775F616C61726D00620C
:1006D0006961735F686967685F7761726E006269FC
:1006E00061735F6C6F775F7761726E00747870779B
:1006F000725F686967685F616C61726D00747870C1
:1007000077725F6C6F775F616C61726D0074787087
:1007100077725F686967685F7761726E007478707E
:1007200077725F6C6F775F7761726E000D0A206978
:10073000326320436C6F636B205370656564203AAD
:1007400020256875206B487A000D0A204D696E6976
:100750006D756D206672657175656E6379203330D5
:100760006B487A20000D0A204D6F64756C6520730C
:1007700074617465206973206E6F726D616C000D19
:100780000A204D6F64756C6520576174636820445E
:100790006F67207265626F6F74000D0A313131002E
:1007A0000D0A323232000D0A3333330073746F7026
:1007B00000747863647200727863647200737461A9
:1007C0007274006C74007274006874006C7574004C
:1007D00050300050310050320050330050304D4402
:1007E0004F55540050314D444F55540050324D44F4
:1007F0004F55540050334D444F55540050304D44E4
:10080000494E0050314D44494E0050324D44494EFE
:100810000050334D44494E00726567000D0A257340
:1008200009203D2030782562780077726974650070
:100830006275696C6420696E666F007265736574B9
:10084000007265626F6F7400666163746F72795FC6
:1008500072657365740067657420737776657200DE
:100860005B6F70727C6F70775D202662617365418B
:1008700064647220264F666641646472202350616E
:10088000726D4E756D28307E3078666629005B6D1E
:1008900064696F727C6D64696F775D202662617335
:1008A000654164647220264F666641646472202349
:1008B0005061726D4E756D28307E30786666290005
:1008C00067657420696E746C00676574206D6F6471
:1008D0005F73746174757300656E74657220626F06
:1008E0006E64696E67006565702020205B696E69C3
:1008F000747C73686F777C65726173655D200061DD
:1009000075746F205B656E61626C657C6469736190
:10091000626C655D0064646D69205B656E61626C2C
:10092000657C64697361626C655D006167696E67AF
:10093000205B73746172747C73746F707C636C651C
:10094000616E5D00696E746C206F757470757420D3
:100950005B656E61626C657C64697361626C655D28
:100960000074657374206D6F6473656C20235B3055
:100970007C315D0074657374206D6F6473656C20E9
:1009800061626F72746564005B6765747C73657423
:100990005D206C706D6F646520235B307C315D0081
:1009A0005B6765747C7365745D2072657365742024
:1009B00020235B307C315D005B6765747C736574FC
:1009C0005D2072657365745F6C20235B307C315DE4
:1009D000005B6765747C7365745D206D6F6473651F
:1009E0006C20235B307C315D00656E746572206D18
:1009F000736120646F776E6C6F61640072737369EA
:100A0000205B73686F777C73746F705D20237661F1
:100A10006C7565286D7329006D6F645F636F6E730D
:100A20006F6C65205B656E61626C657C6469736187
:100A3000626C655D005B74786364727C7278636479
:100A4000725D2069326320656E61626C65005B7265
:100A50006561647C656E61626C657C64697361620A
:100A60006C657C636C6561725D206C6F67006565A9
:100A700070207265677365742026646576616464AE
:100A80007220266F666673657461646472202676D0
:100A9000616C7565005B6F7072747C6F7077745DEC
:100AA0002026626173654164647220264F66664148
:100AB00064647220235061726D4E756D28307E30F3
:100AC00078666629005B6765747C7365745D206C6D
:100AD000617365725F74785F736E2023005B676576
:100AE000747C7365745D206C617365725F72785F8E
:100AF000736E2023005B6765747C7365745D207082
:100B000069635F636F64652023005B6765747C7352
:100B100065745D206D6F64756C655F7479706520B8
:100B2000235B30783130317C30783230367C30782D
:100B30003231317C30783330315D005B6765747CF5
:100B40007365745D2068775F766572202376616CCB
:100B5000756528414D29005B6765747C7365745D1C
:100B60002076656E646F725F706E2020236368610B
:100B7000725B31365D005B6765747C7365745D2004
:100B800076656E646F725F7265762023636861724A
:100B90005B325D005B6765747C7365745D207665B0
:100BA0006E646F725F736E202023636861725B31C5
:100BB000365D005B6765747C7365745D2064617489
:100BC000655F636F6465202023636861725B385DD5
:100BD000005B6765747C7365745D20737570657206
:100BE000636F6465202023636861725B395D005B1D
:100BF0006765747C7365745D20706362615F736E9A
:100C00002020202023636861725B31365D005B67C2
:100C100065747C7365745D20706362615F636F648B
:100C200065202023636861725B31365D00676574FF
:100C3000206D6F64756C65205B7663637C74656D95
:100C4000707C626961737C7478706F7765727C7296
:100C500078706F7765725D20236368616E6E656C76
:100C6000005B6765747C7365745D205B6368307CD2
:100C70006368317C6368327C6368337C616C6C5D73
:100C8000205B6C747C72747C68747C6C75745D2001
:100C90002374656D7020236269617320236D6F6416
:100CA000202363726F7373005B6765747C73657474
:100CB0005D205B6368307C6368317C6368327C6391
:100CC00068335D20235B6375727C66697865645F59
:100CD00074656D705D206C757420746162005B7367
:100CE00065747C6765745D2064646D695F63616CC5
:100CF00069205B74656D705F6F66667365747C7682
:100D000063635F6F66667365745D202376616C75DF
:100D100065005B7365747C6765745D2064646D69F0
:100D20005F63616C69205B6368307C6368317C63FE
:100D300068327C6368337C616C6C5D2062696173CE
:100D40005F6F66667365742023424941535F582084
:100D500023424941535F59005B7365747C67657436
:100D60005D2064646D695F63616C69205B636830FA
:100D70007C6368317C6368327C6368335D2074789F
:100D800070777220235458505752312023424941E2
:100D90005331202354585057523220234249415353
:100DA00032005B7365747C6765745D2064646D6993
:100DB0005F63616C69205B6368307C6368317C636E
:100DC00068327C6368335D207278707772202352BA
:100DD00058505752312023525353493120235258EF
:100DE00050575232202352535349320067657420C2
:100DF00064646D69205B7663637C74656D705D000F
:100E00006765742064646D69205B626961737C74DA
:100E1000786D6F6E7C727373695D205B307C317CA2
:100E2000327C335D005B7365747C6765745D207430
:100E30006872686C64205B74656D705F6869676870
:100E40005F616C61726D7C74656D705F6869676805
:100E50005F7761726E7C74656D705F6C6F775F61D8
:100E60006C61726D7C74656D705F6C6F775F7761BC
:100E7000726E5D202376616C7565005B7365747CB2
:100E80006765745D20746872686C64205B76636368
:100E90005F686967685F616C61726D7C7663635FD0
:100EA000686967685F7761726E7C7663635F6C6F99
:100EB000775F616C61726D7C7663635F6C6F775F87
:100EC0007761726E5D20202020202376616C75652D
:100ED000005B7365747C6765745D20746872686C10
:100EE00064205B626961735F686967685F616C61F8
:100EF000726D7C626961735F686967685F77617250
:100F00006E7C626961735F6C6F775F616C61726D3B
:100F10007C626961735F6C6F775F7761726E5D2071
:100F20002376616C7565005B7365747C6765745DC1
:100F300020746872686C64205B72787077725F6886
:100F40006967685F616C61726D7C72787077725FDF
:100F5000686967685F7761726E7C72787077725FBC
:100F60006C6F775F616C61726D7C72787077725FA5
:100F70006C6F775F7761726E5D202376616C75654B
:100F8000005B7365747C6765745D20746872686C5F
:100F900064205B74787077725F686967685F616C02
:100FA00061726D7C74787077725F686967685F776B
:100FB00061726E7C74787077725F6C6F775F616C52
:100FC00061726D7C74787077725F6C6F775F776138
:100FD000726E5D202376616C7565005B6765747C5D
:100FE0007365745D206D6F64756C655F636C6173B0
:100FF00073202376616C7565005B7365747C67652F
:10100000745D206969635F73706565642023766130
:101010006C7565286B487A2900676574206D6F646C
:101020005F626F6F745F726561736F6E007365747A
:10103000205B6368307C6368317C6368327C636802
:10104000337C616C6C5D2074785F70726273205BBE
:10105000656E61626C657C64697361626C655D007C
:10106000736574205B6368307C6368317C636832CD
:101070007C6368337C616C6C5D2072785F70726237
:101080007320636865636B205B656E61626C657C71
:1010900064697361626C655D202376616C75652897
:1010A0006D732900736574205B6368307C636831FD
:1010B0007C6368327C6368337C616C6C5D20727821
:1010C0005F7072627320696E766572742063686502
:1010D000636B205B656E61626C657C6469736162E1
:1010E0006C655D202376616C7565286D73290073CE
:1010F0006574205B6368307C6368317C6368327C34
:101100006368337C616C6C5D207478205B656E6114
:10111000626C657C64697361626C655D00676574AF
:10112000205B6368307C6368317C6368327C636811
:10113000337C616C6C5D207478005B6765747C73D4
:1011400065745D205B6368307C6368317C63683202
:101150007C6368337C616C6C5D206461726B615F81
:1011600074686C64202376616C756528754129006C
:101170005B6765747C7365745D205B6368307C635A
:1011800068317C6368327C6368337C616C6C5D20A1
:101190006461726B645F74686C64202376616C7543
:1011A0006528754129005B6765747C7365745D20F3
:1011B0005B6368307C6368317C6368327C6368336E
:1011C0005D206C6F73615F74686C64202376616C62
:1011D000756528754129005B6765747C7365745D6E
:1011E000205B6368307C6368317C6368327C636851
:1011F000335D206C6F73645F74686C642023766168
:101200006C7565287541290073686F77206D63756B
:1012100020726567005B726561647C7772697465D2
:101220005D2072656720267265675F6E616D65205F
:101230002376616C7565000000000000000000006E
:10124000000000000000000000000000000000009E
:10125000000000000000000000000000000000008E
:10126000000000000000000000000000000000007E
:10127000000000000000000000000000000000006E
:10128000000000000000000000000000000000005E
:10129000000000000000000000000000000000004E
:1012A000000000000000000000000000000000003E
:1012B000000000000000000000000000000000002E
:1012C000000000000000000000000000000000001E
:1012D000000000000000000000000000000000000E
:1012E00000000000000000000000000000000000FE
:1012F00000000000000000000000000000000000EE
:1013000000000000000000000000000000000000DD
:1013100000000000000000000000000000000000CD
:1013200000000000000000000000000000000000BD
:1013300000000000000000000000000000000000AD
:10134000000000000000000000000000000000009D
:10135000000000000000000000000000000000008D
:10136000000000000000000000000000000000007D
:10137000000000000000000000000000000000006D
:10138000000000000000000000000000000000005D
:10139000000000000000000000000000000000004D
:1013A000000000000000000000000000000000003D
:1013B000000000000000000000000000000000002D
:1013C000000000000000000000000000000000001D
:1013D000000000000000000000000000000000000D
:1013E00000000000000000000000000000000000FD
:1013F00000000000000000000000000000000000ED
:1014000000000000000000000000000000000000DC
:101410000000008185898D83878B8F9195999D939D
:10142000979B9F02010300040102000304010200D4
:1014300003040217F3E86480F8E933E83360110429
:1014400060F0ED33EC337009E8FCE9FDEAFEEBFFF8
:10145000220460DED3EB9FEA9EE99DE8C2E78CF0B0
:10146000C2F795F0400CE8CCF8E9CDF9EACEFAEBFA
:10147000CFFB1217BE85D0F05804700320D5B3E817
:101480000470075002B2D50217FD92D5EC0460F744
:10149000E4CCC0E0C398F8603B94186008400DD0DD
:1014A000E0FB0217D5E4FBFAC9FC8028E830E4062B
:1014B000E4C9FBE4CAFCE830E305E4C9CACBFCE8B4
:1014C00054076010F8C3E913F9EA13FAEB13FBECC5
:1014D00013FCD8F130F52FC3E49CFCEF9BFFEE9A90
:1014E000FEED99FDD0E0FBEF4E4D4C701222DB0378
:1014F0000217FAEC2CFCEF33FFEE33FEED33FDED7B
:1015000030E7EB0217D5EF2BFFEE3AFEED39FDD0B9
:10151000E0FB50130BBB00030217FDED13FDEE13B0
:10152000FEEF13FFEC13FC0217D5EC4D6011E849F8
:101530007017ED33EC3304600DE4FCFFFEFD22E98F
:1015400033E8330470F80217F31217BE5804600929
:10155000E4CC248150062850090217FD28400302DC
:1015600017FAC0E0EB4A7044B98006D0E0FB0217DE
:10157000E9EF4E701CBD8008EBFFEAFEE9FD80EB51
:10158000E98DF0A4FEE5F0021613E9CDF9EAFEEBD1
:10159000FFEF89F0A4FCE5F0CE89F0A42EFFE4353E
:1015A000F0CD89F0A42DFEE435F08067EF4E700594
:1015B000BD80D780C3EF8BF0A4ACF0EE8BF0A42CF1
:1015C000FCE435F0F8EF8AF0A42CE5F038FCE433C5
:1015D000CB8DF0A42CFCE5F03BF8EE8AF0A42CFCBB
:1015E000E5F038F8E433CF89F0A42CFCE5F038CFEF
:1015F0003400CE89F0A42FFFE5F03EFEE433C98D20
:10160000F0A42EFEE5F039CD8AF0A42FFFE5F03EE0
:10161000FEE43DFD33D0E0FB50070BBB000F02178B
:10162000FDEC2CFCEF33FFEE33FEED33FD0217D55E
:101630000217FDEC5D046005E8590470030217F31E
:101640001217BE580460F6EC4860F2EC7004FDFE20
:10165000FF22C860DB2481C85009C398600250068D
:101660000217FA9850CAF582E9294B4A7005AB82F5
:101670000217E975F0007C1A7880C3EF9BEE9AEDB3
:1016800099400DC3EF9BFFEE9AFEED99FDE842F005
:10169000DC23ACF0D0E0FFD0E0FED0E0FDAB822058
:1016A000E7101BEB60BAEC2CFCEF33FFEE33FEEDE2
:1016B00033FD0217D5E803F830E705C0F075F000F8
:1016C000EF2FFFEE33FEED33FD40B830E7C280AAC6
:1016D00074F8CC6480CCC86480C8F58204604FC3C1
:1016E000EB9FF5F0EA9E42F0E99D42F0E89C45F060
:1016F000603C501DE5825FFFE582D313CB5BCBF4EA
:101700002B5582FB50280ABA002409B90020088012
:101710001DE5825BFBE582D313CF5FCFF4C3132FAC
:101720005582FF50090EBE00050DBD00010CC3EB34
:101730009FF5F0EA9E42F0E99D42F0E89C45F0609A
:1017400007CC4820E701B3EC2275F020800E75F03D
:1017500010800575F0087D007E007F003392D53043
:10176000D503121EBBEC334010EF33FFEE33FEED1A
:1017700033FDEC33FCD5F0ED22E5F0247EA2D51349
:10178000CC92E7CDCEFF22EDD2E7CD33EC3392D52C
:1017900024814006E4FFFEFDFC22FCE4CFCECDCC4C
:1017A00024E0501174FF80EDC3CC13CCCD13CDCE0B
:1017B00013CECF13CF0470F030D5DE021EBBE9D2BA
:1017C000E7C933E833F892D5EDD2E7CD33EC33FCFB
:1017D0005002B2D522EC30E7100FBF000C0EBE0055
:1017E000080DBD00040BEB6014A2D5EB13FCED92C9
:1017F000E7FD2274FFFCFDFEFF22E480F8A2D57411
:10180000FF13FC7D80E480EFED33EC336010047057
:101810000FED547F7005740292E0227404220422BA
:10182000E422ED33EC33600A047003BD8004ECB2B3
:10183000E7FC22F920E73624F950037907E4F42481
:1018400002FBE582158270021583DBF6E024FB5073
:101850001BE96014E4F0E582158270021583E00450
:10186000F0B40A08E4F0D9EE7401F00A22C2D522DD
:10187000ED33EC3392D5FA602AB4FF33EDC2E77B47
:10188000FF60067A187995E4227A18799E20D504AB
:101890007A187999224E614E002B494E46002D4907
:1018A0004E4600E47A08F0A3DAFC7B00740722C0FD
:1018B00083C082ECC0E0EDC0E0EEC0E0EFC0E0EA43
:1018C00075F010A4CAABF075F04DA42BFBE435F015
:1018D000FCEA2410FAEB34C5FBEC34D9FCEDC2E78A
:1018E000FF75F056A4F42411C5F0F434C58FF0A4AC
:1018F0002AE5F03BE43CF020E7141219F2D0E0FFB7
:10190000D0E0FED0E0FDD0E0FC1216338014F404E9
:101910001219F2D0E0FFD0E0FED0E0FDD0E0FC12E2
:10192000152AD082D083E0FAEDD2E7CD33EC332410
:1019300082FBE4C3CF33CFCE33CECD33CD33DBF315
:101940007B0775F00A846004F0A31B0AE5F0F0A39E
:101950008FF0740AA4FFACF08EF0740AA42CFEACD5
:10196000F050010C8DF0740AA42CFDE435F0F0A3C6
:10197000DBDE740722C0E0EFFBEEFAEDF9ECF812C3
:10198000152AD0E0F5F0EFFBEEFAEDF9ECF8121FB6
:101990008EA3A3A3A3E8C0E0E9C0E0EAC0E0EBC0E7
:1019A000E0C0F012152A121FAAA3A3A3A312143990
:1019B000D0F0D0E0FBD0E0FAD0E0F9D0E0F8D5F0FC
:1019C000D4223F8000004120000042C80000447A39
:1019D0000000461C400047C35000497424004B18C7
:1019E00096804CBEBC205A0E1BCA6753C21C749D05
:1019F000C5AEFB60065407601C2323121A20EB546B
:101A0000386009121A0C121A1B12152AECF8EDF99B
:101A1000EEFAEFCB22EB121A1B80F1543803241C90
:101A20009019C2FE93FC0EEE93FD0EEE930ECE9334
:101A3000FF22E709F608DFFA8046E709F208DFFA35
:101A4000803E88828C83E709F0A3DFFA8032E309C5
:101A5000F608DFFA8078E309F208DFFA80708882FE
:101A60008C83E309F0A3DFFA806489828A83E0A390
:101A7000F608DFFA805889828A83E0A3F208DFFA49
:101A8000804C80D280FA80C680D4806980F2803316
:101A9000801080A680EA809A80A880DA80E280CADE
:101AA000803389828A83ECFAE493A3C8C582C8CCC8
:101AB000C583CCF0A3C8C582C8CCC583CCDFE9DE22
:101AC000E7800D89828A83E493A3F608DFF9ECFAB4
:101AD000A9F0EDFB2289828A83ECFAE0A3C8C582D3
:101AE000C8CCC583CCF0A3C8C582C8CCC583CCDF25
:101AF000EADEE880DB89828A83E493A3F208DFF9D7
:101B000080CC88F0EF60010E4E60C388F0ED2402B7
:101B1000B4040050B9F582EB2402B4040050AF23A2
:101B200023458223901A8273BB010689828A83E04F
:101B3000225002E722BBFE02E32289828A83E493D9
:101B400022BB010CE58229F582E5833AF583E02288
:101B50005006E92582F8E622BBFE06E92582F8E276
:101B600022E58229F582E5833AF583E49322BB01DD
:101B700011F8E58229F582E5833AF583E0C828F07B
:101B8000E8225009C58229F8C58226C622BBFE0D6F
:101B9000C58229F8E2C5822582F2E58222EA258300
:101BA000F583E99322BB010989828A83F8E028F052
:101BB00022500327F722BBFE05F8E328F3228A838D
:101BC0008982F8E4932822BB010FF8E58229F58287
:101BD000E5833AF583E028F0225009C58229F8E52B
:101BE0008226F622BBFE09C58229F8E22582F2226E
:101BF000F8EA2583F583E9932822BB010689828AC6
:101C000083F0225002F722BBFE01F322F8BB010D44
:101C1000E58229F582E5833AF583E8F0225006E96A
:101C20002582C8F622BBFE05E92582C8F222EF8D87
:101C3000F0A4A8F0CF8CF0A428CE8DF0A42EFE2224
:101C4000C2D5EC30E709B2D5E4C39DFDE49CFCEEBF
:101C500030E715B2D5E4C39FFFE49EFE12243BC3D8
:101C6000E49DFDE49CFC800312243B30D507C3E4D3
:101C70009FFFE49EFE22C5F0F8A3E028F0C5F0F82F
:101C8000E582158270021583E038F022A3F8E0C5E2
:101C9000F025F0F0E582158270021583E0C838F077
:101CA000E822BB010A89828A83E0F5F0A3E0225092
:101CB0000687F009E71922BBFE07E3F5F009E319EF
:101CC0002289828A83E493F5F074019322BB011088
:101CD000E58229F582E5833AF583E0F5F0A3E02279
:101CE0005009E92582F886F008E622BBFE0AE925BC
:101CF00082F8E2F5F008E222E5832AF583E993F51C
:101D0000F0A3E99322BB010DC58229C582C5833AA0
:101D1000C583021C765011C58229F808E5F026F625
:101D200018F5F0E58236F622BBFE11C58229F808C7
:101D3000E225F0F5F0F218E23582F222F8E5822988
:101D4000F582E5832AF58374019325F0F5F0E49399
:101D50003822BB010A89828A83F0E5F0A3F0225081
:101D600006F709A7F01922BBFE06F3E5F009F319FF
:101D700022F8BB0111E58229F582E5833AF583E873
:101D8000F0E5F0A3F0225009E92582C8F608A6F094
:101D900022BBFE09E92582C8F2E5F008F222E88FAD
:101DA000F0A4CC8BF0A42CFCE98EF0A42CFC8AF0DF
:101DB000EDA42CFCEA8EF0A4CDA8F08BF0A42DCCE1
:101DC0003825F0FDE98FF0A42CCD35F0FCEB8EF03A
:101DD000A4FEA9F0EB8FF0A4CFC5F02ECD39FEE420
:101DE0003CFCEAA42DCE35F0FDE43CFC2275F00865
:101DF000758200EF2FFFEE33FECD33CDCC33CCC553
:101E00008233C5829BED9AEC99E58298400CF5826D
:101E1000EE9BFEED9AFDEC99FC0FD5F0D6E4CEFBDF
:101E2000E4CDFAE4CCF9A88222B800C1B90059BACD
:101E3000002DEC8BF084CFCECDFCE5F0CBF97818FB
:101E4000EF2FFFEE33FEED33FDEC33FCEB33FB10F5
:101E5000D703994004EB99FB0FD8E5E4F9FA22780F
:101E600018EF2FFFEE33FEED33FDEC33FCC933C921
:101E700010D7059BE99A4007EC9BFCE99AF90FD82B
:101E8000E0E4C9FAE4CCFB2275F010EF2FFFEE334B
:101E9000FEED33FDCC33CCC833C810D7079BEC9A8A
:101EA000E899400AED9BFDEC9AFCE899F80FD5F013
:101EB000DAE4CDFBE4CCFAE4C8F922C3E49FFFE402
:101EC0009EFEE49DFDE49CFC22EB9FF5F0EA9E4221
:101ED000F0E99D42F0E89C45F022E8600FECC31366
:101EE000FCED13FDEE13FEEF13FFD8F122E8600FB7
:101EF000EFC333FFEE33FEED33FDEC33FCD8F122BC
:101F0000BB010789828A8302249C5005E9F80224D8
:101F100090BBFE05E9F80224A889828A83021F8EFD
:101F2000BB010DE58229F582E5833AF58302249C05
:101F30005007E92582F8022490BBFE07E92582F8C4
:101F40000224A8E58229F582E5833AF583021F8EF3
:101F5000BB010789828A8302200A5005E9F802241E
:101F6000CEBBFE05E9F80224DA22BB010DE5822989
:101F7000F582E5833AF58302200A5007E92582F8C5
:101F80000224CEBBFE07E92582F80224DA22E4937C
:101F9000FC740193FD740293FE740393FF22E0F836
:101FA000A3E0F9A3E0FAA3E0FB22E493F874019321
:101FB000F9740293FA740393FB22BB010789828AA6
:101FC00083021F9E5005E9F80224B4BBFE05E9F820
:101FD0000224C189828A83021FAABB010DE58229DE
:101FE000F582E5833AF583021F9E5007E92582F8C2
:101FF0000224B4BBFE07E92582F80224C1E5822948
:10200000F582E5833AF583021FAAECF0A3EDF0A375
:10201000EEF0A3EFF022A8828583F0D083D0821265
:10202000202D12202D12202D12202DE473E493A3D5
:10203000C583C5F0C583C8C582C8F0A3C583C5F0F4
:10204000C583C8C582C822BB010789828A83022052
:10205000165005E9F80224E6BBFE05E9F80224FF64
:1020600022BB010DE58229F582E5833AF583022042
:10207000165007E92582F80224E6BBFE07E925820F
:10208000F80224FF22F5F0C582A4C582C5F0C583FD
:10209000A42583F58322F8E0FBA3A3E0F925F0F063
:1020A000E582158270021583E0FA38F022EBF0A386
:1020B000EAF0A3E9F022BB010789828A8302252A7C
:1020C0005005E9F8022518BBFE05E9F80225338919
:1020D000828A83022545BB010DE58229F582E583CD
:1020E0003AF58302252A5007E92582F8022518BB14
:1020F000FE07E92582F8022533E58229F582E5838A
:102100003AF583022545BB0120E58229F582E58366
:102110003AF583D0F0D0E0F8D0E0F9D0E0FAD0E0A2
:10212000FBE8C0E0C0F00220AD5018E92582F8D0ED
:1021300083D082D0E0F9D0E0FAD0E0FBC082C08347
:10214000022521BBFE18E92582F8D083D082D0E099
:10215000F9D0E0FAD0E0FBC082C08302253C22D057
:1021600083D082F8E4937012740193700DA3A3934B
:10217000F8740193F5828883E4737402936860EFC6
:10218000A3A3A380DF8A838982E473E3F5F009E2E5
:1021900008B5F06D606B80F3E3F5F009E608B5F083
:1021A00060605E80F387F009E608B5F05460528005
:1021B000F487F009E208B5F048604680F488828C24
:1021C0008387F009E0A3B5F038603680F488828C0C
:1021D0008387F009E493A3B5F027602580F3888214
:1021E0008C83E3F5F009E0A3B5F016601480F38862
:1021F000828C83E3F5F009E493A3B5F004600280D8
:10220000F20222B6808580E7808E80D2803C8015E5
:10221000806C807E809B80B5808B80A1804F807099
:10222000803A0222C289828A83ECFAE493F5F0A311
:10223000C8C582C8CCC583CCE493A3C8C582C8CC2A
:10224000C583CCB5F070606E80E189828A83E493A7
:10225000F5F0A3E208B5F05E605C80F289828A83C3
:10226000E0F5F0A3E608B5F04D604B80F389828A73
:1022700083E0F5F0A3E208B5F03C603A80F3898290
:102280008A83E493F5F0A3E608B5F02A602880F28B
:10229000805389828A83ECFAE493F5F0A3C8C5825F
:1022A000C8CCC583CCE0A3C8C582C8CCC583CCB597
:1022B000F004600280E27FFFB5F0020F2240027F4F
:1022C000012289828A83ECFAE0F5F0A3C8C582C8AE
:1022D000CCC583CCE0A3C8C582C8CCC583CCB5F03F
:1022E000D560D380E389828A83ECFAE0F5F0A3C855
:1022F000C582C8CCC583CCE493A3C8C582C8CCC56D
:1023000083CCB5F0B160AF80E288F0ED2402B40474
:102310000050A3F582EB2402B40400509923234516
:10232000822390220473E709F60870FA8046E709D1
:10233000F20870FA803E88828C83E709F0A370FA75
:10234000807EE309F60870FA8076E309F20870FAF5
:10235000806E88828C83E309F0A370FA80628982A0
:102360008A83E0A3F60870FA805689828A83E0A304
:10237000F20870FA804A80D280FA80C680D48065E4
:1023800080F28031801080A680EA809A80A880DA6E
:1023900080E280CA803189828A83ECFAE493A3C800
:1023A000C582C8CCC583CCF0A3C8C582C8CCC583C0
:1023B000CC70E9800D89828A83E493A3F60870F9D2
:1023C000ECFAA9F0EDFB2289828A83ECFAE0A3C83B
:1023D000C582C8CCC583CCF0A3C8C582C8CCC58390
:1023E000CC70EA80DD89828A83E493A3F20870F9D5
:1023F00080CE88F0ED2402B4040050C4F582EB24B2
:1024000002B4040050BA232345822390237673EF4D
:102410004E6012EF60010EEDBB010B89828A83F0E2
:10242000A3DFFCDEFA2289F05007F709DFFCA9F0F0
:1024300022BBFEFCF309DFFCA9F022BC000BBE00AE
:1024400029EF8DF084FFADF022E4CCF875F008EFB1
:102450002FFFEE33FEEC33FCEE9DEC984005FCEED6
:102460009DFE0FD5F0E9E4CEFD22EDF8F5F0EE8407
:1024700020D21CFEADF075F008EF2FFFED33FD40CC
:1024800007985006D5F0F222C398FD0FD5F0EA2246
:10249000E6FC08E6FD08E6FE08E6FF22E0FCA3E015
:1024A000FDA3E0FEA3E0FF22E2FC08E2FD08E2FE5D
:1024B00008E2FF22E6FB08E6F908E6FA08E6CBF8B0
:1024C00022E2FB08E2F908E2FA08E2CBF822ECF695
:1024D00008EDF608EEF608EFF622ECF208EDF20849
:1024E000EEF208EFF222D083D082E493F608740172
:1024F00093F608740293F608740393F6740473D089
:1025000083D082E493F208740193F208740293F288
:1025100008740393F2740473E6FB08E6FA08E6F91C
:1025200022EBF608EAF608E9F622E0FBA3E0FAA3BC
:10253000E0F922E2FB08E2FA08E2F922EBF208EA0B
:10254000F208E9F222E493FB740193FA740293F91E
:10255000229009E7EBF0A3EAF0A3E9F0E4A3F0A3EB
:10256000F09009E7E0FBA3E0FAA3E02429F9E43ABC
:10257000A801FCAD037BFF7A04793C122309EF60CC
:102580000302268C9009E7E0FBA3E0FAA3E0240114
:10259000F9E43AA801FCAD037BFF7A0179731223B9
:1025A00009EF600302262E9009E7E0FBA3E0FAA3FF
:1025B000E0243DF9E43AFA12E93CE4FBFA792078A8
:1025C000C21216D0600250239009E7E0FBA3E0FAA4
:1025D000A3E0243DF9E43AFA12E93CE4FBFA79205D
:1025E00078421216D040047F0180027F00EF6035F0
:1025F0009009E7E0FBA3E0FAA3E0243DF9E43AFA0E
:1026000012E93CE4FBFA7980784312152A12178705
:102610009009ECEEF0A3EFF07B017A0979ECE4FD90
:102620007F01022FA27BFF7A047948022FB3900921
:10263000E7E0FBA3E0FAA3E02401F9E43AA801FCF7
:10264000AD037BFF7A017977122309EF6003023132
:102650001B7B017A0979ECFD7F011282B19009EBB5
:10266000EFF06003E0FF229009ECE0FCA3E0FDEC5A
:1026700012174EE4FBFA79807843121633900AEF72
:1026800012200A7BFF7A0479670231169009E7E08D
:10269000FBA3E0FAA3E02429F9E43AA801FCAD0386
:1026A0007BFF7A04797C122309EF60030227BF9035
:1026B00009E7E0FBA3E0FAA3E02401F9E43AA8016A
:1026C000FCAD037BFF7A017973122309EF600302EB
:1026D00027579009E7E0FBA3E0FAA3E0243DF9E4E3
:1026E0003AFA12E93CE4FBFAF978C01216D060021B
:1026F00050229009E7E0FBA3E0FAA3E0243DF9E4CF
:102700003AFA12E93CE4FBFAF978401216D0400498
:102710007F0180027F00EF60359009E7E0FBA3E0D6
:10272000FAA3E0243DF9E43AFA12E93C7B007A404E
:10273000791C784612152A1217879009EEEEF0A33D
:10274000EFF07B017A0979ECE4FDFF022FA27BFF19
:102750007A047987022FB39009E7E0FBA3E0FAA39C
:10276000E02401F9E43AA801FCAD037BFF7A01798A
:1027700077122309EF70457B017A0979ECFDFF128E
:1027800082B19009EBEFF06003E0FF229009EEE0E8
:10279000FCA3E0FDEC12174E7BCD7ACC79CC783DD2
:1027A00012152AE4FBFA797A7844121633900AEF6C
:1027B00012200A7BFF7A0479A502311602311B90A0
:1027C00009E7E0FBA3E0FAA3E0243DF9E43AA8011D
:1027D000FCAD037BFF7A0479B9122309EF60030291
:1027E0002AA8900A40F09009E7E0FBA3E0FAA3E0F2
:1027F0002429F9E43AFA12B6349009EAEFF0BFFF5F
:10280000037FFF229009E7E0FBA3E0FAA3E02401A5
:10281000F9E43AA801FCAD037BFF7A017973122336
:1028200009EF60030229519009EAE0FFC3940040D8
:102830007DEF940450789009E7E0FBA3E0FAA3E071
:102840002451F9E43AFA12E93CE4FBFA79207841A0
:1028500012152A1217879009EAE075F014A424F0E3
:10286000F582E43409F583EEF0A3EFF09009E7E098
:10287000FBA3E0FAA3E02465F9E43AFA12E93CE4A8
:10288000FBFA7920784112152A1217879009EAE09D
:10289000FD75F014A424F2F582E43409F583EEF01A
:1028A000A3EFF07B017A0979EC7F02022FA2900955
:1028B000EAE064046003023123900A40F09009E7E3
:1028C000E0FBA3E0FAA3E02451F9E43AFA12E93C70
:1028D000E4FBFA7920784112152A121787900A40F2
:1028E000E075F014A424F0F582E43409F583EEF0E9
:1028F000A3EFF09009E7E0FBA3E0FAA3E02465F979
:10290000E43AFA12E93CE4FBFA7920784112152AFC
:10291000121787900A40E0FD75F014A424F2F582A6
:10292000E43409F583EEF0A3EFF07B017A0979EC4A
:102930007F0212755D9009EBEFF06003E0FF2290DB
:102940000A40E004F0E0C3940450030228BD0231C1
:10295000239009E7E0FBA3E0FAA3E02401F9E43ABD
:10296000A801FCAD037BFF7A017977122309EF60A0
:1029700003022AA59009EAE0FFC394005003022A4B
:1029800004EF9404507EE0FD7B017A0979EC7F022C
:102990001282B19009EBEFF06003E0FF229009EAA8
:1029A000E0900AEFF075F014A424F0F582E4340905
:1029B000F583E0FCA3E0FDE412174E7BCD7ACC79E1
:1029C000CC783D12152A900AF012200A9009EAE00C
:1029D000900AF4F075F014A424F2F582E43409F5B9
:1029E00083E0FCA3E0FDE412174E7BCD7ACC79CCDA
:1029F000783D12152A900AF512200A7BFF7A047995
:102A0000C50231169009EAE06404600302312390A4
:102A10000A40F0900A40E0FDC394044003023123D1
:102A20007B017A0979EC7F021282B19009EBEFF019
:102A30006003E0FF22900A40E0900AEFF075F01486
:102A4000A424F0F582E43409F583E0FCA3E0FDE47E
:102A500012174E7BCD7ACC79CC783D12152A900A8C
:102A6000F012200A900A40E0900AF4F075F014A4E5
:102A700024F2F582E43409F583E0FCA3E0FDE412DE
:102A8000174E7BCD7ACC79CC783D12152A900AF579
:102A900012200A7BFF7A0479C512E6D0900A40E042
:102AA00004F0022A1302311B9009E7E0FBA3E0FACD
:102AB000A3E0243DF9E43AA801FCAD037BFF7A05CD
:102AC0007900122309EF6003022DA79009E7E0FBCC
:102AD000A3E0FAA3E02429F9E43AFA12B634900903
:102AE000EAEFF0BFFF037FFF229009E7E0FBA3E0DE
:102AF000FAA3E02401F9E43AA801FCAD037BFF7AD4
:102B0000017973122309EF6003022C289009E7E092
:102B1000FBA3E0FAA3E02451F9E43AFA12E93CE419
:102B2000FBFA79207841121633900A4C12200A7F62
:102B3000007E007D207C4112859B7B007A40791CC1
:102B4000784612152A1217879009EAE075F014A446
:102B500024FCF582E43409F583EEF0A3EFF090094C
:102B6000E7E0FBA3E0FAA3E02465F9E43AFA12E90E
:102B70003CE4FBFA7920784112152A121787900954
:102B8000EAE075F014A424FEF582E43409F583EE3E
:102B9000F0A3EFF09009E7E0FBA3E0FAA3E02479CB
:102BA000F9E43AFA12E93CE4FBFA7920784112168A
:102BB00033900A4C12200A7F007E007D207C411257
:102BC000859B7B007A40791C784612152A1217875C
:102BD0009009EAE075F014A42400F582E4340AF5C3
:102BE00083EEF0A3EFF09009E7E0FBA3E0FAA3E0A7
:102BF000248DF9E43AFA12E93CE4FBFA79207841B1
:102C000012152A1217879009EAE0FD75F014A42422
:102C100002F582E4340AF583EEF0A3EFF07B017A4B
:102C20000979EC7F03022FA29009E7E0FBA3E0FA09
:102C3000A3E02401F9E43AA801FCAD037BFF7A018B
:102C40007977122309EF6003022DA4900A40122025
:102C50001600000000900A441220160000000090A8
:102C600009EAE0FD7B017A0979EC7F031282B190D9
:102C700009EBEFF06003E0FF229009EAE075F01441
:102C8000A424FCF582E43409F583E0FCA3E0FDE430
:102C900012174E7BCD7ACC79CC783D12152AE4FB05
:102CA000FA797A7844121633900A4012200A900971
:102CB000EAE075F014A42400F582E4340AF583E018
:102CC000FCA3E0FDE412174E7BCD7ACC79CC783DA5
:102CD00012152AE4FBFA797A7844121633900A44E2
:102CE00012200A900A40E0FCA3E0FDA3E0FEA3E06E
:102CF000FF1293DBE4FBFA7920784112152AC00415
:102D0000C005C006C007900A44E0FCA3E0FDA3E0B4
:102D1000FEA3E0FF1293DBE4FBFA79207841121561
:102D20002A900AFA12200AD007D006D005D00490C3
:102D30000AF012200A9009EAE0900AEFF0900AF4F3
:102D4000F075F014A424FEF582E43409F583E0FC68
:102D5000A3E0FDE412174E7BCD7ACC79CC783D12FE
:102D6000152A900AF512200A9009EAE0900AF9F073
:102D7000900AFEF075F014A42402F582E4340AF5FA
:102D800083E0FCA3E0FDE412174E7BCD7ACC79CC36
:102D9000783D12152A900AFF12200A7BFF7A0579E6
:102DA0000602311602311B9009E7E0FBA3E0FAA30B
:102DB000E0243DF9E43AA801FCAD037BFF7A0579F4
:102DC00064122309EF600302311D9009E7E0FBA3C1
:102DD000E0FAA3E02429F9E43AFA12B6349009EAB9
:102DE000EFF0BFFF037FFF229009E7E0FBA3E0FACB
:102DF000A3E02401F9E43AA801FCAD037BFF7A01CA
:102E00007973122309EF6003022FB99009E7E0FB01
:102E1000A3E0FAA3E02451F9E43AFA12E93CE4FB16
:102E2000FA797078C11216D0600250239009E7E059
:102E3000FBA3E0FAA3E02451F9E43AFA12E93CE4F6
:102E4000FBFA79A078401216D040047F0180027FFF
:102E500000EF7003022FAD9009E7E0FBA3E0FAA3B7
:102E6000E02479F9E43AFA12E93CE4FBFA79707863
:102E7000C11216D0600250239009E7E0FBA3E0FAEC
:102E8000A3E02479F9E43AFA12E93CE4FBFA79A0E8
:102E900078401216D040047F0180027F00EF70035B
:102EA000022FAD9009E7E0FBA3E0FAA3E02451F97B
:102EB000E43AFA12E93CE4FBFA792078411216333D
:102EC000900A4C12200A7F007E007D207C411285F2
:102ED0009B7B007A40791C784612152A121787903E
:102EE00009EAE075F014A424F4F582E43409F583CA
:102EF000EEF0A3EFF09009E7E0FBA3E0FAA3E024F3
:102F000065F9E43AFA127C5B9009EAE075F014A4E2
:102F100024F6F582E43409F583EEF0A3EFF090098E
:102F2000E7E0FBA3E0FAA3E02479F9E43AFA12E936
:102F30003CE4FBFA79207841121633900A4C1220B7
:102F40000A7F007E007D207C4112859B7B007A40B9
:102F5000791C784612152A1217879009EAE075F055
:102F600014A424F8F582E43409F583EEF0A3EFF01D
:102F70009009E7E0FBA3E0FAA3E0248DF9E43AFA34
:102F8000127C5B9009EAE0FD75F014A424FAF58246
:102F9000E43409F583EEF0A3EFF07B017A0979ECD4
:102FA0007F0412755D9009EBEFF00231237BFF7A0D
:102FB00005796A12E6D002311D9009E7E0FBA3E033
:102FC000FAA3E02401F9E43AA801FCAD037BFF7AFF
:102FD000017977122309EF600302311B900A401236
:102FE000201600000000900A441220160000000085
:102FF0009009EAE0FD7B017A0979EC7F041282B145
:103000009009EBEFF06003E0FF229009EAE075F031
:1030100014A424F4F582E43409F583E0FCA3E0FD74
:10302000E412174E7BCD7ACC79CC783D12152AE488
:10303000FBFA797A7844121633900A4012200A90EB
:1030400009EAE075F014A424F8F582E43409F58364
:10305000E0FCA3E0FDE412174E7BCD7ACC79CC786E
:103060003D12152AE4FBFA797A7844121633900A55
:103070004412200A900A40E0FCA3E0FDA3E0FEA376
:10308000E0FF1293DBE4FBFA7920784112152AC0A5
:1030900004C005C006C007900A44E0FCA3E0FDA3FD
:1030A000E0FEA3E0FF1293DBE4FBFA792078411203
:1030B000152A900AF812200AD007D006D005D004AD
:1030C000900AF012200A7BFF7A05798C9009EAE0D9
:1030D000900AEFF0900AF4F075F014A424F6F5824B
:1030E000E43409F583E0FFA3E0900AF5CFF0A3EF05
:1030F000F09009EAE0900AF7F0900AFCF075F014FD
:10310000A424FAF582E43409F583E0FFA3E0900AF1
:10311000FDCFF0A3EFF012E6D0800880009009EB1D
:1031200074FFF09009EBE0FF22E0FCA3E0FDA3E0D8
:10313000FEA3E0FF900A2612200AE4900A30F0A3D2
:10314000F0C2AF900A30F0A3F0C2A2D2A1000000FA
:10315000000000000000000000000000000000006F
:10316000000000000000000000000000000000005F
:10317000000000000000000000000000000000004F
:10318000000000000000000000000000000000003F
:103190000000000000D2A2900D16E024FF92A700CC
:1031A000000000000000000000000000000000001F
:1031B000000000000000000000000000000000000F
:1031C00000000000000000000000000000000000FF
:1031D00000000000000000000000000000000000EF
:1031E00000000000000000900A31E004F07006903A
:1031F0000A30E004F0900A30E07004A3E06420603C
:1032000003023149C2A2C2A1000000000000000078
:1032100000000000000000000000000000000000AE
:10322000000000000000000000000000000000009E
:10323000000000000000000000000000000000008E
:10324000000000000000000000000000000000007E
:10325000D2A2900D16E024FF92A70000000000000B
:10326000000000000000000000000000000000005E
:10327000000000000000000000000000000000004E
:10328000000000000000000000000000000000003E
:10329000000000000000000000000000000000002E
:1032A0000000E4900A30F0A3F0900A31E004F070DE
:1032B00006900A30E004F0900A30E07004A3E06465
:1032C0000170E6C2A2C2A1000000000000000000E0
:1032D00000000000000000000000000000000000EE
:1032E00000000000000000000000000000000000DE
:1032F00000000000000000000000000000000000CE
:10330000000000000000000000000000000000D2EB
:10331000A2900D16E024FF92A7000000000000001C
:10332000000000000000000000000000000000009D
:10333000000000000000000000000000000000008D
:10334000000000000000000000000000000000007D
:10335000000000000000000000000000000000006D
:1033600000E4900A30F0A3F0900A31E004F0700617
:10337000900A30E004F0900A30E07004A3E06401A9
:1033800070E6C2A2C2A10000000000000000000020
:10339000000000000000000000000000000000002D
:1033A000000000000000000000000000000000001D
:1033B000000000000000000000000000000000000D
:1033C0000000000000000000000000000000D2A289
:1033D000900D16E024FF92A70000000000000000FE
:1033E00000000000000000000000000000000000DD
:1033F00000000000000000000000000000000000CD
:1034000000000000000000000000000000000000BC
:1034100000000000000000000000000000000000AC
:10342000E4900A30F0A3F0900A31E004F0700690C6
:103430000A30E004F0900A30E07004A3E064017008
:10344000E6C2A2C2A10000000000000000000000CF
:10345000000000000000000000000000000000006C
:10346000000000000000000000000000000000005C
:10347000000000000000000000000000000000004C
:1034800000000000000000000000000000D2A29038
:103490000D16E024FF92A7000000000000000000CD
:1034A000000000000000000000000000000000001C
:1034B000000000000000000000000000000000000C
:1034C00000000000000000000000000000000000FC
:1034D000000000000000000000000000000000E408
:1034E000900A30F0A3F0900A31E004F07006900AE0
:1034F00030E004F0900A30E07004A3E0640170E66C
:10350000E4900A32F0A3F0900A32F0A37404F09031
:103510000A32E0FAA3E0FBC3EA648094805003021D
:1035200035F0C2A2900A26E0FCA3E0FDA3E0FEA3D2
:10353000E0FFA903A801121EDAEF5401FFE4FDFC2D
:10354000EF24FF92A1000000000000000000000036
:10355000000000000000000000000000000000006B
:10356000000000000000000000000000000000005B
:10357000000000000000000000000000000000004B
:1035800000000000000000000000000000D2A29037
:103590000D16E024FF92A7000000000000000000CC
:1035A000000000000000000000000000000000001B
:1035B000000000000000000000000000000000000B
:1035C00000000000000000000000000000000000FB
:1035D000000000000000000000000000000000905B
:1035E0000A33E024FFF0900A32E034FFF002350F96
:1035F000E4900A32F0A3F0900A32F0A37404F09041
:103600000A32E0FAA3E0FBC3EA648094805003022C
:1036100036E0C2A2900A2AE0FCA3E0FDA3E0FEA3EC
:10362000E0FFA903A801121EDAEF5401FFE4FDFC3C
:10363000EF24FF92A1000000000000000000000045
:10364000000000000000000000000000000000007A
:10365000000000000000000000000000000000006A
:10366000000000000000000000000000000000005A
:1036700000000000000000000000000000D2A29046
:103680000D16E024FF92A7000000000000000000DB
:10369000000000000000000000000000000000002A
:1036A000000000000000000000000000000000001A
:1036B000000000000000000000000000000000000A
:1036C000000000000000000000000000000000906A
:1036D0000A33E024FFF0900A32E034FFF00235FFB5
:1036E000C2A2D2A100000000000000000000000003
:1036F00000000000000000000000000000000000CA
:1037000000000000000000000000000000000000B9
:1037100000000000000000000000000000000000A9
:10372000000000000000000000000000D2A2900D88
:1037300016E024FF92A70000000000000000000037
:103740000000000000000000000000000000000079
:103750000000000000000000000000000000000069
:103760000000000000000000000000000000000059
:103770000000000000000000000000000000E490D5
:103780000A30F0A3F0900A31E004F07006900A309D
:10379000E004F0900A30E07004A3E0640170E6C237
:1037A000A2C2A10000000000000000000000000014
:1037B0000000000000000000000000000000000009
:1037C00000000000000000000000000000000000F9
:1037D00000000000000000000000000000000000E9
:1037E0000000000000000000000000D2A2900D16B2
:1037F000E024FF92A700000000000000000000008D
:1038000000000000000000000000000000000000B8
:1038100000000000000000000000000000000000A8
:103820000000000000000000000000000000000098
:1038300000000000000000000000000000E4900A0A
:1038400030F0A3F0900A31E004F07006900A30E006
:1038500004F0900A30E07004A3E0640170E6E490A4
:103860000A32F0A3F0900A32F0A3740FF0900A32FB
:10387000E0FEA3E0FFC3EE6480948050030239436E
:10388000C2A2900A2EE0FEA3E0A807088005CEC3DE
:1038900013CE13D8F91392A100000000000000001D
:1038A0000000000000000000000000000000000018
:1038B0000000000000000000000000000000000008
:1038C00000000000000000000000000000000000F8
:1038D00000000000000000000000000000000000E8
:1038E000D2A2900D16E024FF92A700000000000075
:1038F00000000000000000000000000000000000C8
:1039000000000000000000000000000000000000B7
:1039100000000000000000000000000000000000A7
:103920000000000000000000000000000000000097
:103930000000900A33E024FFF0900A32E034FFF0F8
:1039400002386DD2AF22900A1312200A900A17E0B3
:10395000FCA3E0FDA3E0FEA3E0FF900A2A12200AE8
:10396000900A1BE0FFA3E0900A2ECFF0A3EFF090A7
:103970000A131231297F0112F3D4E4FFC2A2D2A1AB
:103980000000000000000000000000000000000037
:103990000000000000000000000000000000000027
:1039A0000000000000000000000000000000000017
:1039B0000000000000000000000000000000000007
:1039C0000000000000000000D2A2900D16E024FFCD
:1039D00092A70000000000000000000000000000AE
:1039E00000000000000000000000000000000000D7
:1039F00000000000000000000000000000000000C7
:103A000000000000000000000000000000000000B6
:103A1000000000000000000000000FEF64206003C1
:103A200002397CC2A2C2A100000000000000000018
:103A30000000000000000000000000000000000086
:103A40000000000000000000000000000000000076
:103A50000000000000000000000000000000000066
:103A6000000000000000000000000000000000D284
:103A7000A2900D16E024FF92A700000000000000B5
:103A80000000000000000000000000000000000036
:103A90000000000000000000000000000000000026
:103AA0000000000000000000000000000000000016
:103AB0000000000000000000000000000000000006
:103AC00000C2A2C2A100000000000000000000002F
:103AD00000000000000000000000000000000000E6
:103AE00000000000000000000000000000000000D6
:103AF00000000000000000000000000000000000C6
:103B000000000000000000000000000000D2A292AF
:103B1000A7000000000000000000000000000000FE
:103B20000000000000000000000000000000000095
:103B30000000000000000000000000000000000085
:103B40000000000000000000000000000000000075
:103B5000000000000000000000C2A2C2A10000009E
:103B60000000000000000000000000000000000055
:103B70000000000000000000000000000000000045
:103B80000000000000000000000000000000000035
:103B90000000000000000000000000000000000025
:103BA0000000000000D2A292A70000000000000068
:103BB0000000000000000000000000000000000005
:103BC00000000000000000000000000000000000F5
:103BD00000000000000000000000000000000000E5
:103BE00000000000000000000000000000000000D5
:103BF00000C2A2D2A10000000000000000000000EE
:103C000000000000000000000000000000000000B4
:103C100000000000000000000000000000000000A4
:103C20000000000000000000000000000000000094
:103C300000000000000000000000000000D2A2927E
:103C4000A7000000000000000000000000000000CD
:103C50000000000000000000000000000000000064
:103C60000000000000000000000000000000000054
:103C70000000000000000000000000000000000044
:103C8000000000000000000000E4900A21F0A3F012
:103C9000900A21F0A37404F0900A21E0FAA3E0FB5B
:103CA000C3EA648094805003023D7AC2A2900A1352
:103CB000E0FCA3E0FDA3E0FEA3E0FFA903A801123E
:103CC0001EDAEF5401FFE4FEFDFCEF24FF92A10099
:103CD00000000000000000000000000000000000E4
:103CE00000000000000000000000000000000000D4
:103CF00000000000000000000000000000000000C4
:103D000000000000000000000000000000000000B3
:103D100000000000000000D2A2900D16E024FF92E7
:103D2000A7000000000000000000000000000000EC
:103D30000000000000000000000000000000000083
:103D40000000000000000000000000000000000073
:103D50000000000000000000000000000000000063
:103D6000000000000000000000900A22E024FFF0A4
:103D7000900A21E034FFF0023C98E4900A21F0A37D
:103D8000F0900A21F0A37404F0900A21E0FAA3E075
:103D9000FBC3EA648094805003023E6BC2A2900A87
:103DA00017E0FCA3E0FDA3E0FEA3E0FFA903A80148
:103DB000121EDAEF5401FFE4FEFDFCEF24FF92A196
:103DC00000000000000000000000000000000000F3
:103DD00000000000000000000000000000000000E3
:103DE00000000000000000000000000000000000D3
:103DF00000000000000000000000000000000000C3
:103E00000000000000000000D2A2900D16E024FF88
:103E100092A7000000000000000000000000000069
:103E20000000000000000000000000000000000092
:103E30000000000000000000000000000000000082
:103E40000000000000000000000000000000000072
:103E500000000000000000000000900A22E024FFA3
:103E6000F0900A21E034FFF0023D89C2A2D2A10005
:103E70000000000000000000000000000000000042
:103E80000000000000000000000000000000000032
:103E90000000000000000000000000000000000022
:103EA0000000000000000000000000000000000012
:103EB00000000000000000D2A2900D16E024FF9246
:103EC000A70000000000000000000000000000004B
:103ED00000000000000000000000000000000000E2
:103EE00000000000000000000000000000000000D2
:103EF00000000000000000000000000000000000C2
:103F0000000000000000000000C2A2C2A1000000EA
:103F100000000000000000000000000000000000A1
:103F20000000000000000000000000000000000091
:103F30000000000000000000000000000000000081
:103F40000000000000000000000000000000000071
:103F50000000000000D2A292A700000000000000B4
:103F60000000000000000000000000000000000051
:103F70000000000000000000000000000000000041
:103F80000000000000000000000000000000000031
:103F90000000000000000000000000000000000021
:103FA00000E4900A21F0A3F0900A21F0A3740FF02E
:103FB000900A21E0FAA3E0FBC3EA648094805003F6
:103FC000024092C2A2900A1DE0FCA3E0FDA3E0FE25
:103FD000A3E0FFA903A801121EDAEF5401FFE4FEDB
:103FE000FDFCEF24FF92A100000000000000000093
:103FF00000000000000000000000000000000000C1
:1040000000000000000000000000000000000000B0
:1040100000000000000000000000000000000000A0
:10402000000000000000000000000000000000D2BE
:10403000A2900D16E024FF92A700000000000000EF
:104040000000000000000000000000000000000070
:104050000000000000000000000000000000000060
:104060000000000000000000000000000000000050
:104070000000000000000000000000000000000040
:1040800000900A22E024FFF0900A21E034FFF002C1
:104090003FB012D51F7F0102F33C900A1312200A91
:1040A000E4900A1FF0A312201600000000900A17E7
:1040B000E0FCA3E0FDA3E0FEA3E0FF900A2A1220AB
:1040C0000A900A1BA3A3E0FFA3E0900A2ECFF0A35F
:1040D000EFF0900A13123129C2AFE4900A1FF0C228
:1040E000A2D2A100000000000000000000000000BB
:1040F00000000000000000000000000000000000C0
:1041000000000000000000000000000000000000AF
:10411000000000000000000000000000000000009F
:104120000000000000000000000000D2A2900D1668
:10413000E024FF92A7000000000000000000000043
:10414000000000000000000000000000000000006F
:10415000000000000000000000000000000000005F
:10416000000000000000000000000000000000004F
:1041700000000000000000000000000000900A1F86
:10418000E004F0E0642060030240DFC2A2C2A100AC
:10419000000000000000000000000000000000001F
:1041A000000000000000000000000000000000000F
:1041B00000000000000000000000000000000000FF
:1041C00000000000000000000000000000000000EF
:1041D00000000000000000D2A2900D16E024FF9223
:1041E000A700000000000000000000000000000028
:1041F00000000000000000000000000000000000BF
:1042000000000000000000000000000000000000AE
:10421000000000000000000000000000000000009E
:10422000000000000000000000E4900A1FF0900A67
:104230001FE004F0E0B401F6C2A2C2A10000000039
:10424000000000000000000000000000000000006E
:10425000000000000000000000000000000000005E
:10426000000000000000000000000000000000004E
:10427000000000000000000000000000000000003E
:1042800000000000D2A2900D16E024FF92A70000CB
:10429000000000000000000000000000000000001E
:1042A000000000000000000000000000000000000E
:1042B00000000000000000000000000000000000FE
:1042C00000000000000000000000000000000000EE
:1042D000000000000000E4900A1FF0900A1FE004B4
:1042E000F0E0B401F6C2A2D2A1000000000000007C
:1042F00000000000000000000000000000000000BE
:1043000000000000000000000000000000000000AD
:10431000000000000000000000000000000000009D
:10432000000000000000000000000000000000008D
:1043300000D2A2900D16E024FF92A700000000001A
:10434000000000000000000000000000000000006D
:10435000000000000000000000000000000000005D
:10436000000000000000000000000000000000004D
:10437000000000000000000000000000000000003D
:10438000000000E4900A1FF0900A1FE004F0E0B47F
:1043900001F6C2A2D2A1000000000000000000004F
:1043A000000000000000000000000000000000000D
:1043B00000000000000000000000000000000000FD
:1043C00000000000000000000000000000000000ED
:1043D0000000000000000000000000000000D2A269
:1043E000900D16E024FF92A70000000000000000DE
:1043F00000000000000000000000000000000000BD
:1044000000000000000000000000000000000000AC
:10441000000000000000000000000000000000009C
:10442000000000000000000000000000000000008C
:10443000E4900A1FF0900A1FE004F0E0B401F6E4F3
:10444000900A24F0A3F0900A24F0A37404F0900AD8
:1044500024E0FAA3E0FBC3EA6480948050030245A1
:1044600030C2A2900A13E0FCA3E0FDA3E0FEA3E0AB
:10447000FFA903A801121EDAEF5401FFE4FEFDFCC0
:10448000EF24FF92A10000000000000000000000E7
:10449000000000000000000000000000000000001C
:1044A000000000000000000000000000000000000C
:1044B00000000000000000000000000000000000FC
:1044C00000000000000000000000000000D2A290E8
:1044D0000D16E024FF92A70000000000000000007D
:1044E00000000000000000000000000000000000CC
:1044F00000000000000000000000000000000000BC
:1045000000000000000000000000000000000000AB
:10451000000000000000000000000000000000900B
:104520000A25E024FFF0900A24E034FFF002444E14
:10453000E4900A24F0A3F0900A24F0A37404F0900D
:104540000A24E0FAA3E0FBC3EA64809480500302EB
:104550004621C2A2900A17E0FCA3E0FDA3E0FEA35F
:10456000E0FFA903A801121EDAEF5401FFE4FEFDEB
:10457000FCEF24FF92A100000000000000000000FA
:10458000000000000000000000000000000000002B
:10459000000000000000000000000000000000001B
:1045A000000000000000000000000000000000000B
:1045B0000000000000000000000000000000D2A287
:1045C000900D16E024FF92A70000000000000000FC
:1045D00000000000000000000000000000000000DB
:1045E00000000000000000000000000000000000CB
:1045F00000000000000000000000000000000000BB
:1046000000000000000000000000000000000000AA
:10461000900A25E024FFF0900A24E034FFF00245E0
:104620003FC2A2A2A7E433900D16F00000000000E4
:10463000000000000000000000000000000000007A
:10464000000000000000000000000000000000006A
:10465000000000000000000000000000000000005A
:10466000000000000000000000000000000000004A
:10467000000000D2A20000000000000000000000C6
:1046800000000000000000000000000000A2A1E403
:1046900033A3F00000000000000000000000000054
:1046A000000000E0700302474FE4900A1FF0C2A22E
:1046B000A2A7E433900D16F00000000000000000F7
:1046C00000000000000000000000000000000000EA
:1046D00000000000000000000000000000000000DA
:1046E00000000000000000000000000000000000CA
:1046F00000000000000000000000000000000000BA
:10470000D2A2000000000000000000000000000035
:1047100000000000000000000000A2A1E433A3F0AC
:104720000000000000000000000000000000000089
:10473000900A1FE004F0E0642060030246AE7BFFB5
:104740007AEC798B12AE5EE47F557E55FDFC227FBC
:1047500010129A6A900A2012200A12D51FD2AF9026
:104760000A20E0FCA3E0FDA3E0FEA3E0FF226368D3
:104770003000636831006368320063683300616C45
:104780006C000D0A6368616E6E65646C256275204D
:104790006973206E6F7420737570706F72740D0A78
:1047A000002573000D0A4D6F64756C6520626F6F94
:1047B000742073756363657373000D0A234D63750D
:1047C00054657374426F6172643A000D0A4D6F64F0
:1047D000756C6520626F6F74206572726F72000D68
:1047E0000A5173667032385F6765745F636D645F2A
:1047F000737461747573206661696C6564005352EB
:10480000342D2562782530326278004357444D3488
:104810002D2562782530326278004C52342D256285
:1048200078253032627800554E4B4E4F574E000D72
:104830000A527373695F756120252D3568752025CF
:104840002D35687520252D35687520252D35687521
:10485000000D0A25732D414D2562755F7625627521
:104860002E2562750932302562752E2562752E253A
:1048700062752D2562753A256275000D0A44646DD6
:10488000695F7663633A2566287629000D0A4464D9
:104890006D695F63616C695F7663633A256628764C
:1048A00029000D0A44646D695F74656D703A256670
:1048B000284329000D0A44646D695F63616C695F78
:1048C00074656D703A2566284329000D0A44646DAD
:1048D000695F626961732562753A2566286D4129B1
:1048E000000D0A44646D695F63616C695F626961B0
:1048F000732562753A2566286D4129000D0A4464C6
:104900006D695F74786D6F6E2562753A2566286DE6
:104910005629000D0A44646D695F74786D6F6E25C9
:1049200062753A2566286D4129000D0A44646D6957
:104930005F63616C695F7478706F7765722562750B
:104940003A25662864626D29000D0A6368616E6EFF
:1049500065646C2564206973206E6F7420737570B4
:10496000706F72740D0A000D0A44646D695F727392
:1049700073692562753A25687528754129000D0A05
:1049800044646D695F63616C695F7278706F7765AD
:10499000722562753A25662864626D29006C740080
:1049A0006D74006874000D0A63682562752D2573A7
:1049B0003A74656D70202020202062696173202088
:1049C00020206D6F64202020202063726F73736934
:1049D0006E67000D0A092568640925687509256850
:1049E0007509256864000D0A63682562752D2573B5
:1049F00009256864092568750925687509256864AD
:104A0000000D0A536574206C757420746162206E09
:104A10006F77206973206661696C6564000D0A20F8
:104A2000202063682562753A74656D70202020200F
:104A30002062696173202020206D6F642020202077
:104A40002063726F7373696E67000D0A517366702D
:104A500032385F6765745F66697865645F74656D39
:104A6000705F706F696E745F6170635F76616C75A3
:104A700065206661696C6564000D0A4C6F673A25B4
:104A800073000D0A5173667032385F646562756732
:104A90005F6C6F675F68616E646C65206661696CEE
:104AA0006564000D0A656570207361766520666136
:104AB000696C6564000D0A09446576416464720995
:104AC000094F6666736574416464720956616C755A
:104AD00065000D0A09307825627809093078256863
:104AE0007809093078256278000D0A436D642066E4
:104AF00061696C6564000D0A656E61626C65206DAC
:104B00006F64756C652075617274206661696C658F
:104B100064000D0A64697361626C65206D6F647571
:104B20006C652075617274206661696C6564000D46
:104B30000A746872686C645F74656D705F68696739
:104B4000685F616C61726D093A2566284329000D22
:104B50000A746872686C645F74656D705F6C6F77FF
:104B60005F616C61726D093A2566284329000D0A60
:104B7000746872686C645F74656D705F686967689B
:104B80005F7761726E093A2566284329000D0A7421
:104B90006872686C645F74656D705F6C6F775F7767
:104BA00061726E093A2566284329000D0A746872FD
:104BB000686C645F7663635F686967685F616C6196
:104BC000726D093A2566285629000D0A74687268C4
:104BD0006C645F7663635F6C6F775F616C61726D4D
:104BE000093A2566285629000D0A746872686C64B3
:104BF0005F7663635F686967685F7761726E093AC1
:104C00002566285629000D0A746872686C645F7600
:104C100063635F6C6F775F7761726E093A25662810
:104C20005629000D0A746872686C645F7278707738
:104C3000725F686967685F616C61726D093A2566C9
:104C40002864626D29000D0A746872686C645F7272
:104C5000787077725F6C6F775F616C61726D093A23
:104C600025662864626D29000D0A746872686C6498
:104C70005F72787077725F686967685F7761726E7C
:104C8000093A25662864626D29000D0A7468726805
:104C90006C645F72787077725F6C6F775F77617248
:104CA0006E093A25662864626D29000D0A746872DF
:104CB000686C645F7478626961735F686967685F74
:104CC000616C61726D3A2566286D4129000D0A7488
:104CD0006872686C645F7478626961735F6C6F7727
:104CE0005F616C61726D093A2566286D4129000D7E
:104CF0000A746872686C645F7478626961735F6873
:104D00006967685F7761726E093A2566286D412987
:104D1000000D0A746872686C645F7478626961730C
:104D20005F6C6F775F7761726E093A2566286D4117
:104D300029000D0A746872686C645F747870777209
:104D40005F686967685F616C61726D093A25662802
:104D500064626D29000D0A746872686C645F74780F
:104D60007077725F6C6F775F616C61726D093A2565
:104D7000662864626D29000D0A746872686C645F4D
:104D800074787077725F686967685F7761726E09BF
:104D90003A25662864626D29000D0A746872686C91
:104DA000645F74787077725F6C6F775F7761726E33
:104DB000093A25662864626D29000D0A206D6F642A
:104DC000756C655F636C6173733A256275008692DA
:104DD0009EAA00000000000000000000000000008B
:104DE00000000000000000000000000000000000C3
:104DF000000084909CA88894A0AC86929EAA060786
:104E00000707ECB4C8DCF8C0D4E8F0B8CCE0ECB4E8
:104E1000C8DCF8C0D4E8F0B8CCE0FF499DFF49A059
:104E2000FF49A30000900CB774FFF0A374F4F0A343
:104E30007435F0900CAD122016000003E87B017A67
:104E40000C79AD128C43900CC474FFF0A374F4F091
:104E5000A37447F0900CBA122016000007D07B0113
:104E60007A0C79BA128C43900CAA74FFF0A374F4F4
:104E7000F0A3743EF0900CA012201600000BB87B3B
:104E8000017A0C79A0128C43900A1C74FFF0A37471
:104E9000EBF0A374A6F07BFF7A08793012B8A590E6
:104EA0000A1C74FFF0A374F1F0A374FFF07BFF7A87
:104EB00008793B12B8A5900A1C74FFF0A37400F0A7
:104EC000A3742EF07BFF7A08794112B8A5900A1CD2
:104ED00074FFF0A374F4F0A37481F07BFF7A087977
:104EE0004812B8A5900A1C74FFF0A374ECF0A374E8
:104EF000E1F07BFF7A08795612B8A5900A1C74FF7E
:104F0000F0A37463F0A374BCF07BFF7A087960129D
:104F1000B8A5900A1C74FFF0A37467F0A374BCF0EA
:104F20007BFF7A08798E12B8A5900A1C74FFF0A353
:104F300074EEF0A37483F07BFF7A0879C012B8A5F1
:104F4000900A1C74FFF0A374DEF0A37411F07BFFD1
:104F50007A0879C912B8A5900A1C74FFF0A374F4FA
:104F6000F0A3747BF07BFF7A0879D812B8A5900A79
:104F70001C74FFF0A37495F0A374FAF07BFF7A0819
:104F800079E612B8A5900A1C74FFF0A374EEF0A3A2
:104F900074B9F07BFF7A0879FF12B8A5900A1C74E7
:104FA000FFF0A374EEF0A374EEF07BFF7A0979159D
:104FB00012B8A5900A1C74FFF0A374E5F0A37471F5
:104FC000F07BFF7A09792B12B8A5900A1C74FFF0C8
:104FD000A374DCF0A37438F07BFF7A09794412B82B
:104FE000A5900A1C74FFF0A37489F0A374B4F07B3D
:104FF000FF7A09796112B8A5900A1C74FFF0A374B6
:1050000089F0A374B4F07BFF7A09797412B8A59083
:105010000A1C74FFF0A374D0F0A374A7F07BFF7A8E
:1050200009798812B8A5900A1C74FFF0A374CFF018
:10503000A37473F07BFF7A0979A012B8A5900A1CBB
:1050400074FFF0A374D1F0A3743AF07BFF7A09796E
:10505000B812B8A5900A1C74FFF0A374D1F0A37421
:10506000CDF07BFF7A0979D112B8A5900A1C74FFA4
:10507000F0A374F3F0A37411F07BFF7A0979E912BD
:10508000B8A5900A1C74FFF0A374C1F0A37410F0CB
:105090007BFF7A0979FC12B8A5900A1C74FFF0A373
:1050A00074EBF0A37424F07BFF7A0A791812B8A588
:1050B000900A1C74FFF0A374E6F0A37422F07BFF47
:1050C0007A0A793512B8A5900A1C74FFF0A374C649
:1050D000F0A374E2F07BFF7A0A794E12B8A5900A29
:1050E0001C74FFF0A37495F0A374FAF07BFF7A0AA6
:1050F000796E12B8A5900A1C74FFF0A37463F0A334
:1051000074BCF07BFF7A0A799512B8A5900A1C74DA
:10511000FFF0A374A9F0A374CAF07BFF7A0A79C5E3
:1051200012B8A5900A1C74FFF0A374AAF0A374B679
:10513000F07BFF7A0A79DD12B8A5900A1C74FFF0A3
:10514000A374ABF0A374A2F07BFF7A0A79F512B8CE
:10515000A5900A1C74FFF0A374B1F0A3740AF07B4D
:10516000FF7A0B790A12B8A5900A1C74FFF0A37499
:10517000B5F0A3745FF07BFF7A0B793B12B8A59072
:105180000A1C74FFF0A374A3F0A37456F07BFF7A9B
:105190000B795712B8A5900A1C74FFF0A374A4F001
:1051A000A37442F07BFF7A0B797612B8A5900A1CA3
:1051B00074FFF0A374A5F0A3742EF07BFF7A0B7933
:1051C0009412B8A5900A1C74FFF0A374A6F0A374FF
:1051D0001AF07BFF7A0B79B312B8A5900A1C74FF02
:1051E000F0A374A7F0A37406F07BFF7A0B79D112B9
:1051F000B8A5900A1C74FFF0A374A7F0A374F2F092
:105200007BFF7A0B79EF12B8A5900A1C74FFF0A30C
:1052100074A8F0A374DEF07BFF7A0C790E12B8A5A7
:10522000900A1C74FFF0A37499F0A37454F07BFFF0
:105230007A0C792D12B8A5900A1C74FFF0A374BDE6
:10524000F0A37449F07BFF7A0C796112B8A5900A3B
:105250001C74FFF0A374CCF0A374F9F07BFF7A0CFC
:1052600079A812B8A5900A1C74FFF0A37425F0A3C6
:105270007451F07BFF7A0C79DE12B8A5900A1C7489
:10528000FFF0A37425F0A37451F07BFF7A0D79121F
:1052900012B8A5900A1C74FFF0A37425F0A37451F2
:1052A000F07BFF7A0D795812B8A5900A1C74FFF0B4
:1052B000A37425F0A37451F07BFF7A0D79A212B884
:1052C000A5900A1C74FFF0A3749BF0A37476F07B86
:1052D000FF7A0D79EC12B8A5900A1C74FFF0A37444
:1052E0009BF0A37476F07BFF7A0E790012B8A5903C
:1052F0000A1C74FFF0A37454F0A374A4F07BFF7A2B
:105300000E792512B8A5900A1C74FFF0A37454F00E
:10531000A374A4F07BFF7A0E797B12B8A5900A1CC7
:1053200074FFF0A37454F0A374A4F07BFF7A0E7999
:10533000D112B8A5900A1C74FFF0A37454F0A374A2
:10534000A4F07BFF7A0F792712B8A5900A1C74FF8E
:10535000F0A37454F0A374A4F07BFF7A0F79811248
:10536000B8A5900A1C74FFF0A374D9F0A37445F09B
:105370007BFF7A0F79DB12B8A5900A1C74FFF0A3AB
:1053800074C5F0A37477F07BFF7A0F79F912B8A592
:10539000900A1C74FFF0A374D2F0A374F2F07BFFA8
:1053A0007A10791912B8A5900A1C74FFF0A374D270
:1053B000F0A37460F07BFF7A10792D12B8A5900AE3
:1053C0001C74FFF0A374A1F0A37472F07BFF7A1039
:1053D000796012B8A5900A1C74FFF0A3749EF0A324
:1053E000748BF07BFF7A1079A412B8A5900A1C7414
:1053F000FFF0A374B9F0A3746FF07BFF7A1079EF1C
:1054000012B8A5900A1C74FFF0A374B9F0A3746FCE
:10541000F07BFF7A11791D12B8A5900A1C74FFF079
:10542000A3746DF0A37419F07BFF7A11793A12B866
:10543000A5900A1C74FFF0A3746FF0A37455F07B61
:10544000FF7A11797012B8A5900A1C74FFF0A3744A
:1054500088F0A3745BF07BFF7A1179A612B8A5904F
:105460000A1C74FFF0A37487F0A37401F07BFF7A29
:105470001179D712B8A5900A1C74FFF0A374B2F08A
:10548000A374CCF07BFF7A12790812B8A5900A1C9D
:1054900074FFF0A3749DF0A37487F07BFF7A1279F8
:1054A0001502B8A59009E7EBF0A3EAF0A3E9F0E450
:1054B000A3F0A3F0A3F0A3F0A31220163F800000F6
:1054C0009009F274FFF0E9243DF9E43AFA12E93C5C
:1054D0009009EE12200A9009E7E0FBA3E0FAA3E0AE
:1054E0002429F9E43AA801FCAD037BFF7A0579F899
:1054F000122309EF70099009F27414F0025A2090F7
:1055000009E7E0FBA3E0FAA3E02429F9E43AA801C3
:10551000FCAD037BFF7A0579FC122309EF7006903E
:1055200009F2F080789009E7E0FBA3E0FAA3E02419
:1055300029F9E43AA801FCAD037BFF7A06790C1245
:105540002309EF70089009F204F0E480509009E715
:10555000E0FBA3E0FAA3E02429F9E43AA801FCADBA
:10556000037BFF7A06791B122309EF70099009F279
:105570007402F0E480279009E7E0FBA3E0FAA3E0DF
:105580002429F9E43AA801FCAD037BFF7A06792AC5
:10559000122309EF70109009F27403F0E4FFFE7D0E
:1055A000807C430256659009E7E0FBA3E0FAA3E0A4
:1055B0002429F9E43AA801FCAD037BFF7A06793887
:1055C000122309EF70119009F27404F07F007E40FD
:1055D0007D1C7C460256659009E7E0FBA3E0FAA338
:1055E000E02429F9E43AA801FCAD037BFF7A0679AF
:1055F00047122309EF70109009F27405F07F007EC6
:10560000407D1C7C46805E9009E7E0FBA3E0FAA3A6
:10561000E02429F9E43AA801FCAD037BFF7A06797E
:1056200055122309EF70109009F27406F07F007E86
:10563000407D1C7C46802E9009E7E0FBA3E0FAA3A6
:10564000E02429F9E43AA801FCAD037BFF7A06794E
:1056500063122309EF701F9009F27407F07F007E38
:10566000407D1C7C469009EEE0F8A3E0F9A3E0FA47
:10567000A3E0FB0258F49009E7E0FBA3E0FAA3E003
:105680002429F9E43AA801FCAD037BFF7A0679707E
:10569000122309EF703A9009F27408F0E4FBFA79EA
:1056A0002078419009EEE0FCA3E0FDA3E0FEA3E03A
:1056B000FF121633900A4C12200A7F007E007D20D4
:1056C0007C4112859B7B007A40791C78460258F415
:1056D0009009E7E0FBA3E0FAA3E02429F9E43AA863
:1056E00001FCAD037BFF7A067981122309EF703A42
:1056F0009009F27409F0E4FBFA792078419009EE00
:10570000E0FCA3E0FDA3E0FEA3E0FF121633900A45
:105710004C12200A7F007E007D207C4112859B7BFD
:10572000007A40791C78460258F49009E7E0FBA320
:10573000E0FAA3E02429F9E43AA801FCAD037BFFD9
:105740007A067991122309EF703A9009F2740AF0FF
:10575000E4FBFA792078419009EEE0FCA3E0FDA398
:10576000E0FEA3E0FF121633900A4C12200A7F00DD
:105770007E007D207C4112859B7B007A40791C78DD
:10578000460258F49009E7E0FBA3E0FAA3E02429DD
:10579000F9E43AA801FCAD037BFF7A0679A1122354
:1057A00009EF703A9009F2740BF0E4FBFA79207873
:1057B000419009EEE0FCA3E0FDA3E0FEA3E0FF12B0
:1057C0001633900A4C12200A7F007E007D207C4117
:1057D00012859B7B007A40791C78460258F4900928
:1057E000E7E0FBA3E0FAA3E02429F9E43AA801FCEE
:1057F000AD037BFF7A0679B0122309EF7007900999
:10580000F2740C80739009E7E0FBA3E0FAA3E024B4
:1058100029F9E43AA801FCAD037BFF7A0679C012AE
:105820002309EF70079009F2740D804C9009E7E0AE
:10583000FBA3E0FAA3E02429F9E43AA801FCAD03B4
:105840007BFF7A0679CF122309EF70079009F27473
:105850000E80259009E7E0FBA3E0FAA3E02429F9F4
:10586000E43AA801FCAD037BFF7A0679DE12230936
:10587000EF702A9009F2740FF0E4FFFE7D7A7C4409
:105880009009EEE0F8A3E0F9A3E0FAA3E0FB12151B
:105890002AE4FBFAF97840121633025A0D9009E710
:1058A000E0FBA3E0FAA3E02429F9E43AA801FCAD67
:1058B000037BFF7A0679EC122309EF703D9009F221
:1058C0007410F0E4FBFA792078419009EEE0FCA333
:1058D000E0FDA3E0FEA3E0FF121633900A4C122075
:1058E0000A7F007E007D207C4112859B7B007A40F0
:1058F000791C784612152A025A0D9009E7E0FBA39D
:10590000E0FAA3E02429F9E43AA801FCAD037BFF07
:105910007A0679FD122309EF703D9009F27411F0B7
:10592000E4FBFA792078419009EEE0FCA3E0FDA3C6
:10593000E0FEA3E0FF121633900A4C12200A7F000B
:105940007E007D207C4112859B7B007A40791C780B
:105950004612152A025A0D9009E7E0FBA3E0FAA3CC
:10596000E02429F9E43AA801FCAD037BFF7A07792A
:105970000D122309EF703C9009F27412F0E4FBFA67
:10598000792078419009EEE0FCA3E0FDA3E0FEA3BE
:10599000E0FF121633900A4C12200A7F007E007D31
:1059A000207C4112859B7B007A40791C7846121539
:1059B0002A805A9009E7E0FBA3E0FAA3E02429F942
:1059C000E43AA801FCAD037BFF7A07791D12230995
:1059D000EF70479009F27413F0E4FBFA79207841F4
:1059E0009009EEE0FCA3E0FDA3E0FEA3E0FF1216A9
:1059F00033900A4C12200A7F007E007D207C4112E9
:105A0000859B7B007A40791C784612152A121787ED
:105A10009009ECEEF0A3EFF080069009EB74FFF034
:105A20009009E7E0FBA3E0FAA3E02401F9E43AA837
:105A300001FCAD037BFF7A017973122309EF70211A
:105A40009009EAE0FFC394004044EF9414503F9063
:105A500009F2E0FF9009ECE0FCA3E0FD12EB6680A8
:105A6000289009E7E0FBA3E0FAA3E02401F9E43A77
:105A7000A801FCAD037BFF7A017977122309EF704F
:105A80000D9009F2E0FF12E8149009EBEFF0900995
:105A9000EBE0FF229009F7EFF0E4A3F0A3F0A3F00E
:105AA0007B037D7FFC7FA012ED319009FAEFF0605F
:105AB00003E0FF229009F7E0247BF582E4340CF543
:105AC00083E0FD7C007B017A0979F8900AD7E4F045
:105AD000A37402F07FA012F2FA9009FAEFF0900995
