:020000040000FA
:100000000214F8AE07EED394004017900066E0D3D8
:100010009400400E7F08121F77900066E014F01ED7
:0600200080E322021D67CF
:10002B00020EEB122077121FF2121F8B121FA5125A
:10003B00202212206C022082021EA8EFB40A077441
:10004B000D120051740A309811A899B8130CC2986C
:10005B003098FDA899C298B811F63099FDC299F560
:02006B009922D8
:10007300022060E4FFFE120184600C0FEF70010E9A
:1000830009E970F20A80EF22022033E709F608DF5C
:10009300FA8046E709F208DFFA803E88828C83E71C
:1000A30009F0A3DFFA8032E309F608DFFA8078E388
:1000B30009F208DFFA807088828C83E309F0A3DFFA
:1000C300FA806489828A83E0A3F608DFFA8058897C
:1000D300828A83E0A3F208DFFA804C80D280FA8020
:1000E300C680D4806980F28033801080A680EA8045
:1000F3009A80A880DA80E280CA803389828A83EC7E
:10010300FAE493A3C8C582C8CCC583CCF0A3C8C501
:1001130082C8CCC583CCDFE9DEE7800D89828A8380
:10012300E493A3F608DFF9ECFAA9F0EDFB22898248
:100133008A83ECFAE0A3C8C582C8CCC583CCF0A3FC
:10014300C8C582C8CCC583CCDFEADEE880DB898200
:100153008A83E493A3F208DFF980CC88F0EF60018F
:100163000E4E60C388F0ED2402B4040050B9F5824A
:10017300EB2402B4040050AF23234582239000DE16
:1001830073BB010689828A83E0225002E722BBFE09
:1001930002E32289828A83E49322BB010689828A4D
:1001A30083F0225002F722BBFE01F322F8BB010DBC
:1001B300E58229F582E5833AF583E8F0225006E9E2
:1001C3002582C8F622BBFE05E92582C8F222EF8DFF
:1001D300F0A4A8F0CF8CF0A428CE8DF0A42EFE229C
:1001E300C5F0F8A3E028F0C5F0F8E58215827002A7
:1001F3001583E038F022E88FF0A4CC8BF0A42CFC1C
:10020300E98EF0A42CFC8AF0EDA42CFCEA8EF0A479
:10021300CDA8F08BF0A42DCC3825F0FDE98FF0A408
:100223002CCD35F0FCEB8EF0A4FEA9F0EB8FF0A4FF
:10023300CFC5F02ECD39FEE43CFCEAA42DCE35F03B
:10024300FDE43CFC2275F008758200EF2FFFEE33CE
:10025300FECD33CDCC33CCC58233C5829BED9AEC36
:1002630099E58298400CF582EE9BFEED9AFDEC99A0
:10027300FC0FD5F0D6E4CEFBE4CDFAE4CCF9A882AA
:1002830022B800C1B90059BA002DEC8BF084CFCE4F
:10029300CDFCE5F0CBF97818EF2FFFEE33FEED330D
:1002A300FDEC33FCEB33FB10D703994004EB99FBD4
:1002B3000FD8E5E4F9FA227818EF2FFFEE33FEEDBD
:1002C30033FDEC33FCC933C910D7059BE99A4007CA
:1002D300EC9BFCE99AF90FD8E0E4C9FAE4CCFB22E1
:1002E30075F010EF2FFFEE33FEED33FDCC33CCC8AA
:1002F30033C810D7079BEC9AE899400AED9BFDECB5
:100303009AFCE899F80FD5F0DAE4CDFBE4CCFAE4F3
:10031300C8F922EB9FF5F0EA9E42F0E99D42F0E82E
:100323009C45F022BB010789828A8302036550053D
:10033300E9F8020766BBFE05E9F802077222BB0172
:100343000DE58229F582E5833AF5830203655007BB
:10035300E92582F8020766BBFE07E92582F8020752
:100363007222ECF0A3EDF0A3EEF0A3EFF022A8824B
:100373008583F0D083D08212038812038812038806
:10038300120388E473E493A3C583C5F0C583C8C58A
:1003930082C8F0A3C583C5F0C583C8C582C822BB84
:1003A300010789828A830207905005E9F802077ED4
:1003B300BBFE05E9F80207A289828A830207B4BB60
:1003C300011A89828A83D0F0D0E0F8D0E0F9D0E036
:1003D300FAD0E0FBE8C0E0C0F00207995016E9F854
:1003E300D083D082D0E0F9D0E0FAD0E0FBC082C065
:1003F30083020787BBFE16E9F8D083D082D0E0F9E9
:10040300D0E0FAD0E0FBC082C0830207AB22BB017D
:100413000DE58229F582E5833AF5830207905007BB
:10042300E92582F802077EBBFE07E92582F8020769
:10043300A2E58229F582E5833AF5830207B4BB017D
:1004430020E58229F582E5833AF583D0F0D0E0F800
:10045300D0E0F9D0E0FAD0E0FBE8C0E0C0F002075A
:10046300995018E92582F8D083D082D0E0F9D0E002
:10047300FAD0E0FBC082C083020787BBFE18E925E0
:1004830082F8D083D082D0E0F9D0E0FAD0E0FBC08C
:1004930082C0830207AB228A838982E473E3F5F087
:1004A30009E208B5F06D606B80F3E3F5F009E60847
:1004B300B5F060605E80F387F009E608B5F054603C
:1004C3005280F487F009E208B5F048604680F4886A
:1004D300828C8387F009E0A3B5F038603680F48816
:1004E300828C8387F009E493A3B5F027602580F31A
:1004F30088828C83E3F5F009E0A3B5F016601480DD
:10050300F388828C83E3F5F009E493A3B5F00460E8
:100513000280F20205CB808580E7808E80D2803C0A
:100523008015806C807E809B80B5808B80A1804FFE
:100533008070803A0205D789828A83ECFAE493F5C6
:10054300F0A3C8C582C8CCC583CCE493A3C8C58235
:10055300C8CCC583CCB5F070606E80E189828A8394
:10056300E493F5F0A3E208B5F05E605C80F2898263
:100573008A83E0F5F0A3E608B5F04D604B80F3897C
:10058300828A83E0F5F0A3E208B5F03C603A80F399
:1005930089828A83E493F5F0A3E608B5F02A6028FC
:1005A30080F2805389828A83ECFAE493F5F0A3C83E
:1005B300C582C8CCC583CCE0A3C8C582C8CCC583DB
:1005C300CCB5F004600280E27FFFB5F0020F224059
:1005D300027F012289828A83ECFAE0F5F0A3C8C581
:1005E30082C8CCC583CCE0A3C8C582C8CCC583CCA4
:1005F300B5F0D560D380E389828A83ECFAE0F5F025
:10060300A3C8C582C8CCC583CCE493A3C8C582C89C
:10061300CCC583CCB5F0B160AF80E288F0ED2402A5
:10062300B4040050A3F582EB2402B40400509923D0
:100633002345822390051973E709F60870FA80466B
:10064300E709F20870FA803E88828C83E709F0A3F9
:1006530070FA807EE309F60870FA8076E309F208FF
:1006630070FA806E88828C83E309F0A370FA80624B
:1006730089828A83E0A3F60870FA805689828A8386
:10068300E0A3F20870FA804A80D280FA80C680D450
:10069300806580F28031801080A680EA809A80A8ED
:1006A30080DA80E280CA803189828A83ECFAE4931B
:1006B300A3C8C582C8CCC583CCF0A3C8C582C8CCA7
:1006C300C583CC70E9800D89828A83E493A3F608FD
:1006D30070F9ECFAA9F0EDFB2289828A83ECFAE047
:1006E300A3C8C582C8CCC583CCF0A3C8C582C8CC77
:1006F300C583CC70EA80DD89828A83E493A3F20800
:1007030070F980CE88F0ED2402B4040050C4F58261
:10071300EB2402B4040050BA232345822390068BB2
:1007230073EF4E6012EF60010EEDBB010B89828AFD
:1007330083F0A3DFFCDEFA2289F05007F709DFFC20
:10074300A9F022BBFEFCF309DFFCA9F022A3F8E029
:10075300C5F025F0F0E582158270021583E0C838F4
:10076300F0E822ECF608EDF608EEF608EFF622ECD8
:10077300F208EDF208EEF208EFF222E6FB08E6FAE1
:1007830008E6F922EBF608EAF608E9F622E0FBA30D
:10079300E0FAA3E0F922EBF0A3EAF0A3E9F022E206
:1007A300FB08E2FA08E2F922EBF208EAF208E9F2BE
:1007B30022E493FB740193FA740293F922BB010CB4
:1007C300E58229F582E5833AF583E0225006E9259F
:1007D30082F8E622BBFE06E92582F8E222E58229B9
:1007E300F582E5833AF583E49322F8E0FBA3A3E0E3
:1007F300F925F0F0E582158270021583E0FA38F0EE
:1008030022D083D082F8E4937012740193700DA305
:10081300A393F8740193F5828883E4737402936855
:1008230060EFA3A3A380DFE5082497F582E43407F0
:10083300F583E0050822900794300703900797E4B7
:1008430075F0011207ED0201842000E97F2ED2002A
:100853008018EF540F2490D43440D4FF30040BEFAE
:1008630024BFB41A0050032461FFE509600215098F
:10087300050CE50C7002050B30070E900794E47528
:10088300F0011207EDEF02019D0200467403D20747
:100893008003E4C207F508900794120799E4F50969
:1008A300F50BF50CE50960077F2012086D80F575DF
:1008B3000AFFC201C200C202C203C205C206C208C5
:1008C300120839FF700D3007057F0012087EAF0C48
:1008D300AE0B22B4255FC2D5C204120839FF24D05F
:1008E300B40A00501A75F00A780930D50508B6FF26
:1008F3000106C6A426F620D5047002D20380D924AB
:10090300CFB41A00EF5004C2E5D204020A7FD20129
:1009130080C6D20080C0D20280BCD2D580BAD205B4
:1009230080B47F2012086D2002077401B5090040CE
:10093300F112082AFF12086D0208A7D208D2068016
:100943009512082AFB12082AFA12082AF94A4B7050
:100953000679507A0B7BFF20022EE509602A7E0080
:100963008E827583001207C060060EEE650A70F072
:10097300C2D5EBC0E0EAC0E0E9C0E0EE120AC6D09F
:10098300E0F9D0E0FAD0E0FB120184FF60AAEBC0EB
:10099300E0EAC0E0E9C0E012086DD0E02401F9D03C
:1009A300E03400FAD0E0FBE50A0460DCD50AD98024
:1009B300877BFF7A0A79C2D202809C791080027900
:1009C30008C206C2088008D2D5790A8004790AC20F
:1009D300D5E50A047002F50AE4FAFDFEFF12082ABF
:1009E300FC7B0820011312082AFD7B1030000A1239
:1009F300082AFE12082AFF7B20EC3382D592D550B9
:100A030013C3E43000069FFFE49EFEE42001039D30
:100A1300FDE49CFCE4CBF8C201EC700CCFCECDCC52
:100A2300E824F8F870F38017C3EF33FFEE33FEEDDD
:100A330033FDEC33FCEB33FB994002FB0FD8E9EBBE
:100A4300300105F8D0E0C448B201C0E00AEC4D4ED5
:100A53004F78207B0070C2EAB50A0040BCC0E012A8
:100A63000AC8D0F0D0E0200104C4C0E0C4B201C081
:100A7300F0120856D0F0D5F0EB0208A712080409CB
:100A8300445309BE5809154C09114209C24F09CAFA
:100A93004409CA49092A4309D05509B44609B4454A
:100AA30009B4470B705009192D091D2E09402B0954
:100AB3002123093E200B592A08D948000009383F51
:100AC3003F3F00790AA2D5200314300509B910026B
:100AD3000404B9080104A2D520060250010420022F
:100AE300689202B509005034C0E07F203003197FBB
:100AF30030A20272067205500F120B1FC202C20609
:100B0300C205C2087F30800F300503E9C0E0120838
:100B13006D300503D0E0F9D0E0B509CC3005177F7F
:100B230030B9100C12086D7F583004077F788003AA
:100B3300B9080312086D3002057F2D02086D7F206E
:100B43002008F87F2B2006F322920280CF286E75AF
:100B53006C6C2900D20112082A3001F8C20178090D
:100B630030D50108F60208D92D5043495812082AF6
:100B73002403B405004001E4900B6B9312085E74E8
:100B83003A12085ED2037509040209BE0D0A234D09
:100B9300637554657374426F6172643A0068656C7F
:100BA30070000820080020080020000D0A506C6522
:100BB30061736520777269746520706173737761FF
:100BC3007264202730783866203078396520307891
:100BD30061642030786563272061742066697273CD
:100BE30074000D0A2D2D2D415445434D4452455358
:100BF300554C542D2D2D204641494C000D0A2D2DC9
:100C03002D415445434D44524553554C542D2D2DA0
:100C1300204F4B000D0A436F6D6D616E64206E6F44
:100C230074207265636F676E697365642E20204557
:100C33006E746572202768656C702720746F207648
:100C43006965772061206C697374206F6620617613
:100C530061696C61626C6520636F6D6D616E647355
:100C63002E000D0A2020202020202020000000003C
:100C73000000000000000000000000000000000071
:100C83000000000000000000000000000000000061
:100C93000000000000000000000000000000000051
:100CA3000000000000000000000000000000000041
:100CB3000000000000000000000000000000000031
:100CC3000000000000000000000000000000000021
:100CD3000000000000000000000000000000000011
:100CE3000000000000000000000000000000000001
:100CF30000000000000000000000000000000000F1
:100D030000000000000000000000000000000000E0
:100D130000000000000000000000000000000000D0
:100D230000000000000000000000000000000000C0
:100D330000000000000000000000000000000000B0
:100D430000000000000000000000000000000000A0
:100D53000000000000000000000000000000000090
:100D63000000000000000000000000000000000080
:100D73000000000000000000000000000000000070
:100D83000000000000000000000000000000000060
:100D9300000000000000000000900661EFF0A3EDEA
:100DA300F078637C067D017BFF7A0C79D47E007F2B
:100DB3006412015E900662E0FF2401F9E43400FA54
:100DC3009006C77401F0A3EAF0A3E9F0900661E08E
:100DD300FEB42308EF700590006804F0EEC394306E
:100DE3004006EED39439402AEEC394614006EED315
:100DF300947A401EEEC394414006EED3945A4012B7
:100E0300EE6420600DEE64236008EE645F6003020D
:100E13000EEA900068E06003020EEA900067E0FFCC
:100E2300900662E0C39F4003020ED61210C89006DC
:100E3300C7E0F9A3E0FAA3E09006CDC9F0A3EAF076
:100E4300A3E9F0900662E0FF900067E0C39FFEE431
:100E530094009006D0F0A3CEF07B017A067963125A
:100E6300196E900661E0FF9006C7E0FBA3E0FAA3CA
:100E7300E0F9EF12019D9006C8E475F0011201E359
:100E8300900662E0FFC374639FFFE49400FE900644
:100E9300C7E0FBA3E0FAA3E0F8AC02AD037B017A61
:100EA30006796312015E900661E0FF121F777B01F2
:100EB3007A067963121DF67B017A007901120076B6
:100EC300900066EFF07B017A0679631200761200D8
:100ED30003800E900661E0FF121F77900066E00426
:100EE300F0900067E004F022C0E0C0F0C083C0824D
:100EF300C0D075D010900651E4F0F9A3C9F0A3F067
:100F0300A3E9F0900651E4F0900651E0FFC3940387
:100F13004003020FB8EF75F00DA424C6F582E43444
:100F230007F583E07003020FAF900651E075F00DF3
:100F3300A424C2F582E43407F583E0FCA3E0FDA317
:100F4300E0FEA3E0FF9007F2E0F8A3E0F9A3E0FAE4
:100F5300A3E0FBC31203164053900651E0FF75F064
:100F63000DA424C7F582E43407F5837401F0EF750B
:100F7300F00DA424BEF9740735F0FA9006527401FB
:100F8300F0A3EAF0A3E9F0900651E075F00DA42474
:100F9300BEF582E43407F583E0FCA3E0FDA3E0FEA5
:100FA300A3E0FF7B017A067952121584900651E083
:100FB30004F0020F0B9007F2E0FCA3E0FDA3E0FEB8
:100FC300A3E02401FFE43EFEE43DFDE43CFC900786
:100FD300F2120365C2CFD0D0D082D083D0F0D0E05C
:100FE30032900670EBF0A3EAF0A3E9F0900670E00C
:100FF300FBA3E0FAA3E04A4B70159007F6E0F9A3D0
:10100300E0FAA3E0900670C9F0A3EAF0A3E9F09038
:101013000670E0FBA3E0FAA3E04A4B7004FBFAF985
:1010230022900673E0F9A3E0FAA3E0900679C9F0F1
:10103300A3EAF0A3E9F0900670E0FBA3E0FAA3E0D3
:10104300F912168C900671EE8FF01201E390067080
:10105300E0FBA3E0FAA3E0F91201847012F9900710
:10106300F6C9F0A3F0A3E9F07B007A00790022909F
:101073000673E0F9A3E0FAA3E0900679C9F0A3EAC6
:10108300F0A3E9F0900670E0FBA3E0FAA3E0F91205
:1010930017109007F6EBF0A3EAF0A3E9F04A4B60D0
:1010A300189007F6E0FBA3E0FAA3E0F9E412019D30
:1010B3009007F775F0011201E3900670E0FBA3E0DF
:1010C300FAA3E0F922E49006CAF078CB7C067D010E
:1010D3007BFF7A0C7970FE7F6412015EE4FF74017A
:1010E3002FF582E43400F583E06067B41B117402CA
:1010F3002FF582E43400F583E0B45B030F0F0F7424
:10110300012FF582E43400F583E0FEC394304006FA
:10111300EED394394026EEC394614006EED3947A1D
:10112300401AEEC394414006EED3945A400EEE6447
:10113300206009EE64236004EEB45F139006CAE0F6
:10114300FD04F074CB2DF582E43406F583EEF00F45
:10115300808C78017C007D017B017A0679CB7E004F
:101163007F6412015E9006CAE0FF2401F9E43400B3
:10117300FA9000697401F0A3EAF0A3E9F074012F77
:10118300F9E43400FAA37401F0A3EAF0A3E9F090C0
:101193000067EFF022900661EFF078627C067D0134
:1011A3007BFF7A0D79387E007F6412015E900661C1
:1011B300E0FF2401F9E43400FA9006C67401F0A3B9
:1011C300EAF0A3E9F0EFD394005003021263121084
:1011D300C878627C067D019006C6E0FBA3E0FAA313
:1011E300E0F91207079006C774FFF5F01201E390C8
:1011F3000661E0FFC374659FFFE49400FE9006C69A
:10120300E0FBA3E0FAA3E0F8AC02AD037B017A06AE
:10121300796212015E7B017A0079011200769000F7
:1012230067EFF0121DF07B017A067962121DF67BDF
:10123300FF7A0B79A9121DF6900067E0900066F023
:101243007B017A06796212007612000390006A74B9
:10125300FFF5F01201E390006D74FFF5F01201E366
:1012630022AC07A9A775A720EC7036047E00A80559
:10127300088005C333CE33CED8F9FFABFDEF5B60F7
:10128300117401A805088002C333D8FCF452FD028F
:1012930013177401A805088002C333D8FC42FD80EC
:1012A30073EC64017032047E00A805088005C33323
:1012B300CE33CED8F9FFABEDEF5B600D7401A8051B
:1012C300088002C333D8FC80377401A80508800264
:1012D300C333D8FC42ED803CEC64027037047E00DB
:1012E300A805088005C333CE33CED8F9FFACEDECA7
:1012F300FBEF5B60107401A805088002C333D8FCC0
:10130300F452ED800FAF057401A807088002C333C0
:10131300D8FC42EDAF018FA72290065C120365E46F
:10132300900660F07F02FEFDFC90065CE0F8A3E00F
:10133300F9A3E0FAA3E0FB1201F99007F2E0F8A3A6
:10134300E0F9A3E0FAA3E0FBC374FF9BFB74FF9AED
:10135300FA74FF99F974FF98F8C312031650689052
:1013630007F212037100000000E4900660F090069B
:1013730060E0FFC39403504FEF75F00DA424C8F54C
:1013830082E43407F583E0FBA3E0FAA3E04A4B6071
:101393002E900660E0FB75F00DA424BEF582E434C4
:1013A30007F583E0FCA3E0FDA3E0FEA3E0FFEB75FC
:1013B300F00DA424C2F582E43407F583120365908B
:1013C3000660E004F080A72290067374FFF0A37414
:1013D3000BF0A374ACF0120FE490066CEBF0A3EAED
:1013E300F0A3E9F0E4A3F090066CE0FBA3E0FAA31A
:1013F300E0F9EA494B6069A3E075F014A42473F99A
:10140300740035F0FA7B01C003C00290066CE0FB68
:10141300A3E0FAA3E0F8AC02AD03D002D0031206B6
:101423001EEF7002801090066CE0FBA3E0FAA3E0CD
:10143300F9121F50502890067374FFF0A3740BF039
:10144300A374ACF07B007A007900120FE490066C71
:10145300EBF0A3EAF0A3E9F0A3E004F08089C32250
:10146300D322900661EBF0A3EAF0A3E9F0A374FEA4
:10147300F0A3E4F0A3F0A3F0900661E0FBA3E0FA8D
:10148300A3E0F9120184606C1219D6900661E0FBA7
:10149300A3E0FAA3E0F9121608121A9E900665EB70
:1014A300F0A3EAF0A3E9F0900665E0FBA3E0FAA35A
:1014B300E04A4B6036900665A3A3E0F9900003125F
:1014C300041112049A900664EFF064FE6015E0B410
:1014D300FD097BFF7A0B79AE121DF67BFF7A0B7940
:1014E300E5800E7BFF7A0B79FF80067BFF7A0C7910
:1014F30017121DF622787FE4F6D8FD7581210215B7
:101503003F021A3CE493A3F8E493A34003F680015B
:10151300F208DFF48029E493A3F85407240CC8C32A
:1015230033C4540F4420C8834004F456800146F664
:10153300DFE4800B0102040810204080901FD9E4EF
:101543007E019360BCA3FF543F30E509541FFEE4C2
:1015530093A360010ECF54C025E060A840B8E49384
:10156300A3FAE493A3F8E493A3C8C582C8CAC583C6
:10157300CAF0A3C8C582C8CAC583CADFE9DEE7804B
:10158300BE900658120365900655EBF0A3EAF0A34C
:10159300E9F01203A2E94A4B606A900658E0FCA303
:1015A300E0FDA3E0FEA3E0FF12131C900658E0FC4D
:1015B300A3E0FDA3E0FEA3E0FF900655E0FBA3E05C
:1015C300FAA3E0F91203A21203279007F2E0FCA3A7
:1015D300E0FDA3E0FEA3E0FF900658E0F8A3E0F9E6
:1015E300A3E0FAA3E02FFFEA3EFEE93DFDE83CFC61
:1015F300900655E0FBA3E0FAA3E0F91203A29000E2
:101603000412034122900668EBF0A3EAF0A3E9F089
:10161300A3E4F0A3F0A3F090067374FFF0A3740B9C
:10162300F0A374ACF0900668E0FBA3E0FAA3E0F942
:10163300804690066BE0FBA3E0FAA3E0F9EA494B8E
:101643006046900072E0FF04F0EF75F014A4247379
:10165300F9740035F0A801FC7D0190066BA3A3E0AB
:10166300F912070790067374FFF0A3740BF0A374C9
:10167300ACF07B007A007900120FE490066BEBF07C
:10168300A3EAF0A3E9F080AA22900676EBF0A3EA9E
:10169300F0A3E9F0E490067CF0A3F0E4FEFF9006EB
:1016A30079E0FBA3E0FAA3E0F98F828E831207C0EF
:1016B300FD6018900676E0FBA3E0FAA3E0F91201BF
:1016C300846D60070FBF00010E80D3900679E0FBA5
:1016D300A3E0FAA3E0F98F828E831207C070028021
:1016E3002390067DE004F0700690067CE004F09001
:1016F3000676E0FBA3E475F0011201E3A9F0FA1208
:101703000184709790067CE0FEA3E0FF22900676AA
:10171300EBF0A3EAF0A3E9F0900679E0F9A3E0FA8D
:10172300A3E0A3C9F0A3EAF0A3E9F090067CE0FBF1
:10173300A3E0FAA3E0F9120184FF601D900676E0AE
:10174300FBA3E0FAA3E0F91201846F600C90067D1D
:10175300E475F0011201E380D290067CE0FBA3E084
:10176300FAA3E0F9120184600C900676E0FBA3E093
:10177300FAA3E0F922900676E0FBA3E475F00112E8
:101783000750A9F0FA120184708EFBFAF922E49053
:101793000661F0F0900661E0FF75F00DA424C7F533
:1017A30082E43407F583E4F0EF75F00DA424BEF56D
:1017B30082E43407F5831203710000000090066190
:1017C300E0FF75F00DA424C6F582E43407F583E445
:1017D300F0EF75F00DA424C2F582E43407F583120B
:1017E300037100000000900661E075F00DA424C8A9
:1017F300F582E43407F583E4F0A3F0A3F0900661E7
:10180300E004F0E0B4038D22E4780EF690006CE07F
:10181300FBA3E0FAA3E0F974019000016B7008E9FF
:1018230065827003EA658370028051EF1FAC067016
:10183300011E4C604790006CE0FBA3E0FAA3E0F9C3
:10184300C003C002C001900069A3E0FAA3E0F9C39A
:10185300D082D083D0E0E99582EA958350CD900081
:1018630069E0FB120184600E780EF6FF90006AE4D3
:1018730075F0010201E3E4780EF680AF780EE6FF1F
:1018830022900000E07008900203E0900000F090C6
:101893000000E0D394004061121E6E900000E075DA
:1018A300F064A42404F9740235F0FA7B01121DF6E6
:1018B300900000E075F064A42404F9740235F0FA92
:1018C3007B01120076C006C007900000E075F0644B
:1018D300A42404F9740235F0FA7B0178017C007DBD
:1018E30001D007D00612015E900000E014F0E07012
:1018F30008900203E0900000F0227F017E0012189E
:101903000B780DEFF66063E6FF640A6004EFB40D35
:101913001F1210C87B017A007901121465121D1F72
:1019230090006FE0FBA3E0FAA3E0F9121DF680CA72
:10193300780DE6B4080A900066E0FF12119880BAA9
:10194300780DE6B41B1674FFFFFE12180BBF5B0C79
:1019530074FFFFFE12180B121BF1809E780DE6FF39
:10196300900066E0FD120D9C8090229006CAEBF079
:10197300A3EAF0A3E9F0E49006D2F0A3F09006D036
:1019830074FFF5F012075045F0603C9006CDE0FB84
:10199300A3E0FAA3E0F9120184FF9006CAE0FBA3D7
:1019A300E0FAA3E0F99006D2E475F001120750853E
:1019B300F082F583EF1201AFEF60C29006CEE475BB
:1019C300F0011201E380B69006CAE0FBA3E0FAA39C
:1019D300E0F922900668EBF0A3EAF0A3E9F09006A1
:1019E30068E0FBA3E0FAA3E0F9121C405001227E59
:1019F300007F64C006C0077D00900203E075F064B9
:101A0300A42404F9740235F0FA7B01D007D006123E
:101A13000724900203E0FF04F0EF75F064A42404AC
:101A2300F9740235F0A801FC7D01900668E0FBA380
:101A3300E0FAA3E0F912070722C2AF1220437F079F
:101A430012208C12200A12002E122053121B9FD236
:101A5300AF90066474FFF0A3741EF0A37433F07B9D
:101A6300FF7A1E7930121B4A90066474FFF0A37448
:101A73001EF0A37448F07BFF7A1E7930121B4A9044
:101A8300066474FFF0A3741EF0A3745DF07BFF7A09
:101A93001E7930121B4A1218FD80FB9006687401F0
:101AA300F0A37403F0A374F8F0E4A3F0F0900650ED
:101AB300E0FF90066BE0C39F5031900668E0FBA304
:101AC300E0FAA3E0F91203A21213CB500C900668BC
:101AD300E0FBA3E0FAA3E0F922900669E475F006BF
:101AE3001201E390066BE004F080C27B007A007978
:101AF3000022900661E5A7F0E4F5A7FCFD9007EE50
:101B0300120365E47FE87E03FDFC9007EEE0F8A393
:101B1300E0F9A3E0FAA3E0FB1201F9A804A905AADE
:101B230006AB077F807E8D7D5B7C00120284438938
:101B330002438E01EFF404F58C858C8AC2A9D28C02
:101B4300900661E0F5A722900661EBF0A3EAF0A30B
:101B5300E9F090078B7401F0A37406F0A37464F0AA
:101B6300900661E0F9A3E0FAA3E090078EC9F0A321
:101B7300EAF0A3E9F090078BE0F9A3E0FAA3E09081
:101B83000791C9F0A3EAF0A3E9F07B017A06798C07
:101B9300121CD57B017A06798C021DF6121F2E12B8
:101BA30020957E067F507D007B017A007901120724
:101BB300249000697401F0A37400F0A37401F0F998
:101BC300A37401F0A37400F0A3E9F0A374FFF0A3DE
:101BD300740BF0A3748FF090066474FFF0A3741D6C
:101BE300F0A374ADF07BFF7A0B79A0021C8BEF247A
:101BF300BE600A14600D1460292403703F121E6E28
:101C03000218841210C8900067E0FF900066E0C3DA
:101C13009F5029121F707F43121F77900066E004C4
:101C2300F0221210C8900066E0D39400400E121FF9
:101C3300707F44121F77900066E014F02290066BC9
:101C4300EBF0A3EAF0A3E9F0E4A3F0F0900203E0E1
:101C5300FF90066EE0FEC39F502CEE75F064A42443
:101C630004F9740235F0A801FC7D0190066BE0FBDA
:101C7300A3E0FAA3E0F912061EEF7002D322900646
:101C83006EE004F080C6C322900650E0FFC3946464
:101C9300503F75F006EFA424F8F582E5F03403F520
:101CA30083EBF0A3EAF0A3E9F0900664E0FBA3E082
:101CB300FAA3E0F975F006EFA424FBF582E5F0340E
:101CC30003F583EBF0A3EAF0A3E9F0900650E004F8
:101CD300F02290078EE0FFA3E0FEA3E0CF900797EA
:101CE300F0A3EEF0A3EFF0900791E0CBF0A3E0CAEE
:101CF300F0A3E0C9F07F2290079AAD82AC83120172
:101D0300848D828C83F0A309E970010ADFEC9007CC
:101D130091E0FBA3E0FAA3E0F902088F7E007F6461
:101D23007D007B017A007901120724900069740118
:101D3300F0A37400F0A37401F0F9A37401F0A37489
:101D430000F0A3E9F0E4900065F0A3F0A3F0A3F0A2
:101D53007E017F90FD7B017A007973120724E49062
:101D63000072F022C0E0C0F0C083C082C0D075D042
:101D730000C000C001C002C003C00730980D900727
:101D8300BCE599F0C298E0FF121ED9309907C299B9
:101D9300900065E4F0D007D003D002D001D000D08A
:101DA300D0D082D083D0F0D0E0329006617401F0BD
:101DB300A37403F0A374F8F07BFF7A0C7965121D0A
:101DC300F6900661E0FBA3E0FAA3E0F91203A21286
:101DD3001DF6900661E0FBA3E475F0061201E3A98A
:101DE300F0FA1203A2EA494B70CE7FFE227BFF7A00
:101DF3000B79A590078EEBF0A3EAF0A3E9F0900727
:101E03008EE0FBA3E0FAA3E04A4B602090078EE04C
:101E1300FBA3E0FAA3E0F9120184FF600F121F771E
:101E230090078FE475F0011201E380E0222573002F
:101E33000D0A5065726970686572616C20696E691C
:101E430074204F4B000D0A54657374426F617264C2
:101E5300206973207265616479000D0A234D6375EF
:101E630054657374426F6172643A00E4FE1210C8E1
:101E7300E4FE900067E0FF900066E0C39F501112FC
:101E83001F707F43121F77900066E004F00E80E21C
:101E9300E4FE900067E0FFEEC39F5006121DF00EB4
:101EA30080F0021D1FC0E0C0D075D000C000C0018B
:101EB300C003C004C005C006C007D2097D067F0168
:101EC300121264D007D006D005D004D003D001D0BD
:101ED30000D0D0D0E03290006CA3E0FAA3E0C3902E
:101EE30000659582EA9583501C90006CE0FBA3A3E8
:101EF300E0F9120184700EEF12019D90006DE475FC
:101F0300F0011201E322AFA7E4F5A753C8FB53C8BE
:101F1300F7538ECF53C8FC75CBE875CA9085CBCFEA
:101F230085CACE43C804D2AD8FA722AFA7E4F5A7D5
:101F3300439810758DB2538EF4438E01C29943B802
:101F43001075A71043F21043A8108FA722E4900640
:101F530070F0120184FF601364266004EFB423025F
:101F6300D322740129F9E43AFA80E7C3227F1B12D2
:101F73001F777F5BE5E130E00E900065E070FA903B
:101F830000657401F08F9922AFA7E4F5A77590EF70
:101F930075F2FF75A53075D50375EE4075EDBF8FEE
:101FA300A722AFA775A72075A07E75F37F75A6013D
:101FB30075CC78E4F5FC75FB7F8FA722ADA7E4F51C
:101FC300A753890F4389208F8B858B8DC2AB4388A1
:101FD30040AF058FA722C1094407EE00000000446B
:101FE30007F2000000004107BD004100000000AF00
:101FF300A7E4F5A77580FF75F1FFF5A475D4CFF5B8
:10200300FE75FDFF8FA722AFA775A71075C120E44A
:10201300F5A7F5A9F5A975A90375A9038FA722AF9C
:10202300A775A72075B01F75F41FE4F59C8FA72231
:1020330075A72053BAFD43BA0275A71053983F32D0
:10204300AFA7E4F5A7C2AF7597DE7597AD8FA7224B
:102053007FC87E00121AF5121F0902179153C17F20
:1020630043C18053913FC2C532AFA7E4F5A775E1E1
:10207300058FA722AFA7E4F5A775E3408FA722AF8B
:10208300A7E4F5A7F5E28FA7227597FF53977F8FF4
:092093009722AF8D7E00021FBFF1
:00000001FF
